:020000040800F2
:10000000000D0020BD940008C18E0008C38E0008BA
:10001000C58E0008C78E0008C98E000800000000C9
:10002000000000000000000000000000CB8E00086F
:10003000CD8E000800000000CF8E0008D18E000891
:10004000279500082B9500082F9500083395000888
:10005000379500083B9500083F9500084395000838
:10006000479500084B9500084F950008D98E000869
:100070005395000857950008E38E00085B9500082B
:100080005F95000863950008679500086B95000868
:10009000ED8E00086F95000873950008F78E000834
:1000A00077950008038F00087B9500087F9500086E
:1000B0000D8F0008178F0008218F00088395000816
:1000C000879500088B9500088F9500089395000888
:1000D000979500082B8F00089B9500089F950008B6
:1000E000A3950008A7950008AB9500082DE9F04FEF
:1000F0000FF2A41CA1B0DCE90089CDE900892A9D9A
:10010000DFF8DC9B049100248DF843500D944FF0F0
:10011000FF38824616461F460FE0B3462C461BF8B2
:10012000011B0498D0470028049000F0A2800D988D
:10013000401C641E0D90F2D176193078252808D124
:10014000002100220791089209910A920B910C92CA
:100150000DE06A464146304600F0E7FF050001D158
:100160000D98A1E0D9D50125E6E741F0010116F887
:10017000010F2028F9D023280CD02B2804D02D28BB
:1001800005D0302809D076E041F00201EFE741F0D8
:100190000401ECE741F00801E9E741F01001E6E76E
:1001A0000F9209E00F98484505DA00EB800402EB56
:1001B0004402303A0F92761C3278A2F130000A28BD
:1001C000F0D330782E2818BFCDF8388022D116F819
:1001D000010F2A2807D138683860761C50F8042BA4
:1001E00038600E9216E02D280CBF761C00200022ED
:1001F0000E920AE040B90E9A4A4505DA02EB8204F3
:1002000003EB4403303B0E93761C3378A3F13002AA
:100210000A2AEFD3ADF8401021A0317800F090FF0A
:1002200008B116F8010B8DF842009DF842006828CD
:1002300004D1307868280AD1622105E06C2804BF17
:1002400030786C2803D171218DF84210761C12A8E9
:1002500006903A4616F8013B02A9504600F064F8B1
:1002600038B912AA02A9504600F0C8F900287FF553
:1002700064AF404618E02A2892D13A683A6052F8B2
:10028000040B3A6000280F9003D540420F9041F0D4
:100290000401761C95E7000000000000000000004B
:1002A000686A6C747A4C000021B0BDE8F08F622857
:1002B00020D0682811D06A2803D06C2827D0712854
:1002C00025D10868C01D20F007000860D0E9002390
:1002D00008300860194610467047002A0A680A600C
:1002E000106803D0121D0A6000B217E0121D0A60E8
:1002F00080B217E0002A0A680A60106803D0121D55
:100300000A6040B20AE0121D0A60C0B20AE0002A88
:100310000A680A60106803D0121D0A60C11770478E
:10032000121D0A60002170477CB50D4611461C461F
:100330002E69B4F1250200F04F811C3A00F0848050
:10034000121F022A40F280800E3A00F00981521FEB
:1003500059D0093A78D0921E16D0521E35D0521E6E
:10036000022A71D9121F30D0521F00F09880521EFD
:1003700049D0521E00F0E280D21E00F0FF80921E93
:1003800041D0D21E3FD02DE195F83A406C2C09D0D7
:100390006869421C6A610A680A6052F8043B0A6094
:1003A000335429E10A680A6052F8043B0A6000935A
:1003B000002201924FF0FF332B636A46294600F07A
:1003C00098F9002840F1188103E195F83A000122DC
:1003D000FFF76DFFC5E90001002904D56869411CDC
:1003E00069612D220DE0288F810704D56869411CC1
:1003F00069612B2205E0C00721D56869411C69614C
:10040000202232541BE095F83A000022FFF74FFFFC
:10041000C5E9000195F83800010710D5D5E900239A
:10042000002B08BF002A0AD044F02000782806D10B
:10043000686930213154401C421C6A6134542146A1
:1004400068693044E86087E00868C01D20F0070054
:100450000860D0E9002308300860C5E90023D5E929
:100460000001C80F04D06869411C69612D220DE0AC
:10047000288F810704D56869411C69612B2205E03A
:10048000C00704D56869411C69612022325468693B
:100490003044E8602146284600F036FAACE005F129
:1004A0003A02507820B14FF0FF340FF6043074E078
:1004B0001078622808D0682824D06A2812D06C28C6
:1004C0002ED071280ED02BE00A680A6052F8040B77
:1004D0000A6020B94FF0FF340FF6EC205DE0E96AC6
:1004E000017089E00A680A6052F8040B0A6020B9BA
:1004F0004FF0FF340FF6D0204FE0EA6AD317C0E97F
:10050000002379E00A680A6052F8040B0A6020B9F7
:100510004FF0FF340FF6B0203FE0E96A01806BE056
:100520000A680A6052F8040B0A6020B94FF0FF34E1
:100530000FF6942031E0E96A01605DE00A680A6024
:1005400052F8040B0A60002120F0000221F0FF3372
:10055000C5E90023EE607821284600F02DF94BE034
:100560006C2285F83A200B680B6053F8042B0B6063
:1005700052BB4FF0FF340FF684200EE095F83A207E
:100580006C2AF0D00868086050F8044B0860EC60F2
:100590003CB94FF0FF340FF6482000F0F9FD201A67
:1005A00076BD2E6B002E04D5204600F011FE0446C9
:1005B00008E032460021204600F034FE002814BF37
:1005C000041B3446AC6117E0294600F092F800287D
:1005D00012D54FF0FF3076BD6869411C6961252254
:1005E000325409E06969481C68612522725421006F
:1005F00002D0431C6B613454002076BD2DE9F041DC
:100600000E4605469046726B7069316AB46A121ADA
:10061000B069521A716A121AF069521A121A96F8CF
:100620003800141B41070DD4002C0BDD2746B068A1
:100630002021A8470028B06057D0F06A401C7F1ED8
:10064000F062F4D1736942463146284600F098FCC6
:1006500000284AD1376A002F0ADDB0683021A84748
:100660000028B06041D0F06A401C7F1EF062F4D1D7
:10067000B369F2683146284600F082FCA8BB776A6D
:10068000002F09DDB0683021A847B06068B3F06A78
:10069000401C7F1EF062F5D1F068B169F369421821
:1006A0003146284600F06CFCF8B9B76A002F09DD26
:1006B000B0683021A847B060B8B1F06A401C7F1E16
:1006C000F062F5D196F8380041070BD5002C09DD12
:1006D000B0682021A847B06038B1F06A401C641EA1
:1006E000F062F5D10020BDE8F0814FF0FF30BDE8A9
:1006F000F0812DE9F8470D46A3B02F6B002F064679
:10070000904648BF6FF000470FF60C1400F0B6FD9E
:10071000D4E90023696B4018CDE90123812828BF63
:100720004FF0FF3042D20024002F33DDD8F8001004
:1007300001AA684600F0FBFC8146B9F1000F38D4ED
:10074000D8F8000010B9B9F1010932D44F4521DBC6
:100750006869484481280AD30021696303AA2946AD
:100760003046FFF74BFF040014D40020686103AB50
:10077000D5F814A04A46694603EB0A0000F088FD4C
:10078000CA44C5F814A058F8040B002818BFA7EBFA
:100790000907C9D14CB903AA29463046FFF72EFFF5
:1007A000044614B9002068616863204624B0BDE89F
:1007B000F0874FF0FF34F8E72DE9FC4307466F2937
:1007C0003E6908BF082405D041F02000782814BFF6
:1007D0000A2410243C25D7E90023642918BF69297D
:1007E0009046994605D1002B03D5D8F1000869EB56
:1007F0004909B9F1000F08BFB8F1000F1FD1386BDC
:10080000E8B9082C4CD197F83800010748D53020BA
:100810003B2586F83B0043E000280ED597F83800CA
:1008200000F01400102808D17B6B7969386A5B1AD4
:100830001B1A9A1A002AC8BF3A62BDE8F3838DF8E2
:100840000010404649462246E31700F075FD30325D
:10085000D0B26D1E3A28019504DB9DF80000A0F18E
:1008600051018A187255404649462246E31700F066
:1008700063FD80465FEA010908BFB8F1000F03D0AD
:10088000F86871198842DCD3082C09D197F8380030
:10089000010705D5705D302802D06D1E30207055DF
:1008A000C5F13C02BA617119F960386B8242B3DA62
:1008B000821A3A624FF6EF70398F01403987BDE8EE
:1008C000F3832DE9D04306460F4614464FF0000847
:1008D000DFF8109412E0E00707D542464B46304659
:1008E000394600F041FE06460F464046494642461C
:1008F0004B4600F039FE641080468946002CEAD150
:1009000030463946BDE8D0832DE9F84F05468A4682
:100910004AF020048EB0D5E90089612C02AE09D0DE
:10092000286B002848BF062003D408BF672C01D1DC
:1009300001202863D5E900014A005215521C0DD14F
:100940000B030BD0AAF1610103201A29A86102D27E
:100950000FF2CC6110E00FF2CC610DE04A005215AD
:10096000521C0ED10B030CD1AAF1610103201A29EC
:10097000A86116D30FF2B461E868032200F088FC86
:10098000C0E1CDE90C01DDE90C2323F00043B3F510
:10099000801F0DD20027002B08BF002A019703D12A
:1009A00011E00FF28461E7E701AA00F0AFFE0AE070
:1009B000CD48CE4900EB1350DDE90C2301900B40EC
:1009C000CB4910461943C5E90001612C0DD1E868F7
:1009D00030210170821CBAF1610FEA600CBF7821EE
:1009E000582141706869801C6861D5E90001CDE932
:1009F0000C01DDE90C2333F0004104BF0028002383
:100A000000F04881612C40F0A080286B4946002806
:100A10004CBF4FF0210B00F1010B40460022002398
:100A2000DDE90C8900F0AAFE01990BF1010738BF3E
:100A300089F00049091F002F01918DF808200DF160
:100A4000090040F33581A9490091064640464946D0
:100A50000022002300F0AAFE80F029814800400D0A
:100A600000F11C0211D0002A0FDD40F2FF739A4200
:100A700005DBA04909F000400143002011E0009B84
:100A8000194041EA025140460BE028F0000039F0DD
:100A9000004108BF00280FBF49461C22494600F00C
:100AA0009DFE8046894600F037FFFF1F002F044659
:100AB00009DD00F04FFF02460B464046494600F074
:100AC0005BFF80468946F01D072104E004F00F0219
:100AD00000F8012D2411002C01DD491EF6D5491E18
:100AE0005CBF002200F8012DF9D5DCE0002019469A
:100AF00002AA0A4400E05B1E12F80149491E844222
:100B0000F9D00F2804D10DF10900425C521C425467
:100B1000002904D50198001D02AE5B1C0190581EEF
:100B20000CD43118AAF13A040A783032D7B23A2FED
:100B3000A8BFA218401E01F80129F5D5286B00288E
:100B400040F1A780591E2963A3E001996A4A47F240
:100B50009750414391FBF2F2019229F00046D2F105
:100B6000070204DD40463146FFF7ABFE0AE0524281
:100B700000206249FFF7A5FE02460B46404631467B
:100B800000F06CFF8046662C286B06BF019F0A3779
:100B900006273F18142FC8BF142730208DF80800EF
:100BA00089460DF1090000E03046002F34DD06468D
:100BB0004046494601F076F801460A4606F1080328
:100BC00004200A26B2FBF6F606EB860EA2EB4E02D6
:100BD000303203F8012C0A22B6FBF2F202EB820E4D
:100BE000A6EB4E063036401E03F8026DE9D1083FF1
:100BF000002F03F10806D7DD084601F067F802462A
:100C00000B464046494600F0B7FE00223C4B00F040
:100C1000ABFC80468946CBE70DF10901401A0DF186
:100C2000090604E00199491E401E0191761C3178A5
:100C30003029F7D0662C02D10199491C03E0652CBC
:100C40000CBF012100212B6BCB189842B8BF431E6B
:100C5000002B1ED4834204DAF05C3528A8BF39206B
:100C600000DA30201946721E02EB010800E05B1E1C
:100C700018F80199491E8145F9D0392802D1705CD4
:100C8000401C7054002904D50198401C16465B1C7A
:100C90000190019800B200901BB23246514628469E
:100CA00000F034F82EE0C61D002F3FF7CFAE3046DF
:100CB0000DF10901401A03465845C8BF5B46002B99
:100CC0000DF109063FF53AAF8342BFF60FAF0DF1C4
:100CD0000900C15C07297FF709AF0F2007E7000073
:100CE000CBCCCC0C0000244002FCFFFFFFFF0F80A8
:100CF0000000E03F0000F07FA08601000000F03F10
:100D000084D797410FB0BDE8F08F00002DE9F84778
:100D100083B006468A461746984600F00AFAB8F1AC
:100D2000000F406A356B90F8009002DC4FF001082C
:100D3000BFA74AF02000BDF93040662808BF641CF8
:100D400015D0672840F0848014F1040FC0F286802B
:100D5000AC4280F2838096F83800641C010702D40C
:100D6000A845B8BF454620B22D1A48BF00250FFA46
:100D700084FAF068B169BAF1000F25DC4A1C30230F
:100D80004354002D03DC96F83800010703D5F068C2
:100D900000F80290521C15EB0A0FB8BF6C4220B24B
:100DA000441941424445B8BFA046B26171620FFA8E
:100DB00088F5F561F068B3692A463946184400F0B1
:100DC00067FA641BB462C4E022B29045084417DAA3
:100DD0004246394600F05CFAB0694044B061AAEB83
:100DE0000801002D716203DC96F838100A0705D55A
:100DF000F16801F80090F069401CF061B562A8E06C
:100E0000394600F045FAB069002D5044A8EB0408BB
:100E100003DC96F838100A0703D5F16801F8009052
:100E2000401CB0610FFA88F08542F368B069B8BF22
:100E3000A8460FFA88F207EB0A01184400F028FAD6
:100E4000B1690FFA88F00144B161281A706280E03C
:100E5000BAF1610F14D14FF0700A16E0A84504DA18
:100E600096F838100A0758BF45466D1E48BF002542
:100E7000BAF1670F14BF4FF0450A4FF0650A04E05E
:100E8000BAF1410F08BF4FF0500AB169F368481C2E
:100E9000B061002D17F8012B5A5403DC96F8381076
:100EA0000A071BD5F168431CB36101F80090002DBF
:100EB00014DDA8F101080FFA88F039468542F76879
:100EC000B8BFA8460FFA88F2F81800F0E1F9B06947
:100ED0000FFA88F108446D1AB0617562F068B16963
:100EE0000844002C80F800A003D42B224270811CFF
:100EF00003E02D2141706442811C00206A460AE013
:100F000023460A2493FBF4F404EB8405A3EB450386
:100F100002F8013B401C24B2002CF1DC012806DC65
:100F20004AF02002652A04BF302201F8012B48B99B
:100F3000302001F8010B07E0401E1DF8003030336F
:100F400001F8013B0028F7DCF268B0691044091A87
:100F5000F16196F8380000F0140010280DD1726984
:100F6000B169706A8A18F1698218B06A8A188218A1
:100F7000706B8242BCBF821A326204B0BDE8F08757
:100F8000F8B505460E4617461C46002074B117F802
:100F9000011BB068A847B06030B1F06A401CF06235
:100FA0000020641EF3D1F2BD4FF0FF30F2BD00000F
:100FB0007072696E74665F733A20256E206469737F
:100FC000616C6C6F776564007072696E74663A204C
:100FD00062616420256E20617267756D656E7400B4
:100FE0007072696E74665F733A2062616420257363
:100FF00020617267756D656E740000007072696EB5
:1010000074665F733A2062616420256C732061729C
:1010100067756D656E740000000000000000000040
:101020006E616E004E414E00696E6600494E46008C
:101030003000F0B40246106895681318506803EB4E
:101040005004C0071DD54D441BE013F8017B05F883
:10105000017B491EF9D1A0B1B60813F8011B06F0B7
:101060000306032E08BF13F8016B01EB062149426A
:10107000801C294405D011F8016B05F8016B401E56
:10108000F9D1A3420ED013F8016B16F0030104BF8F
:1010900013F8011BC91C30090F28DAD113F8010B12
:1010A0000F30D6E7F0BC02F10C007047613800E069
:1010B00041381A288041C00F7047A0F161011A29F8
:1010C00038BF203870471C48704770B45368D41834
:1010D000042B09DA41B1057804F8015B10F8016BC3
:1010E00016B15B1C491EF3E7536070BC704738B5FE
:1010F00014461D4661B1FFF7E8FF61686A6B204640
:1011000090476FF00102811A02D0491E01D001E020
:1011100003E005E00021616032BD6FF0010032BDE7
:101120004FF0FF3032BDDA6B1047034BDFE7024B65
:10113000F9E7024870470000500100201801002024
:10114000C9B202788A421AB11CBF10F8012FF9E720
:1011500018BF0020704730B4002513E050F8042B6E
:10116000D30744BFA9F101039A18091F042942F8C3
:10117000045BFAD213468C0744BF15809B1CC90739
:1011800048BF1D7050F8041B0029E7D130BC7047E0
:1011900080B500B906A005490B681BB122220021C9
:1011A000984701E000F09FFD222002BDD8080020F2
:1011B000636F6E73747261696E742068616E646CC3
:1011C00065723A20626164206D65737361676500C2
:1011D00000F10103810704D010F8011B820781B1DF
:1011E000FAD10268A2F10131914311F0803104BFBC
:1011F00050F8042FF6E709BAB1FA81F100EBD100FB
:10120000401CC01A7047B1F5807F02D34FF0FF3009
:1012100070470170012070470078401E8041C04334
:10122000C00F7047C9B2830706D0521E22D310F8F0
:10123000013B9942F7D11FE0083A13D302F10402AF
:1012400041EA012141EA014150F8043B121F21BF4C
:101250004B40A3F1013C2CEA030C1CF0803FF3D07F
:10126000C9B2001F083210F8013B521E28BF91EA94
:10127000030FF8D818BF0120401E704780B5FFF754
:1012800022FF006C02BD0268531C0360117070479E
:1012900062B38B0708D0521E11F8013B00F8013BE6
:1012A00000F024808B07F6D1830740F0208000BF38
:1012B000103A07D330B4B1E83810103AA0E838102B
:1012C000F9D230BC530724BFB1E80810A0E80810D9
:1012D00044BF51F8043B40F8043BD20724BF31F827
:1012E000022B20F8022B44BF0B7803707047121FAB
:1012F00017D35B0009D151F8043B20F8023B1B0CCB
:10130000121F20F8023BF6D20BE051F8043B00F824
:10131000013B1B0A20F8023B1B0C121F00F8013B8B
:10132000F3D238BF121D521E24BF11F8013B00F842
:10133000013BF8D870470102BBBBE1B1B2F5803F79
:1013400080F07E80022A1ED98C46B1FBF2F102FBAE
:1013500011C31B0443EA1043B3FBF2FC02FB1C3332
:1013600080B240EA0343B3FBF2F002FB103240EAE2
:101370000C4000237047022A05D98446B0FBF2F0E6
:1013800002FB10C270474AB105D100F001024908C2
:101390005FEA3000704700220023704700F0A6BCCF
:1013A0000B000200002100207047904271EB030CFB
:1013B000F6D3B3F5803F2FD2F0B5B3FA83F7B1FA85
:1013C00081F4A7F10F0E3D1B5340CEF1200602FA27
:1013D0000EF2F3415340B5F10F0746D80F3C2C44B1
:1013E0004140C4F12006A040F1414140B1FBF3F679
:1013F00003FB1611A2FB0645001BA94102D2761E73
:101400008018594180EA010221FA0EF362FA0EF2C5
:1014100000215A403046F0BD30B4B1FBF3FC03FB71
:101420001C11A2FB0C45001BA94103D2ACF1010C1D
:101430008018594130BC02460B4660460021704777
:10144000B2F1807F65D3F0B5B2FA82F7B1FA81F4D8
:10145000C7F10F063D1B22FA06F307F1110EF24108
:1014600020355A40B5F10F07B8D94140C4F12006E4
:10147000A040F1414140B1FBF3FC03FB1C11A2FB76
:101480000C45001BA94103D2BCF1010C8018594145
:101490000F2F12D30F3FC90341EA5041B1FBF3F6BE
:1014A00003FB1611A2FB0645D4EBC030A94102D2C2
:1014B000761E8018594146EACC3C07B34140C7F13B
:1014C0002006B840F1414140B1FBF3F603FB161191
:1014D000A2FB0645001BA94102D2761E8018594185
:1014E00080EA010221FA0EF3C7F1200462FA0EF23B
:1014F0000CFA07F05A402CFA04F13043F0BD80EAB0
:10150000010221FA0EF3002162FA0EF260465A40FF
:10151000F0BD8C46B1FBF2F102FB11C31B0243EAA2
:101520001063B3FBF2FC02FB1C331B024CEA0020ED
:1015300043EA1063B3FBF2FC02FB1C331B024CEAD0
:10154000002043EA1063B3FBF2FC02FB1C331B02D6
:101550004CEA002043EA1063B3FBF2FC02FB1C32AE
:101560004CEA002000237047B0B581EA030C0CF070
:10157000004C40F2FF7515EA11541DBF15EA1357D0
:10158000AC42AF4239E0E41923EA455343F48013F7
:10159000C90241F0004141EA505EC7021100A7FBB9
:1015A000020200284FF00000EEFB01204FF0000186
:1015B000E3FB072118BF42F0010240180021494116
:1015C000E3FB0E01A4F580640F0302D252004041F8
:1015D000494154F101046CDD470872F1004250F1B9
:1015E000000051EB0451A1F580115CBF41EA0C01F0
:1015F000B0BD4CEA05510020B0BD05EA1357AC421E
:1016000014BFAF4241E050EA410E1CBF52EA430E04
:1016100002E061460020B0BD24423C441BD15FEA99
:10162000070EF6D0090302BF01460020AEF1140EEA
:10163000B1FA81F7AEEB070401FA07FE0C37C7F1E8
:10164000200100FA07F7C8404EEA000E23EA45538E
:1016500043F48013A2E733F00043B3FA83F704BFE7
:10166000B2FA82FE77440B3FE41BB7F1200E2FBF86
:1016700002FA0EF3BB40C7F1200E22FA0EFE38BF6D
:1016800043EA0E03BA40641C82E750EA410E14BFDD
:1016900052EA430E6FF000014FF4001717EB430FAF
:1016A0008ABF194617EB410FB5E74CEA05510020F8
:1016B000B0BDD4F10104B4F120070FDAC4F1200762
:1016C000520828BF42F0010210FA07F501FA07F7A5
:1016D000E1BF2A43E0403843E1400FE0352C98DC7D
:1016E000C7F1200452EA400220FA07F218BF42F084
:1016F000010231FA07F0A1400A43002172F10042D1
:1017000050F1000051EB0C01B0BD010210B51446C0
:1017100000F002F8226010BDC1F30A5343B14A0041
:1017200012F5001F28D2A3F2FE32A1EB025170473E
:1017300050EA410C20D001F0004C31EA0C01B1FA22
:1017400081F204BFB0FA80F3D2180B3AB2F1200351
:101750002CBF00FA03F1914041EA0C013EBFC2F1F7
:10176000200C20FA0CF319439040524240F2FD3312
:10177000D21A01EB03517047002270474FF4001C4E
:101780001CEB410F94BF1CEB430F09E041EA030C33
:1017900050EA4C0C52EA0C0C03D2994208BF90421A
:1017A000704714BF8B428242704700004FF4001C08
:1017B0001CEB410F94BF1CEB430F09E041EA030C03
:1017C00050EA4C0C52EA0C0C03D28B4208BF824206
:1017D000704714BF9942904270470000124254D49F
:1017E00040F2FF7C1CEA11530FD0634531D09B18A7
:1017F00063453CBF01EB0251704701F0004141EAF3
:101800000C510020AFF30080704750EA410320D014
:1018100001F0004C91EA0C011CD0B1FA81F30B3BB2
:101820009A420DD9D21A994051EA0C01C3F1200C09
:1018300020FA0CFC61449840531C40F2FF7CD7E72F
:10184000914041EA0C01C2F1200C20FA0CF319433B
:1018500090407047B0FA80F31533202BE0D3202A54
:10186000EED3203A203B9A4209D9D21A00FA03F16A
:1018700041EA0C010020531C40F2FF7CB8E700FA5B
:1018800002F141EA0C0100207047524240F2FF7C15
:101890001CEA11530DD06345DBD0B2EB030C3CBF07
:1018A000A1EB025170470CF1010221EA035141F40E
:1018B000801150EA410CCCD001F0004C352A27DCD5
:1018C00030B481EA0C01B2F1200309DAC2F120033D
:1018D000044601FA03F5D0402843D1409C400CE077
:1018E000C3F12002450020FA03F418BF44F00104BC
:1018F00021FA03F091400C43002174F1004550F1AE
:10190000000051EB0C01244230BC7FF47BAF7047E8
:101910006146002076E70000C1F30A5340F2FE3230
:101920009B1A14DDD3F120034FEAE17208DDC902EE
:1019300041EA505141F00040D84080185040704773
:1019400003F2E13010B1D24382F000407047002032
:1019500070470000C11768B14840401AB0FA80F2E1
:101960009040D21CC907C2F5846241EA025202EBE0
:10197000D02140057047000070B44FF0004591EA57
:10198000030F40F1BD816B40841A71EB030603D253
:10199000001BB141121973414FF4001C1CEB410FA5
:1019A00034BF7CEB430442E00C0DA4EB1356352E00
:1019B0004FDC45EAC323DB0A45EAC121C912B6F16F
:1019C00020050DDD63FA05F6EB4086EA03051242B9
:1019D00018BF45F00105C01851F100010CD213E009
:1019E00062FA06F5F2405540F3415A40B340F340E5
:1019F0005A408018594107D349085FEA30005FEA2E
:101A0000350528BF45F0010501F58011420875F143
:101A1000004250F1000041EB04514E0016F5001F4A
:101A200070BC38BF70470020090D090570471CEBDA
:101A3000410F10D252EA43060BD0BCEB410F05D840
:101A40000C0DAB43661E342EB6DD02E0AB438018AE
:101A5000594170BC704770BC70470000F0B540F24F
:101A6000FF7581EA030C0CF0004C15EA11541DBF00
:101A700015EA1357AC42AF42E5E0BC41C1F3130194
:101A8000C3F31303801A994143F4801304D2641EF4
:101A90004000494180185941C90241EA5051B1FB07
:101AA000F3F603FB1611A2FB0675D7EBC020A94184
:101AB00002D2761E80185941C90241EA5051B1FB49
:101AC000F3FE03FB1E11A2FB0E75D7EBC020A9414C
:101AD00003D2AEF1010E80185941890241EA9051BA
:101AE000760546EA8E2EB1FBF3F603FB1611A2FB38
:101AF0000675D7EB8020A94102D2761E8018594185
:101B0000C90241EA50514EEA060EB1FBF3F603FB5F
:101B10001611A2FB0675D7EBC020A94102D2761E92
:101B200080185941C90241EA5051B1FBF3F703FB58
:101B30001711A2FB0735D3EBC020A94167F10007BD
:101B40000CBF004247F0010766F3D5274FEA1E316C
:101B5000B80814F5806412DDBD0775F1004250EB42
:101B60000E5051EB045111F5801F5CBF41EA0C018E
:101B7000F0BD4CF07F6141F0E0410020F0BDBD07B9
:101B80006D0840EA0E5041F48011D4F10104B4F123
:101B900020060ADAC4F120060200E04001FA06F34A
:101BA000E1401843B24015430EE0342C13DCC6F17B
:101BB000200445EA40056D0820FA06F2154321FA93
:101BC00006F0A1400D43002175F1004250F10000E4
:101BD00051EB0C01F0BD00205FEA0C01F0BDCFB964
:101BE00092185B41B3FA83F704BFB2FA82F6BF19C9
:101BF0000B3FB7F120062FBF02FA06F3BB40C7F137
:101C0000200622FA06F638BF3343BA401CB1E41965
:101C1000641E33E77F4231F00041B1FA81F404BF22
:101C2000B0FA80F6A4190B3CB4F120062FBF00FADD
:101C300006F1A140C4F1200620FA06F638BF314370
:101C4000A0403C1B1AE7AC421ABF05EA1357AF424B
:101C500012E050EA41061CBF52EA4306BFE750EAD1
:101C60004107304661461CBF41EA0551F0BD52EACA
:101C7000430C08BFC143F0BD00204FF4001616EB23
:101C8000410F98BF16EB430F08BF16EB410F24BF5F
:101C9000C14305E016EB430F0CBF61464CEA05510A
:101CA000F0BD0000400D491840EA81200CD2490DDA
:101CB000A1F58061491C40F0004005DBD1F11F0116
:101CC00054BFC840C017704700207047014648B154
:101CD000B0FA80F18840C91CC1F58461090501EBA7
:101CE000D02140057047012000F0C0B870470000C7
:101CF00070B44FF0004591EA030F7FF545AE6B409D
:101D0000841A71EB030604D26E40001BB141121914
:101D100073414FF4001C1CEB410F34BF7CEB4306B6
:101D200083E00C0DA4EB1356362E00F37C80012EBD
:101D300045EAC32341DC43EA525312BFD202920266
:101D40005B08240545EAC12141EA5051D2EBC0208D
:101D5000994125D407D1B0FA80F610FA06F162D085
:101D60000020203608E0B1FA81F6B140C6F1200229
:101D700020FA02F21143B0404FEAF474B4EB465437
:101D800034F001064FEA74040AD8D6F50016760D31
:101D900004F00044F04061FA06F25040F14048403F
:101DA000C00A40EA415021F0004128BF5FEA5005D7
:101DB00050F1000044EBD12135E0DB0A45EAC121B6
:101DC000C90AB6F120050EDD42EA0242120CC5F145
:101DD000200603FA06F6EB4042EA06056D429841FA
:101DE00061F100010DE062FA06F5F240554063FA38
:101DF00006FC82EA0C02F3405A406D42904161EBCE
:101E0000030111F4801F05D1641E620502D06D002C
:101E10004041494121F48011430875F1004350F1DC
:101E2000000041EB045170BC70471CEB410F15D210
:101E300023F0004352EA43060BD04FEA4C0CBCEBB4
:101E4000410F04D80C0D661E342EB7DDEBE7801A67
:101E5000994150EA410608BF0021E4E708BF1CEBA6
:101E6000430F28BF6FF00001DDE7000080B5AFF33E
:101E70000080024A11001820ABBEFBE726000200DA
:101E800070B5040000250026002C01D10120B5E02A
:101E900094F83D00002805D1002084F83C00200083
:101EA00000F08BFE242084F83D0020680068400884
:101EB00040002168086001F088F90100DFF8400166
:101EC0006268824208D2DFF83C21914201D20122AD
:101ED00000E00022D2B207E0DFF82C21914201D2CB
:101EE000012200E00022D2B2012A01D1012085E0C6
:101EF000DFF81821B1FBF2F223685A60636883426D
:101F000001D2531C08E04FF4967303FB02F34FF425
:101F10007A75B3FBF5F35B1C25682B62636883421B
:101F200014D2481E63685B00B0FBF3F0401C000550
:101F3000000D042801D204203EE0481E63685B00C7
:101F4000B0FBF3F0401C0005000D35E0A068002850
:101F500009D14B1E656803204543B3FBF5F0401CD7
:101F60000005000D0AE04B1E656819204543B3FBD0
:101F7000F5F0401C0005000D50F48040000501D133
:101F8000012019E0A068002809D14B1E65680320D4
:101F90004543B3FBF5F0401C0005000D0AE04B1E65
:101FA000656819204543B3FBF5F0401C0005000DA2
:101FB00050F4804050F400402368D861E369206AFF
:101FC0000343206803602369E0680343206883605B
:101FD0006369A06903432068C3602068006850F00B
:101FE00001002368186000202064202084F83D0050
:101FF00000202063002084F83E00002070BD000017
:10200000A186010080841E0000093D0040420F00AF
:102010002DE9FE4F05000E0017009846DDF83090C0
:102020000D9CDDF838A00020009001F019F98346DE
:1020300095F83D00202840F0AE80CDF800B019237F
:102040000122DFF85C16280000F068FC002801D0AF
:102050000220A1E095F83C00012801D102209BE07C
:10206000012085F83C0028680068C00705D428686E
:10207000006850F00100296808602868006830F4A2
:10208000006029680860212085F83D00402085F81F
:102090003E0000202864C5F824906C85DFF83804E1
:1020A000E862688D2885CDF804B0CDF800A04346DD
:1020B0009BB23A0092B2310089B2280000F0FAFADD
:1020C00000280CD0286C042804D1002085F83C009E
:1020D000012061E0002085F83C0003205CE0288DB1
:1020E000002833D05A465146280000F0AEFC0028A4
:1020F0000CD0286C042807D12868006850F40070C0
:1021000029680860012047E0032045E0686A411C17
:102110006962007829680861288D401E2885688DCD
:10212000401E6885286840694007D8D5288D00285A
:10213000D5D0686A411C6962007829680861288DD9
:10214000401E2885688D401E6885C8E75A4651465E
:10215000280000F0A3FC00280CD0286C042807D12C
:102160002868006850F4007029680860012013E0B6
:10217000032011E02868006850F4007029680860A6
:10218000202085F83D00002085F83E00002085F8DD
:102190003C00002000E00220BDE8FE8F2DE9F24F58
:1021A00082B0050016001F00DDF830800D9CDDF8C0
:1021B00038905FF0000B01F053F8824695F83D002F
:1021C000202840F08581CDF800A019230122DFF8F6
:1021D000D014280000F0A2FB002801D0022078E1F2
:1021E00095F83C00012801D1022072E1012085F818
:1021F0003C0028680068C00705D42868006850F0D3
:102200000100296808602868006830F400602968C7
:102210000860222085F83D00402085F83E0000201F
:102220002864C5F824806C85DFF8AC02E862688D0C
:102230002885CDF804A0CDF800903B009BB2320079
:1022400092B2BDF80810280000F0ABFA00280CD0BC
:10225000286C042804D1002085F83C00012038E1D6
:10226000002085F83C00032033E1288D00280FD1A1
:1022700000200090286840690090286880690090DC
:1022800000982868006850F400702968086044E0ED
:10229000288D012817D12868006830F480602968EB
:1022A000086072B600200090286840690090286895
:1022B0008069009000982868006850F400702968D0
:1022C000086062B629E0288D022817D128680068C6
:1022D00050F400602968086072B6002000902868F9
:1022E000406900902868806900900098286800681C
:1022F00030F480602968086062B60EE028680068E3
:1023000050F48060296808600020009028684069C7
:1023100000902868806900900098288D002800F0BF
:10232000CC80288D042880F09C80288D01281AD12B
:1023300052464946280000F0DAFB002806D0286CF7
:10234000202801D10320C4E00120C2E0686A411CBA
:102350006962296809690170288D401E2885688D89
:10236000401E6885D9E7288D02282DD1CDF800A020
:102370004B460022DFF83413280000F0CFFA002883
:1023800001D00320A5E072B62868006850F4007000
:1023900029680860686A411C6962296809690170D6
:1023A000288D401E2885688D401E688562B6686A43
:1023B000411C6962296809690170288D401E2885C1
:1023C000688D401E6885A8E7DFF8E0B2CDF800A070
:1023D0004B4600225946280000F0A0FA002801D000
:1023E000032076E02868006830F48060296808607F
:1023F00072B6686A411C6962296809690170288D92
:10240000401E2885688D401E6885CDF800A04B468B
:1024100000225946280000F081FA002801D003204C
:1024200057E02868006850F4007029680860686AFE
:10243000411C6962296809690170288D401E288540
:10244000688D401E688562B6686A411C69622968A9
:1024500009690170288D401E2885688D401E688599
:102460005BE752464946280000F041FB002806D0B1
:10247000286C202801D103202BE0012029E0686A84
:10248000411C6962296809690170288D401E2885F0
:10249000688D401E68852868406940077FF53DAF1C
:1024A000686A411C6962296809690170288D401EAB
:1024B0002885688D401E68852FE7202085F83D001F
:1024C000002085F83E00002085F83C00002000E058
:1024D0000220BDE8FE8F00000000FFFF2DE9F74F4E
:1024E00005001C005FF0000B002600275FF00008CD
:1024F0005FF0010900F0B4FE824695F83D00202807
:1025000040F0CB80DFF898B1CDF800A0192301226C
:102510005946280000F002FA002801D00220BDE050
:1025200095F83C00012801D10220B7E0012085F890
:102530003C0028680068C00705D42868006850F08F
:102540000100296808602868006830F40060296884
:102550000860242085F83D0000202864DFF8500141
:10256000E8622868006850F4807029680860CDF837
:1025700000A0230000225FF00111280000F0CEF936
:10258000002801D0032089E0BDF8040010F0FE000F
:102590002968086100F064FE8246286840694008A6
:1025A00010F00100060028684069800A10F0010060
:1025B000070095F83D00804657EA060000281DD127
:1025C000B8F1A00F1AD0002C05D000F049FEB0EBF6
:1025D0000A00844202D2A02085F83D0028684069A4
:1025E000400810F00100060028684069800A10F0D9
:1025F0000100070095F83D008046DDE7202085F8C2
:102600003D0028684069800722D52868006850F49A
:1026100000702968086000200090286840690090D8
:102620002868806900900098CDF800A01923012245
:102630005946280000F072F9002801D003202DE04F
:10264000202085F83D00002085F83C00002025E092
:102650002868006850F40070296808607FF4806082
:1026600029684861CDF800A01923012259462800A5
:1026700000F054F9002801D003200FE0484610F183
:10268000010902998842FFF46CAF202085F83D00D3
:10269000002085F83C00012000E00220BDE8FE8F0C
:1026A0000200100090F83D00704700000400010097
:1026B0000000FFFF2DE9F84304000D0016001F0085
:1026C000DDF82080DDF824902068006850F48070E8
:1026D00021680860CDF80090434600225FF00111A8
:1026E000200000F01BF9002801D0032057E015F06E
:1026F000FE00216808614B4642468749200000F0F1
:1027000053F9002806D0206C042801D1012046E0AE
:10271000032044E000200090206840690090206879
:102720008069009000984A464146200000F08DF9EB
:1027300000280CD0206C042807D12068006850F4D1
:10274000007021680860012029E0032027E038009C
:1027500080B2012804D13000C0B2216808611DE0B8
:10276000300080B2000AC0B2216808614A46414682
:10277000200000F06AF900280CD0206C042807D152
:102780002068006850F4007021680860012006E0AD
:10279000032004E03000C0B2216808610020BDE8D9
:1027A000F2832DE9FC4704000D0016001F00DDF840
:1027B0002880DDF82C902068006850F48060216843
:1027C00008602068006850F4807021680860CDF8C7
:1027D0000090434600225FF00111200000F09EF8B7
:1027E000002801D0032094E015F0FE002168086164
:1027F000DFF824A14B4642465146200000F0D4F8B1
:10280000002806D0206C042801D1012081E003209B
:102810007FE0002000902068406900902068806977
:10282000009000984A464146200000F00EF900282A
:102830000CD0206C042807D12068006850F4007088
:1028400021680860012064E0032062E0380080B263
:10285000012804D13000C0B2216808611DE03000B9
:1028600080B2000AC0B2216808614A464146200091
:1028700000F0EBF800280CD0206C042807D1206869
:10288000006850F4007021680860012041E00320D6
:102890003FE03000C0B2216808614A46414620004E
:1028A00000F0D3F800280CD0206C042807D1206851
:1028B000006850F4007021680860012029E00320BE
:1028C00027E02068006850F4807021680860CDF827
:1028D0000090434600225FF00111200000F01EF836
:1028E000002801D0032014E055F00100C0B2216897
:1028F00008614B4642465146200000F055F800283A
:1029000006D0206C042801D1012002E0032000E061
:102910000020BDE8F6870000020001002DE9F0412B
:1029200005000E0017001C00DDF818803000000CB8
:10293000C0B201280AD128684069304080B2B1B2E3
:10294000884201D101200BE0002009E0286880695D
:10295000304080B2B1B2884201D1012000E00020B5
:10296000002801D0012000E000203900C9B28842CF
:1029700017D114F1010FD9D0002C05D000F070FC54
:10298000B0EB08008442D1D200202863202085F8D3
:102990003D00002085F83E00002085F83C00032023
:1029A00000E00020BDE8F081F8B505000E0014003D
:1029B0001F003000000CC0B201280AD1286840690D
:1029C000304080B2B1B2884201D101200BE000203A
:1029D00009E028688069304080B2B1B2884201D1F4
:1029E000012000E0002000282DD128684069400522
:1029F00015D52868006850F40070296808607FF4D5
:102A00008060296848610420286400202863202011
:102A100085F83D00002085F83C00012014E014F109
:102A2000010FC6D0002C04D000F01AFCC01B844259
:102A3000BFD200202863202085F83D00002085F8C3
:102A40003C00032000E00020F2BD70B505000C0042
:102A500016002868406900061ED4280000F078F8A7
:102A6000002801D0012018E014F1010FF1D0002C52
:102A700004D000F0F5FB801B8442EAD2286C50F0B1
:102A80002000286400202863202085F83D000020D5
:102A900085F83C00032000E0002070BD70B5050003
:102AA0000C0016002868406940071ED4280000F07A
:102AB0004FF8002801D0012018E014F1010FF1D0E7
:102AC000002C04D000F0CCFB801B8442EAD2286C9E
:102AD00050F02000286400202863202085F83D0065
:102AE000002085F83C00032000E0002070BD70B598
:102AF00005000C00160028684069400626D42868A6
:102B00004069C0060FD57FF0100029684861002099
:102B1000286400202863202085F83D00002085F8E7
:102B20003C00012013E0002C04D000F099FB801B36
:102B30008442E0D2286C50F020002864202085F8E0
:102B40003D00002085F83C00032000E0002070BD1F
:102B500001000868406940050FD57FF480600A686D
:102B600050610420086400200863202081F83D00A3
:102B7000002081F83C00012000E0002070470000A8
:102B800080B524482449016042F21071416000215F
:102B900081600021C1604FF48041016100214161E9
:102BA000002181610021C16100210162FFF768F904
:102BB000002801D000F00FFC01BD18B585B004005D
:102BC00001A8102100F008FC2068134988421ED19A
:102BD0001248016851F008010160006810F0080017
:102BE000009000984FF44060019012200290012064
:102BF000049001A90A4800F0F3FB0A48016851F467
:102C000080010160006810F480000090009806B018
:102C100010BD0000A8040020005800401810024019
:102C2000000C01401C1002402DE9F843040000256F
:102C30002078C0076BD5DFF8E805016811F00C01BA
:102C4000042907D0016811F00C0108290CD1006893
:102C5000C00309D5DFF8C4050068800357D5606854
:102C6000002854D10120BDE16068B0F5803F06D155
:102C7000DFF8A805016851F48031016026E0606842
:102C800000280AD1DFF89405016831F48031016031
:102C9000016831F48021016018E06068B0F5A02F70
:102CA0000AD1DFF87805016851F4802101600168DC
:102CB00051F48031016009E0DFF86005016831F40A
:102CC00080310160016831F4802101606068002872
:102CD0000ED000F0C5FA0500DFF84005006880035B
:102CE00015D400F0BDFA401B6528F5D3032079E127
:102CF00000F0B6FA0500DFF824050068800306D569
:102D000000F0AEFA401B6528F5D303206AE1207875
:102D1000800750D5DFF80805016811F00C0F07D0C7
:102D2000016811F00C01082914D10068C00311D406
:102D3000DFF8E8040168890704D52169012901D079
:102D400001204FE1016831F0F801626951EAC201E6
:102D5000016030E0206900281AD00120DFF8D0148B
:102D6000086000F07DFA0500DFF8B004016889070B
:102D700006D400F075FA401B0328F5D3032031E197
:102D8000016831F0F801626951EAC201016012E0A4
:102D90000020DFF89C14086000F062FA0500DFF8FC
:102DA0007C040068800706D500F05AFA401B03280F
:102DB000F5D3032016E1207800072CD5A069002860
:102DC00016D00120DFF86C14086000F049FA050005
:102DD000DFF858040068800706D400F041FA401B71
:102DE0000328F5D30320FDE0012000F004FA12E0EF
:102DF0000020DFF84014086000F032FA0500DFF828
:102E00002C040068800706D500F02AFA401B03282E
:102E1000F5D30320E6E02078400740F188800026C3
:102E2000DFF814743868C0000AD4386850F0805055
:102E30003860386810F0805000900098012006003B
:102E4000DFF8F883D8F80000C00513D4D8F80000E4
:102E500050F48070C8F8000000F002FA0500D8F8BD
:102E60000000C00506D400F0FBF9401B6528F6D32E
:102E70000320B7E0E068012806D1DFF8C403016849
:102E800051F00101016025E0E06800280AD1DFF877
:102E9000B0030168490849000160016831F004018C
:102EA000016017E0E06805280AD1DFF894030168A3
:102EB00051F004010160016851F00101016009E075
:102EC000DFF87C030168490849000160016831F0BE
:102ED00004010160E068002810D000F0C1F905008D
:102EE000DFF85C030068800719D400F0B9F9401BD3
:102EF00041F289318842F3D3032073E000F0B0F946
:102F00000500DFF83C030068800708D500F0A8F949
:102F1000401B41F289318842F3D3032062E0300044
:102F2000C0B2012803D1386830F080503860E069C1
:102F3000002856D0DFF8E872386810F00C00082836
:102F40004DD0E069022837D1DFF8F8920020C9F8A7
:102F5000000000F085F90600DFF8C082D8F8000014
:102F6000800106D500F07CF9801B0328F4D30320F0
:102F700038E0206AB0F5803F05D1396831F400317E
:102F8000A06801433960396831F47411206A014343
:102F9000606A014339600120C9F8000000F060F95F
:102FA0000500D8F8000080011BD400F059F9401B3F
:102FB0000328F6D3032015E00020DFF8881208600C
:102FC00000F04EF90500DFF854020068800108D5D2
:102FD00000F046F9401B0328F5D3032002E001204E
:102FE00000E00020BDE8F2832DE9F04104000D006F
:102FF0000026DFF85472386810F00700A8420BD2A0
:103000003868C008C00028433860386810F00700EE
:10301000A84201D001209BE02078800707D5DFF887
:1030200000120A6832F0F002A06802430A602078B9
:10303000C00758D56068012806D1DFF8E0010068B4
:10304000800311D4012083E06068022806D1DFF8F4
:10305000CC010068800107D4012079E06F48006846
:10306000800701D4012073E0DFF8B481D8F80010A4
:103070008908890060680143C8F8001000F0F0F882
:103080000600606801280ED1D8F8000010F00C008E
:10309000042828D000F0E4F8801B41F289318842EE
:1030A000F2D3032054E0606802280ED1D8F8000063
:1030B00010F00C00082816D000F0D2F8801B41F266
:1030C00089318842F2D3032042E0D8F8000010F0A2
:1030D0000C0F08D000F0C4F8801B41F289318842FF
:1030E000F3D3032034E0386810F0070085420BD298
:1030F0003868C008C00028433860386810F00700FE
:10310000A84201D0012023E02078400706D5444999
:103110000A6832F4E062E06802430A60207800073F
:1031200007D53F48016831F46051226951EAC20174
:10313000016000F00FF84549394A1268C2F30312E2
:10314000895CC84038490860002000F0ADFA0020D2
:10315000BDE8F081F0B585B001A83D491022FEF729
:10316000A7F83C480088ADF80000002000210022AC
:10317000002300252A4E346814F00C07042F02D0D7
:10318000082F02D01BE027481AE001A8C4F38347A8
:10319000C05D0300E0030CD568463668C6F34046C0
:1031A000805D01001F4800FB03F0B0FBF1F002005E
:1031B00003E0294800FB03F00200100000E019487A
:1031C00005B0F0BD18480068704780B5FFF7FAFFFA
:1031D0002249134A1268C2F30222895CC84002BD28
:1031E00080B5FFF7EFFF1D490D4A1268C2F3C222F6
:1031F000895CC84002BD81B00B490968C9084FF419
:103200007A72B1FBF2F101FB00F1009100BF00996D
:103210004A1E00920029F9D101B070470010024007
:103220000410024000127A00140100202410024011
:1032300000004242800442421C10024000700040E4
:10324000201002406000424200200240AC9400087E
:103250008C9400083613000800093D00D89400083B
:1032600001480068704700BFC008002080B500F02A
:1032700041FA00F01FF800F04FFA00F0DFFA00F01A
:103280002BFB00F095FC00F081FB00F025FD00F029
:103290009BFDFFF775FC00F085FE00F0FBFD00F0E4
:1032A000DDFA00F0B4FB00F0B1FE00F04AF800F0E7
:1032B000C1FEFCE700B593B009A8282100F08CF806
:1032C0006846142100F088F805A8102100F084F861
:1032D000092009905FF480300A9000210B910121B0
:1032E0000D9101210F910221109111905FF4E010D6
:1032F000129009A8FFF798FC002801D000F06BF8A5
:103300000F20009002200190002002904FF4806076
:1033100003900020049002216846FFF765FE002814
:1033200001D000F058F8022005904FF400400790BB
:1033300005A800F003FF002801D000F04CF813B0FE
:1033400000BD80B500220321252001F090F8252042
:1033500001F0A2F800220121172001F088F81720BF
:1033600001F09AF8002200211C2001F080F81C20B6
:1033700001F092F8002205211D2001F078F81D20AF
:1033800001F08AF8002202211E2001F070F81E20B0
:1033900001F082F8002205210E2001F068F80E20CD
:1033A00001F07AF800220421192001F060F81920B8
:1033B00001F072F800220721142001F058F81420BF
:1033C00001F06AF8002206210B2001F050F80B20D2
:1033D00001F062F801BDFEE7002201F07BB80000B9
:1033E0002DE9F84702000B000025002600210027E8
:1033F0005FF000085FF0000EBEF1100F80F0018159
:10340000012010FA0EF00500186828400600AE42B0
:1034100040F0F4805868002831D0012820D00228DC
:1034200025D003283CD011281DD0122823D0DFF846
:1034300034C2604523D0DFF830C260451FD0DFF8CA
:103440002CC260451BD0DFF828C2604517D0DFF8DA
:1034500024C2604513D0DFF820C260450FD022E0BF
:10346000D86807001FE0D868001D07001BE0D86877
:103470000830070017E0D8680C30070013E09868A0
:10348000002802D10420070009E09868012803D130
:1034900008200700156102E008200700556102E0DE
:1034A00000200700FFE7B6F5807F01D2140000E09E
:1034B000141DB6F5807F02D25FEA8E0803E0BEF1EC
:1034C00008085FEA88085FF00F09D4F800C019FA0D
:1034D00008F03CEA000C17FA08F050EA0C0CC4F8AB
:1034E00000C05868C00040F189806448D0F800C02E
:1034F0005CF0010CC0F800C0006810F00100009002
:103500000098DFF87CC1704680085CF820A01EF0AF
:103510000300C0B2800019FA00F93AEA090A5948D2
:10352000824202D15FF0000913E05748824202D183
:103530005FF001090DE05548824202D15FF00209B7
:1035400007E05348824202D15FF0030901E05FF0D7
:1035500004091EF00300C0B2800019FA00F95146B8
:1035600059EA0101704680084CF820105868C003E1
:1035700007D54848D0F800C056EA0C0CC0F800C087
:1035800006E04448D0F800C03CEA060CC0F800C091
:103590005868800307D54048D0F800C056EA0C0CA4
:1035A000C0F800C006E03C48D0F800C03CEA060C79
:1035B000C0F800C05868C00207D53848D0F800C02D
:1035C00056EA0C0CC0F800C006E03448D0F800C041
:1035D0003CEA060CC0F800C05868800207D53048A5
:1035E000D0F800C056EA0C0CC0F800C006E02C4829
:1035F000D0F800C03CEA060CC0F800C01EF1010E75
:10360000FAE6BDE8F187020090680B009BB2184211
:1036100001D0012000E00020C0B270471300DBB2EF
:10362000002B03D00B009BB2036103E00B009BB2A5
:103630001B0403617047C3680A0092B25340C36021
:10364000704710B5040017480168220092B2114279
:1036500006D0210089B20160200080B201F0A6F8F6
:1036600010BD000000001110000012100000211019
:10367000000022100000311000003210181002402B
:103680000800014000080140000C0140001001400A
:1036900000140140000401400404014008040140FA
:1036A0000C0401401404014010B504004FF47A707A
:1036B0000D490978B0FBF1F00C490968B1FBF0F055
:1036C00000F0F1FE002801D001200CE0102C09D2FE
:1036D000002221005FF0FF3000F0C9FE04480460C2
:1036E000002000E0012010BDF601002014010020A0
:1036F0001001002080B50748016851F010010160F9
:10370000032000F0AEFE0020FFF7CEFF01F050F8DE
:10371000002002BD0020024030B585B0684610216F
:10372000FFF75AFE4148016851F02001016001682D
:1037300011F0200104910499016851F00401016025
:10374000016811F0040104910499016851F0080125
:103750000160006810F0080004900498344C0022C6
:1037600002212000FFF75AFF324D002241F20301EF
:103770002800FFF753FF0122E0212800FFF74EFF4A
:10378000022000900120019000200290022003906E
:1037900069462000FFF724FE0120009001200190DF
:1037A000022002900120039069462800FFF718FECE
:1037B000022000900120019002200290022003903C
:1037C00069462800FFF70CFE4FF48050009001205E
:1037D0000190002002900120039069462800FFF725
:1037E000FFFD4FF48070009013480190002002907C
:1037F00069462000FFF7F4FD4FF44670009000206A
:1038000001900020029069462800FFF7E9FDE020C2
:103810000090012001900020029002200390694650
:103820002800FFF7DDFD05B030BD00BF18100240D5
:1038300000080140000C01400000111081B0064852
:10384000016851F001010160006810F00100009072
:10385000009801B0704700BF1410024010B586B048
:1038600002A81021FFF7B8FDDFF80C03D0E9002310
:10387000CDE90023DFF80443DFF80403206047208C
:1038800060600020A0604CF25030E06000202061B9
:10389000002060610020A061200000F0ADFF002842
:1038A00001D0FFF798FD4FF48050029002A920004C
:1038B00001F052FA002801D0FFF78DFD00200090A2
:1038C000002001906946200001F024FC002801D06E
:1038D000FFF781FD06B010BD18B58DB009A8102105
:1038E000FFF77AFDA748D0E90023CDE9002302A81D
:1038F0001C21FFF771FDA44C5FF080402060232065
:1039000060600020A0604FF6FF70E0600020206142
:103910000020A061200000F06FFF002801D0FFF719
:103920005AFD4FF48050099009A9200001F014FAC3
:10393000002801D0FFF74FFD200000F0A3FF002872
:1039400001D0FFF748FD002000900020019069465B
:10395000200001F0DFFB002801D0FFF73CFD302004
:1039600002904FF6FA700390002004900020069019
:10397000002202A9200001F0B2F9002801D0FFF7CF
:103980002AFD200000F0D6F80EB010BD18B58BB09F
:1039900002A82421FFF720FD7C48D0E90023CDE9CF
:1039A00000237B4C7B482060002060600020A060EA
:1039B0004FF6FF70E060002020610020A06103202E
:1039C0000290002003900120049000200590052023
:1039D0000690002007900120089000200990052003
:1039E0000A9002A9200001F005F8002801D0FFF795
:1039F000F2FC00200090002001906946200001F0B8
:103A000089FB002801D0FFF7E6FC0CB010BD10B513
:103A100086B002A81021FFF7DFFC5F48D0E9002341
:103A2000CDE900235D4C5E482060232060600020CB
:103A3000A06044F62060E060002020610020A061CA
:103A4000200000F0D9FE002801D0FFF7C4FC4FF49D
:103A50008050029002A9200001F07EF9002801D0D8
:103A6000FFF7B9FC0020009000200190694620007B
:103A700001F050FB002801D0FFF7ADFC06B010BDEF
:103A800081B001683E4A91420AD146490A6852F41F
:103A900000620A60096811F40061009100991CE05D
:103AA0000168B1F1804F0AD13F490A6852F0010222
:103AB0000A60096811F00101009100990DE00168A8
:103AC000374A914209D138490A6852F004020A6023
:103AD000096811F004010091009901B0704718B510
:103AE00085B0040001A81021FFF776FC2068294961
:103AF00088421DD12C48016851F002010160006824
:103B000010F00200009000982648016851F004016E
:103B10000160006810F0040000900098C02001903F
:103B2000002002900120039001A92048FFF758FCD3
:103B300006B010BD18B585B0040001A81021FFF72C
:103B40004BFC2068B0F1804F13D11648016851F04A
:103B500004010160006810F004000090009801204A
:103B60000190022002900120049001A90F48FFF764
:103B700037FC06B010BD0000E09400085806002095
:103B8000002C0140E894000898060020F0940008FA
:103B9000D806002000040040F89400081807002010
:103BA00000080040181002401C10024000080140AC
:103BB0001FB5684600210022002380E80E00404C1B
:103BC000404820604FF48070A0600120E060002039
:103BD00060615FF46020E06100206060032020618C
:103BE000200001F0C5FA002801D0FFF7F4FB042003
:103BF000009001200190052002906946200001F00C
:103C000011FC002801D0FFF7E6FB05200090022000
:103C100001906946200001F005FC002801D0FFF763
:103C2000DAFB032001906946200001F0FBFB00282D
:103C300001D0FFF7D0FB1FBD30B585B0040001A84F
:103C40001021FFF7C9FB20681E49884236D11E4863
:103C5000016851F400710160016811F40071009174
:103C60000099016851F004010160006810F004003F
:103C700000900098302001900320029001A9134881
:103C8000FFF7AEFB124D134828600020686000204B
:103C9000A8608020E8604FF4007028614FF4006055
:103CA00068612020A8610020E861280001F014FD6F
:103CB000002801D0FFF78FFB25626C6205B030BD94
:103CC000980700200024014018100240000801401D
:103CD0004C0500200800024080B535483549016098
:103CE0005FF4E1314160002181600021C160002169
:103CF00001610C214161002181610021C16101F05C
:103D0000ABFE002801D0FFF766FB01BD30B585B0E2
:103D1000040068461021FFF75FFB206825498842B0
:103D200044D12548016851F480410160016811F4D3
:103D3000804104910499016851F004010160006818
:103D400010F00400049004984FF4007000900220DA
:103D5000019001200390194D69462800FFF740FBB0
:103D60004FF480600090002001900020029069468E
:103D70002800FFF735FB124D1248286010206860BC
:103D80000020A8608020E860002028610020686191
:103D90000020A8614FF48050E861280001F09CFCED
:103DA000002801D0FFF717FB25636C6205B030BD1A
:103DB0005807002000380140181002400008014058
:103DC000D40500204400024080B52D482D490160F3
:103DD00008214160002181600021C1605FF48021E1
:103DE00001615FF400114161002181610021C16125
:103DF0000021016201214162002181620021C16232
:103E000002F06CF9002801D0FFF7E5FA01BD30B5EA
:103E100085B0040068461021FFF7DEFA20681949D2
:103E200088422AD11848016851F000710160006889
:103E300010F00070049004981448016851F00401D7
:103E40000160006810F00400049004984FF40060D2
:103E5000009000200190002002900D4D694628003E
:103E6000FFF7BEFA4FF4805000900220019001202D
:103E7000039069462800FFF7B3FA05B030BD000093
:103E800090050020006400401C1002401810024001
:103E90000008014080B55548554901604FF48271D2
:103EA0004160002181600021C16000210161002189
:103EB00041614FF4007181611821C16100210162EB
:103EC00000214162002181620A21C16202F06BFE81
:103ED000002801D0FFF77FFA01BD30B585B004009E
:103EE00068461021FFF778FA2068414988422BD1B3
:103EF0004048016851F480410160006810F480403E
:103F0000049004983C48016851F008010160006881
:103F100010F00800049004984FF420400090022014
:103F2000019001200390354D69462800FFF758FAAB
:103F30004FF48040009000200190002002906946DC
:103F40002800FFF74DFA2BE020682D49884227D141
:103F50002948016851F480510160016811F48051D1
:103F600004910499016851F004010160006810F0A7
:103F7000040004900498A0200090022001900120E9
:103F80000390204D69462800FFF72AFA4020009050
:103F9000002001900020029069462800FFF720FAD7
:103FA00005B030BD80B51848154901604FF48271E5
:103FB0004160002181600021C16000210161002178
:103FC00041614FF4007181611821C16100210162DA
:103FD00000214162002181620A21C16202F0E3FDF9
:103FE000002801D0FFF7F7F901BD000050040020C0
:103FF000003800401C10024018100240000C014024
:104000000030014000080140F803002080B5074857
:1040100007490160062141601921816002F008FE14
:10402000002801D0FFF7D7F901BD00BF74080020B8
:104030000030004038B502F02BFE374C20780128C4
:1040400044D13648017801290FD1354D402128004F
:10405000FFF7F1FA012220212800FFF7DFFA012201
:1040600080212800FFF7DAFA2CE0017802290FD12D
:104070002B4D80212800FFF7DEFA012220212800A5
:10408000FFF7CCFA012240212800FFF7C7FA19E018
:1040900024490978012915D123490978012911D129
:1040A000007800280ED11E4D012240212800FFF784
:1040B000B5FA012280212800FFF7B0FA202128005C
:1040C000FFF7B9FA03F017F90020207002F022FE82
:1040D00002F039FE02F0D7FF00F001F831BD1348BD
:1040E0000078012803D101200C49087012E0104823
:1040F0000078002807D00F480078012803D00E4828
:104100000078012803D102200449087002E0002051
:104110000249087070470000EF080020EA080020FC
:10412000000C0140E7080020E9080020EB0800200F
:10413000EA010020E6080020FA0800202DE9F843F3
:104140000500002600242878C0076CD50027DFF87A
:104150000C82D8F80000C0000DD4D8F8000050F050
:104160008050C8F80000D8F8000010F0805000908F
:10417000009801200700DFF8E891D9F80000C00599
:1041800013D4D9F8000050F48070C9F80000FFF78C
:1041900067F80600D9F80000C00506D4FFF760F8FC
:1041A000801B6528F6D3032052E0DFF8B891D9F8D8
:1041B000000010F440700400002C22D0686810F455
:1041C000407084421DD0D9F8000030F440700400E3
:1041D00065480121016000210160C9F80040E00745
:1041E0000FD5FFF73DF80600D9F80000800708D486
:1041F000FFF736F8801B41F289318842F4D303205F
:1042000026E0D9F8001031F4407168680143C9F81C
:1042100000103800C0B2012805D1D8F8000030F0F5
:104220008050C8F800002878800706D54F490A68F2
:1042300032F44042A86802430A602878C00606D5D6
:104240004A490A6832F48002E86802430A600020A2
:10425000BDE8F2832DE9F04385B0040001A844498C
:104260001022FDF725F843480088ADF8000000252E
:10427000002600275FF000085FF0000920000128F9
:1042800030D0022859D0102863D1384801688846B8
:1042900039490968C90124D501A9C8F38342895C59
:1042A0000F005FEAC8310ED569460268C2F340428A
:1042B000895C0D005FEAC83109D53049B1FBF5F1E1
:1042C00079430E0003E02E4901FB07F10E00006860
:1042D000400201D5B14604E070000321B0FBF1F0CB
:1042E000814636E01F480068804640F2023010EAFE
:1042F0000800B0F5817F03D14FF4004081461BE0F8
:1043000018F44070B0F5007F07D11E4800688007A0
:1043100003D549F6404081460EE018F44070B0F5F0
:10432000407F07D114480068800303D54FF2244032
:10433000814601E0002081460BE0FEF751FF0B496A
:104340000968C1F38131491C4900B0FBF1F0814695
:10435000FFE7484605B0BDE8F08300001C100240AE
:10436000007000402010024040044242041002400D
:104370009C9400080A1700080010024000127A00FE
:1043800000093D002410024010B410F00703494C0E
:1043900022684FF6FF010A40474951EA03210A43C8
:1043A000226010BC704743480068C0F30220704789
:1043B000012210F01F018A40404903005BB25B09F3
:1043C00041F82320704710B4020052B2002A09D5E8
:1043D0000A013B4B040064B214F00F04234403F8B9
:1043E000042C04E00A01374B040064B21A5510BCD7
:1043F000704770B4030013F00704D4F107000528D8
:1044000001D3042001E0D4F10700251D072D01D2BE
:10441000002500E0E51E012616FA00F0401E0140CE
:10442000A94016FA05F56D1E2A401143080070BC1C
:10443000704710B50400601EB0F1807F01D30120E9
:104440000EE0601E204908600F215FF0FF30FFF78B
:10445000BAFF00201D49086007201D4908600020A0
:1044600010BD10B504002000FFF78EFF10BD2DE930
:10447000F04104000D0016000027FFF794FF80466E
:10448000320029004046FFF7B4FF0100200040B28F
:10449000FFF799FFBDE8F08110B50400200040B29D
:1044A000FFF786FF10BD10B504002000FFF7C1FF25
:1044B00010BD00000CED00E00000FA0500E100E096
:1044C00018ED00E000E400E014E000E018E000E097
:1044D00010E000E000B500BF130096469446103986
:1044E00028BFA0E80C50FAD85FEA417C28BF0CC076
:1044F00048BF40F8042BC90728BF20F8022B48BF4B
:1045000000F8012B00BD000038B504000D000020AC
:1045100084F8380001222900200001F048FBC0B2D5
:1045200032BD2DE9F14F82B0824E029800683168A9
:1045300088425AD1804F8148DFF8048298F80010F1
:104540003A8881543988415C0A2941D17D4C4FF425
:104550008072210002F092FFDFF8EC91E07889F898
:1045600000002078FF2824D16078FF2821D14FF463
:104570008070019000200090DFF8D0A1D346009A0F
:104580000199584602F0F2FF00200500280099F832
:104590000010C0B2884208D22800C0B2205C2900B6
:1045A000C9B20AF801006D1CF0E7012068490870E3
:1045B00002E0002066490870002038804FF48079BE
:1045C0005FF0000A52464946200002F0CFFF02E0A9
:1045D0003888401C38803888B0F5807F01DB0020A7
:1045E000388041463000FFF78FFFBDE8F78F10B5E8
:1045F0000400206857490968884237D1564908881D
:10460000401C08800888554A127890FBF2F302FBA0
:104610001300002802D10120514A10700888514A25
:10462000127890FBF2F302FB1300002802D1012064
:104630004D4A10704D480278012A02D000780228B5
:104640000BD108884A4A127890FBF2F302FB130060
:10465000002802D10120474A107008884FF6FB72EB
:10466000904201DB0020088003F031F820684249C5
:10467000096888420CD120680068C00604D53F480C
:10468000416A491E416203E03C48416A491C41625B
:1046900010BD10B504003A4803F0C8F9002120000D
:1046A00001F039FF10BD38B5040000253548016818
:1046B000354A1288914216D100210D002900C9B255
:1046C000082909DA2900C9B20144097D2F4A2B00C3
:1046D000DBB2D1546D1CF1E701202D490870012097
:1046E0002C49087002E000202949087000212000B0
:1046F00001F011FF022805D12068406950F00A003E
:104700002168486131BD244A1168496A234B1B88DE
:104710005B189BB212685363214A13685B1C1360D9
:104720001268204B1B785B00B2FBF3F21E4B1A8021
:104730007047000058070020DC080020F801002026
:10474000EC080020F8020020EC0100200800002006
:10475000ED08002018070020E0080020F3010020E9
:10476000EF080020F4010020F0080020F4080020E9
:10477000F5010020F8080020D806002018060020C7
:104780007C94000818080020E001002000000020B0
:10479000EA010020FB08002098060020E601002026
:1047A000A4080020F0010020E2080020704700006B
:1047B00081B00E48016851F001010160006810F0FD
:1047C0000100009000980A48016851F08051016092
:1047D000006810F08050009000980649086830F09A
:1047E000E06050F00070086001B07047181002409F
:1047F0001C1002400400014010B50400002C01D13F
:10480000012014E094F83D00002805D1002084F830
:104810003C002000FFF734F9022084F83D00211D00
:10482000206800F027FB012084F83D00002010BD27
:1048300001000868C06850F001000A68D06008688C
:10484000006850F001000A68106000207047010005
:104850000868C068400840000A68D0600868006ABC
:1048600041F2111210420BD10868006A40F2444232
:10487000104205D108680068400840000A681060CE
:104880000020704710B50400002C01D1012014E075
:1048900094F83D00002805D1002084F83C00200059
:1048A00003F0D8F8022084F83D00211D206800F0B4
:1048B000E1FA012084F83D00002010BD38B5040065
:1048C0000D002800002806D004280BD0082810D09E
:1048D0000C2815D01BE02068C06850F00200216849
:1048E000C86014E02068C06850F004002168C86007
:1048F0000DE02068C06850F008002168C86006E03C
:104900002068C06850F010002168C860FFE70122ED
:104910002900206800F0EFFB2068DFF8D4108842FF
:1049200005D12068406C50F400402168486420683C
:10493000006850F0010021680860002032BD38B5E1
:1049400004000D002800002806D004280BD00828F9
:1049500010D00C2815D01BE02068C06830F0020091
:104960002168C86014E02068C06830F00400216845
:10497000C8600DE02068C06830F008002168C86099
:1049800006E02068C06830F010002168C860FFE7CA
:1049900000222900206800F0AEFB2068DFF85010EC
:1049A000884211D12068006A41F2111108420BD1EE
:1049B0002068006A40F24441084205D12068406CFA
:1049C00030F40040216848642068006A41F2111107
:1049D00008420BD12068006A40F24441084205D1E8
:1049E000206800684008400021680860002032BD4F
:1049F000002C01402DE9F04104000D0000260027A5
:104A00005FF00008002C01D1012050E094F83D0037
:104A1000002805D1002084F83C002000FFF75FF853
:104A2000022084F83D0020688068C008C00021682A
:104A30008860211D206800F01DFA206881682068C8
:104A400082692068036A28680143DFF80003024096
:104A5000A868D5F818C050EA0C200243DFF8F0022D
:104A60000240DFF8F0020240E868D5F81CC050EAC6
:104A70000C2002432869D5F820C05FEA0C3C5CEAB0
:104A8000001C5CEA020233F0220333F088036868FA
:104A9000D5F814C050EA0C100343206881602068E8
:104AA000826120680362012084F83D000020BDE897
:104AB000F081000038B504000D002800002802D065
:104AC000042806D00BE001220021206800F013FB2F
:104AD0000FE001220421206800F00DFB09E0012213
:104AE0000021206800F007FB01220421206800F06B
:104AF00002FB2068006850F0010021680860002077
:104B000032BD38B504000D002800002802D004286A
:104B100006D00BE000220021206800F0ECFA0FE044
:104B200000220421206800F0E6FA09E000220021BA
:104B3000206800F0E0FA00220421206800F0DBFA8F
:104B40002068006A41F2111108420BD12068006A06
:104B500040F24441084205D1206800684008400006
:104B600021680860002032BD10B50400206800698B
:104B700080071AD52068C068800716D57FF002002C
:104B800021680861012020772068806910F0030FF8
:104B900003D0200002F05FFF05E02000FFF7B3FD27
:104BA000200002F059FF00202077206800694007AC
:104BB0001AD52068C068400716D57FF00400216828
:104BC0000861022020772068806910F4407F03D0BC
:104BD000200002F040FF05E02000FFF794FD2000D8
:104BE00002F03AFF002020772068006900071AD5FC
:104BF0002068C068000716D57FF0080021680861AA
:104C0000042020772068C06910F0030F03D0200033
:104C100002F021FF05E02000FFF775FD200002F003
:104C20001BFF0020207720680069C0061AD5206885
:104C3000C068C00616D57FF0100021680861082002
:104C400020772068C06910F4407F03D0200002F074
:104C500002FF05E02000FFF756FD200002F0FCFEF9
:104C60000020207720680069C0070AD52068C06846
:104C7000C00706D57FF00100216808612000FFF71A
:104C8000B6FC2068006900060AD52068C0680006E6
:104C900006D57FF0800021680861200002F0DDFE6B
:104CA0002068006940060AD52068C068400606D51D
:104CB0007FF0400021680861200002F0CFFE2068EC
:104CC000006980060AD52068C068800606D57FF096
:104CD000200021680861200002F0C1FE10BD70B5FF
:104CE00004000D00160094F83C00012801D10220B8
:104CF0002AE0012084F83C00022084F83D003000C6
:104D0000002806D0042809D008280CD00C280FD081
:104D100013E02900206800F0E0F80EE02900206888
:104D200000F00BF909E02900206800F03DF904E0EB
:104D30002900206800F06CF9FFE7012084F83D00AD
:104D4000002084F83C00002070BD0000FCFCFFFF48
:104D5000F3F3FFFF0F0FFFFF70B504000D000021FC
:104D600094F83C00012801D1022082E0012084F85F
:104D70003C00022084F83D002068866836F0770603
:104D800036F47F46206886602868002856D01028B0
:104D900059D020285CD030285FD0402844D05028FB
:104DA0002ED0602836D070280DD0B0F5805F03D0AB
:104DB000B0F5005F17D055E020688068C008C000DB
:104DC000216888604EE0EB686A68A968206800F096
:104DD00085F92068806830F0770050F07700060091
:104DE000206886603EE0EB686A68A968206800F089
:104DF00075F92068806850F480402168886031E04F
:104E0000EA686968206800F033F95021206800F0F2
:104E100058F927E0EA686968206800F03DF96021E8
:104E2000206800F04EF91DE0EA686968206800F02B
:104E30001FF94021206800F044F913E000212068A8
:104E400000F03FF90EE01021206800F03AF909E087
:104E50002021206800F035F904E03021206800F0BE
:104E600030F9FFE7012084F83D00002084F83C0081
:104E7000002070BD10B4002203687A4CA04208D014
:104E8000B0F1804F05D0784A904202D0774A9042E4
:104E900003D133F070034A681343A04208D0B0F145
:104EA000804F05D0704A904202D0704A904203D1A0
:104EB00033F44073CA68134333F080034A691343E1
:104EC00003608A68C2620A688262A04201D10A69EC
:104ED00002630122426110BC7047F0B50026002732
:104EE0005FF0000C026A520852000262056A4368D1
:104EF000846934F07004A408A4000A68144335F0EF
:104F000002058A681543DFF85CE1704505D135F08C
:104F10000805CA68154335F00405704507D133F418
:104F2000807333F400734A6913438A6913434360FF
:104F300084614A6842630562F0BDF0B40025002632
:104F40000027026A32F010020262046A4268836932
:104F500033F4E04333F44073D1F800C053EA0C2338
:104F600034F02004D1F808C054EA0C14DFF8F4C07F
:104F7000604506D134F08004CD6854EA051434F05D
:104F80004004604509D132F4806232F400624D6918
:104F900052EA85028D6952EA8502426083614D685A
:104FA00085630462F0BC7047F0B4002600275FF010
:104FB000000C026A32F480720262056A4368C469B6
:104FC00034F07004A408A4000A68144335F4007592
:104FD0008A6855EA0225234A904206D135F40065D5
:104FE000CE6855EA062535F48065904209D133F440
:104FF000805333F400534A6953EA02138A6953EA2F
:1050000002134360C4614A68C2630562F0BC704722
:10501000F0B4002200240026036A33F480530362B4
:10502000056A4768C36933F4E04333F44073D1F849
:1050300000C053EA0C2335F40055D1F808C055EAF6
:105040000C35DFF820C0604504D137F480474A6949
:1050500057EA82174760C3614A6802640562F0BC80
:1050600070470000002C0140000400400008004090
:1050700070B400230025066A046A640864000462B0
:10508000846934F0F00454EA021436F00A060E4340
:105090008461066270BC704770B400230025046A06
:1050A00034F0100404628469066A34F4704454EAEB
:1050B000023436F0A00656EA01168461066270BC1E
:1050C000704710B40022836833F070030C00A4B260
:1050D00054F007042343836010BC704770B400246D
:1050E000856835F47F4552EA010656EA03263543C2
:1050F000856070BC704770B4002401258D40036A40
:10510000AB430362066A12FA01F31E43066270BCE7
:1051100070470000020092F83C00012801D10220F3
:1051200024E0012082F83C00022082F83D00106853
:10513000406830F070001368586010684368086871
:105140000343106843601068806830F08000136883
:105150009860106883684868034310688360012082
:1051600082F83D00002082F83C00002070470000DB
:105170002DE9F04104005FF000080025002600271B
:10518000002C01D1012093E0A068002801D06069C3
:105190000028A06A002807D10020E062002084F8DF
:1051A00024002000FEF748FD200000F02DFAA16A3F
:1051B000C90676D40100C9B2002972D1A16A31F4BE
:1051C000885151F00201A1626268E1690A43E16815
:1051D00052EA41021643A168B1F5807F02D0A1686E
:1051E000012902D14FF4807100E000210D43616973
:1051F000012911D1E168002906D1A169491E49039D
:1052000051F400610D4307E0A16A51F02001A16251
:10521000E16A51F00101E1622168496831F46941B4
:1052200029432268516021688A68DFF8BC130A406C
:10523000324321688A60A168B1F5807F02D0A168FD
:10524000012902D14FF4807100E00021B1F5807F87
:1052500003D12169491E09050F002168C96A31F48B
:10526000700139432268D16221688A68DFF87C13B3
:105270000A40B24208D10021E162A16A31F0020184
:1052800051F00101A16212E0A16A31F0020151F076
:105290001001A162E16A51F00101E16201210800FF
:1052A00005E0A16A51F01001A16201210800C0B21D
:1052B000BDE8F0812DE9F84304000D0016005FF011
:1052C0000009DFF834732068B84204D02068DFF8A2
:1052D0002013884205D1DFF81C03006810F4702009
:1052E00000E00020002840F0978094F82400012876
:1052F00001D1022094E0012084F82400200000F075
:105300003AF980464046C0B2002840F08180A16A48
:10531000DFF8EC02014051F48071A162DFF8D01295
:105320002068884209D1DFF8CC02006810F4702FA1
:1053300001D1012002E0002000E0012000280ED071
:10534000A06A30F48010A0622068406840051FD534
:10535000A06A30F4005050F48050A06218E0A06AB7
:1053600050F48010A0622068B84202D020688842C1
:1053700005D1DFF88002006810F4806000E00020B2
:10538000002805D0A06A30F4005050F48050A0628C
:10539000A06AC00404D5E06A30F00600E06201E0D3
:1053A0000020E062002084F824000FF2A920216A86
:1053B00088620FF2F520216AC8620FF2FD20216A8F
:1053C00008637FF00200216808602068806850F45C
:1053D00080702168886033002A00206810F14C0139
:1053E000206A00F0B6F92068806810F46020B0F5FB
:1053F000602F06D12068806850F4A0002168886082
:105400000CE02068806850F480102168886005E016
:10541000002084F8240001E05FF001084046C0B29B
:10542000BDE8F28378B4020000230020009092F8D7
:105430002400012801D102209BE0012082F82400F1
:105440004868072812D21068446B1F254868461E1A
:1054500005204643B540AC430D684868461E05200C
:105460004643B5402C431068446329E048680D2842
:1054700012D21068046B1F254868C61F05204643DA
:10548000B540AC430D684868C61F05204643B5408B
:105490002C431068046313E01068C46A1F25486831
:1054A000B0F10D0605204643B540AC430D68486891
:1054B000B0F10D0605204643B5402C431068C46288
:1054C00008680A2814D31068C46807250868B0F172
:1054D0000A0603204643B540AC438D680868B0F126
:1054E0000A0603204643B5402C431068C4600FE011
:1054F0001068046907250E6803204643B540AC4395
:105500008D680E6803204643B5402C431068046143
:105510000868102802D00868112825D11068364C78
:10552000A0421BD11068806800021DD410688068FA
:1055300050F400001468A0600868102814D12F48A7
:105540000068304CB0FBF4F40A2044430094009807
:10555000002809D00098401E0090F8E7906A50F0AB
:105560002000906201200300002082F8240018002F
:10557000C0B272BC704738B504000025002000900E
:1055800020688068C0072BD42068806850F0010034
:1055900021688860194800681A49B0FBF1F0009052
:1055A0000098002803D00098401E0090F8E7FDF70F
:1055B00057FE050020688068C00711D4FDF750FE33
:1055C000401B0328F6D3A06A50F01000A062E06AE6
:1055D00050F00100E062002084F82400012000E087
:1055E000002032BD00000000FDF7E1FFFE0E1FFFAE
:1055F000002801400424014000240140140100203F
:10560000FEF1FFFF40420F0038B50400002520687E
:105610008068C0071BD5206880684008400021686A
:105620008860FDF71DFE050020688068C0070ED564
:10563000FDF716FE401B0328F6D3A06A50F01000B9
:10564000A062E06A50F00100E062012000E000206A
:1056500032BD000038B50400656AA86A10F0500F2A
:105660001CD1A86A50F40070A8622868806810F401
:105670006020B0F5602F0DD1E86800280AD1A86A33
:1056800030F48070A862A86AC00403D4A86A50F0FD
:105690000100A862280002F0E3F903E02000296A73
:1056A000096B884731BD000038B50400656A2800E1
:1056B00002F0D7F931BD000038B50400656AA86A68
:1056C00050F04000A862E86A50F00400E862280048
:1056D00002F0C8F931BD000010B401000022002919
:1056E00001D1012033E00B68DFF81C03C31814203C
:1056F000B3FBF0F080000864DFF81003C8630220F9
:1057000081F82100086803686FF30D134C688868FE
:105710000443C8680443086904434869044388692A
:105720000443C86904432343086803600020886277
:105730000020C862002008630020486300208863BE
:10574000012081F82100002081F82000002010BCF9
:1057500070472DE9F04104000D0016001F005FF0B6
:10576000000894F82000012801D102203BE001202C
:1057700084F8200094F8210001282DD1022084F81B
:1057800021000020A06320680068400840002168D4
:1057900008603B0032002900200000F047F9E06A71
:1057A000002806D02068006850F00E0021680860CC
:1057B0000BE02068006830F0040021680860206871
:1057C000006850F00A00216808602068006850F006
:1057D00001002168086004E0002084F82000022015
:1057E00080464046C0B2BDE8F08138B504000025CF
:1057F00094F82100022804D00420A06301200500B1
:105800004AE02068006830F00E00216808602068D7
:10581000006840084000216808602068DFF8F01147
:10582000884201D1012028E02068DFF8E811884291
:1058300001D1102021E02068DFF8DC11884202D17C
:105840004FF4807019E02068DFF8D011884202D14F
:105850004FF4805011E02068DFF8C411884202D173
:105860005FF4803009E02068DFF8B811884202D187
:105870005FF4801001E05FF08070DFF8AC11086029
:10588000012084F82100002084F82000606B0028AB
:1058900002D02000616B88472800C0B232BD70B5CD
:1058A0000400E06B0568206806680421206C8140D4
:1058B0000D423ED070073CD520680068800605D4B4
:1058C0002068006830F004002168086020685049B2
:1058D000884201D1042023E020684E49884201D14A
:1058E00040201DE020684C49884202D14FF480607E
:1058F00016E020684949884202D14FF480400FE009
:1059000020684749884202D15FF4802008E020687F
:105910004449884202D15FF4800001E05FF080607A
:1059200041490860E06A00286DD02000E16A88479C
:1059300069E00221206C81400D4244D0B00742D57D
:1059400020680068800608D42068006830F00A00EB
:1059500021680860012084F8210020682C498842D1
:1059600001D1022023E020682A49884201D1202069
:105970001DE020682849884202D14FF4007016E0EB
:1059800020682649884202D14FF400500FE0206879
:105990002349884202D15FF4003008E020682149A1
:1059A000884202D15FF4001001E05FF000701E49F0
:1059B0000860002084F82000A06A002823D020007E
:1059C000A16A88471FE00821206C81400D421AD04F
:1059D000300718D52068006830F00E002168086094
:1059E0000121206C8140E06B41600120A063012017
:1059F00084F82100002084F82000206B002802D0C9
:105A00002000216B884770BDF8FFFDBF00000240F9
:105A1000080002401C0002403000024044000240E6
:105A2000580002406C0002400400024030B40125DE
:105A3000046CA540C46B6560046863604468102C06
:105A400004D10468A2600468E16003E00468A16016
:105A50000468E26030BC704710B50400002C01D12E
:105A6000012033E0A0690028FFD194F83900002814
:105A700005D1002084F838002000FEF747F92420E3
:105A800084F839002068C06830F400502168C8608C
:105A9000200000F05DFA2068006930F49040216831
:105AA00008612068406930F02A0021684861206858
:105AB000C06850F400502168C8600020E0632020D6
:105AC00084F83900202084F83A00002010BD2DE928
:105AD000FC4705000C0016001F005FF0000A95F857
