:020000040800F2
:10000000D00B002001010008F54100088D360008E2
:100010009D400008AD0A0008614E00080000000085
:100020000000000000000000000000004D45000836
:10003000410E0008000000008D420008C94500087C
:100040001B0100081B0100081B0100081B01000820
:100050001B0100081B0100081B0100081B01000810
:100060001B0100081B0100081B010008E50D00082A
:100070001B0100081B010008F10D00081B0100080E
:100080001B0100081B0100081B0100081B010008E0
:10009000494E00081B0100081B010008C90E00089A
:1000A0001B010008194700081B0100081B0100087C
:1000B000714700087D470008B94700081B01000888
:1000C0001B0100081B0100081B0100081B010008A0
:1000D0001B0100083D4E00081B0100081B01000821
:1000E0001B0100081B0100081B010008DFF80CD0F1
:1000F00000F022FC0048004771570008D00B002098
:100100000648804706480047FEE7FEE7FEE7FEE7B1
:10011000FEE7FEE7FEE7FEE7FEE7FEE749460008EA
:10012000ED000008202A04DB203A21FA02F0002129
:10013000704721FA02F3D040C2F1200291400843F7
:1001400019467047A0F16101192900D8203870477D
:10015000D2B201E000F8012B491EFBD27047002209
:10016000F6E710B513460A4604461946FFF7F0FFB6
:10017000204610BDF0B480EA0102D40F4200B2EB79
:10018000410F02D20246084611464A0042D0C30D32
:10019000DDB2C1F3C752AD1A202D35DAC1F3160115
:1001A00041F4000204B15242C5F1200602FA06F100
:1001B0002A411044B3EBD05F23D0C4B1012DA0EB92
:1001C000C35009DCF0BC4FF0004202EAC352DBB27C
:1001D00000F5000000F0F5BA400000F1807000EB7F
:1001E000C350A0F1807040EAD170490009E049088D
:1001F00041EAC071A0EBC35000F50000400800EBDD
:10020000C350F0BC00F0D4BA6142012202EB4101BC
:10021000001BF6E7F0BC704781F00041AAE780F0D0
:100220000040A7E780EA010210B502F00043400059
:1002300022D04A001FD0010E01EB1261C0F356001C
:10024000C2F3560240F4000042F40002A0FB022078
:1002500000047F39140400D0401C50EA124001D43D
:100260004000491EC2B20C0604EBD010401C4008EE
:10027000802A02D003E0002010BD20F001000029F8
:1002800000DA0020184310BD30B480EA010202F009
:10029000004530F0004221F0004013D090B1C30D72
:1002A000D40DC2F31601C0F31600E41A41F40001A4
:1002B00040F400027D34914201D3641C00E0490007
:1002C000002C02DA30BC002070474FF400000023FD
:1002D000914201D3891A034340084FEA4101F7D103
:1002E00051B1914202D14FF0004105E002D24FF0EE
:1002F000010101E06FF0010103EBC450284430BC60
:1003000000F056BA2DE9FE4F804681EA0300C00F87
:100310000C46009021F0004123F00045B8EB0200AC
:10032000A94105D24046214690461C460B4602464E
:1003300023F00040104347D0270DC7F30A00C3F352
:100340000A510290401A019040286BDAC3F313005F
:1003500040F4801B0098924620B10023D2EB030AA0
:1003600063EB0B0B01985946C0F14002504600F078
:10037000FEF906460D4650465946019A00F006FA27
:1003800010EB08006141002487EA115284EAE77308
:100390001A4340D0009A62B3019A012A4FEA0752E9
:1003A00015DC001B61EB02014FF0004202EA07522C
:1003B000CDE90042001C41F5801132462B4600F089
:1003C0003DFA03B0BDE8F08F40462146F9E7001B37
:1003D00061EB0201001C41F5801300185B412018FD
:1003E000A2F5001747EB030140EAD570B6196D413D
:1003F00011E06D084FEA360645EAC0754FEA07522C
:10040000001B61EB0201001C41F5801149084FEA15
:1004100030000019514132462B4603B0BDE8F04F81
:1004200000F0FDB90098012240000023D0EB020249
:1004300063EBE073009821464FEAE074B8EB0000EC
:1004400061EB0401E9E783F000435BE781F00041E1
:1004500058E72DE9FE4F81EA030404F0004421F03F
:10046000004100944FF0000B23F0004350EA0104D8
:100470005ED052EA03045BD0C3F30A54C1F30A55B9
:100480002C44A4F2F3340194A0FB0254C1F31301F1
:1004900041F48011C3F3130343F4801301FB0244BE
:1004A00000FB034E840A970A44EA815447EA8357C3
:1004B000A4FB076802958D0A05FB07854FEA932C7C
:1004C00004FB0C542705029D4FEA065847EA1637ED
:1004D000B5EB08056EEB070C870E920E47EA811705
:1004E00042EA8312A7FB0201B6EB0B0164EB0004A6
:1004F0002B0D43EA0C335E1844EB1C50DA46514690
:10050000E7FB0201C5F313044FEA0B3343EA14532C
:100510004FEA0432019C43EA0603A4F10C0402945E
:10052000009CCDE900B400F089F903B0BDE8F08F7C
:1005300000200146F9E72DE9F04D81EA030404F0BB
:10054000004B21F0004514464FF0000A23F0004113
:1005500050EA050220D054EA01021DD0C5F30A5723
:100560000246C5F31303C1F31300C1F30A5640F466
:10057000801543F48013A7EB0608101BD64608F23B
:10058000FD3873EB050002D308F1010801E0921871
:100590005B41B8F1000F03DA00200146BDE8F08DA1
:1005A00000204FF48011064684460EE0171B73EBC3
:1005B000050705D3121B63EB050306434CEA010C48
:1005C00049084FEA300092185B4150EA0107EDD12B
:1005D00052EA030012D082EA040083EA05010843CC
:1005E00005D0101BAB4106D20122002306E00022F9
:1005F0004FF0004302E06FF0010253101AEB0600C7
:100600004CEB085110EB0A0041EB0B01BDE8F04D3B
:1006100000F005B9C10F80EAE0700844CA079623CC
:10062000002100F0CEB896230022114600F0C9B890
:1006300020F00040C10DC0F3160040F400007F29F7
:1006400001DA00207047962903DCC1F19601C84009
:10065000704796398840704700F0004230F0004003
:100660000AD0C10D01F56071C0F3160042EA0151D4
:10067000C20840071143704700200146704701F04F
:10068000004330B421F0004150EA010206D00A0DC7
:10069000A2F56072C1F31301002A02DC30BC002015
:1006A0007047440F44EAC104C100E01830BC00EBBD
:1006B000C25000F07DB80000002801DBC0F100400E
:1006C000002901DBC1F1004181427047002801DBB4
:1006D000C0F10040002901DBC1F1004188427047B0
:1006E00030B50B46014600202022012409E021FA02
:1006F00002F59D4205D303FA02F5491B04FA02F5FF
:100700002844151EA2F10102F1DC30BD2DE9F05F95
:100710000546002092469B46884606468146402470
:100720001BE02846414647462246FFF7FBFC53465E
:100730005A46C01A914110D311461846224600F07D
:1007400016F82D1A67EB01084F46224601200021BA
:1007500000F00DF817EB00094E41201EA4F1010432
:10076000DFDC484631462A464346BDE8F09F202A52
:1007700004DB203A00FA02F1002070479140C2F1F8
:10078000200320FA03F3194390407047202A06DB28
:10079000CB17203A41FA02F043EAE07306E041FA4F
:1007A00002F3D040C2F1200291400843194670473D
:1007B0000029A8BF7047401C490008BF20F0010075
:1007C000704710B4B0FA80FC00FA0CF050EA010453
:1007D00004BF10BC704749B1CCF1200421FA04F4E5
:1007E00011FA0CF118BF012121430843A3EB0C01BE
:1007F000CB1D4FEA00614FEA102042BF002010BC21
:10080000704700EBC35010440029A4BF10BC7047D0
:10081000401C490008BF20F0010010BC704710B513
:10082000141E73F1000408DA401C41F10001921813
:100830005B411A4301D120F0010010BD2DE9F04DBC
:1008400092469B4611B1B1FA81F202E0B0FA80F211
:1008500020329046FFF78BFF04460F4640EA0A001D
:1008600041EA0B0153465A46084313D0114653EA56
:10087000010019D0C8F140025046FFF753FC05466D
:100880000E46504659464246FFF771FF084305D0D1
:10089000012004E020463946BDE8F08D00200543E4
:1008A00046EAE0762C4337430A986305E40AA0EB56
:1008B00008000022FD0A44EA47540A3002D500200D
:1008C0000146E9E7010510196941DDE9084500190C
:1008D0006941BDE8F04DA2E7C1F30A52C1F313012B
:1008E00040F2FF3341F480119A4202DA00200146BF
:1008F000704740F233439A42A2F2334202DC524242
:10090000FFF710BCFFF733BF30B5041E71F10004D0
:1009100004DB4FF00044404264EB0101141E73F10C
:10092000000405DB1C464FF00043524263EB040316
:10093000994208BF904230BD064C074D06E0E06882
:1009400040F0010394E8070098471034AC42F6D316
:10095000FFF7D0FB1C5800083C58000830B58C1835
:1009600010F8012B12F00F0301D110F8013B12090E
:1009700006D110F8012B03E010F8015B01F8015BD0
:100980005B1EF9D101E001F8013B521EFBD1A142EF
:10099000E6D3002030BD10B50146A02002F0A0FE35
:1009A000C0B210BD0A460146A02002F0C1BE000040
:1009B0007FB5B02000900120084D01900290039077
:1009C00000246946284601F007F84020CDE90004DC
:1009D00069462846029400F0FFFF7FBD00080140F1
:1009E0007047000010B5174C2078002828D116A0B9
:1009F00004F038FAFFF7F4FF00F050FA03F0FCFFC0
:100A000000281DD003F008FC0021164802F090FBDE
:100A1000012003F087FE012003F0B6FE012003F061
:100A200063FE0021104800F071FD1049104804F0E9
:100A300011FA01202070BDE810400EA004F012BA97
:100A400010BD0000380000200D0A20647269766530
:100A50007220626F61726420737461727420696EB7
:100A600069740000080700200005002087010020AD
:100A7000480700200D0A206877726F626F74207338
:100A80007465706572206D6F746F72206472697620
:100A9000657220626F6172642062737020696E6992
:100AA00074206973206F6B2021000000FEE70000B6
:100AB00000B510488BB00021C28A0120520100927B
:100AC0004FF41252019242F2A04202920590CDE9F7
:100AD000060108900E2009904FF41352CDE903212E
:100AE0006946054800F09EFA002801D000F068FA37
:100AF0000BB000BD38000020000500202DE9F041BA
:100B0000304C2079012849D12F4E00273078012818
:100B10002FD104F144050021287803F0B8FBA07020
:100B20002878072103F0B3FBA0712878012103F096
:100B3000AEFB60702878022103F0A9FBA072287830
:100B4000032103F0A4FBE072A879E9786A7900EB4D
:100B500001602979090401EB022108441B49E06185
:100B6000884202DC4942884200DAE161E879607239
:100B70003770217B1648012912D0022910D0627AE1
:100B8000617B8A4200D96172E169002906DA006856
:100B9000A16A00F57A60814200DDA062BDE8F081C3
:100BA0001E226272012907D00229F7D1E16900688B
:100BB0008142F3DDE061F1E7E0690A28EEDCE761FC
:100BC000ECE70000380000208F010020001BB70078
:100BD0000400002010B5002958D0826B4FF4D87360
:100BE000046803EB0113E45814F0040494600468EF
:100BF000E4584DD0E40854600468E35803F002035D
:100C0000D3604FF4DA73046803EB0113E45804F083
:100C10000F04146111620468E358C3F30723D3611E
:100C20004FF4DC73046803EB0113E4581475046893
:100C3000E458240A54750468E458240C9475046834
:100C4000E3581B0ED3754FF4DE73046803EB0113F6
:100C5000E45814760468E458240A54760468E45886
:100C6000240C94760468E3581B0ED3760368202284
:100C700089B11A610268536923F05003536190F8F7
:100C80003C20222A0DD0322A0BD00FE0426BA5E780
:100C9000640D1460B0E7DA600268536923F00A0358
:100CA000ECE70268536923F40F43536112220123D6
:100CB000002990F83C1006D0522915D0622916D090
:100CC000722906D115E042290ED0622908D0722976
:100CD00008D080F83C3000BF00F072FC002010BD4E
:100CE000322107E0522105E080F83C20F4E7222180
:100CF00000E0422180F83C10EEE7000070B5124899
:100D0000124E4FF480710568304600F043FF104CDE
:100D100002460021207803F039FC2070711530461E
:100D200000F038FF02462078012103F02FFC2070EC
:100D3000280EE070280C2071280A60710548A57102
:100D40000078E07170BD000004000020000C01403C
:100D5000740000202C000020094910B5CA8A0949F6
:100D6000002088600A60C86008220A61044A3C3298
:100D70000C18135C401CC0B223750828F8D310BDB2
:100D8000380000204002002010B5124C607AFFF7B6
:100D90004AFC11490860E0691049E062A26A0968EA
:100DA000824207D0904213DD8A4202DA8A1A142A5C
:100DB00000DCA062A06A0A4CA0F10A02914203DDA5
:100DC0001432914200DA0846FFF724FC206010BD7F
:100DD000521AECE7380000202800002030000020E4
:100DE00024000020014800F0FBBC0000BC040020EF
:100DF000014800F0F5BC0000880700200E4801689B
:100E000021F080710160016841F0807101600B4840
:100E1000016821F001010160016841F001010160F8
:100E20000021416000BF00BF00BF406808B1002042
:100E30007047012070470000FCED00E0001000E06A
:100E40007047FFF7DBBF00000E4810B500780124A3
:100E500001280DD000210C4802F06AF9012220215E
:100E60000A4800F09CFE0A4804700A48047010BD4D
:100E700000F08EF800F08EF80748D0E9051003F076
:100E80000FF9F2E73A00002008070020000C0140AB
:100E9000830100204700002010000020094810B501
:100EA000074941631C39016300F064FA08B100F09E
:100EB00087F8FFF7FDFDBDE8104003F0F1B9000031
:100EC0005C020020000500204FF4807000F078BD27
:100ED000F8B51C4C6079012832D104F14C00C1787E
:100EE0002174027962744079A074F020FFF75AFDF2
:100EF000617CF120FFF756FDA17CF220FFF752FD47
:100F0000F020FFF748FD0546F020FFF744FDF120F3
:100F1000FFF741FDF220FFF73EFD0646F220FFF706
:100F20003AFD3846FFF798FB02460B46294606A0D5
:100F3000009603F097FF0DA003F094FF002060716E
:100F4000F8BD0000380000200D0A2049443A3078EE
:100F500025782063757272656E743A25322E336679
:100F60004120737465703A25642000000D0A2070DA
:100F70006172616D6574657273207570646164611E
:100F80002073756363656573212E2E2E2E2E2E0021
:100F900000F018B807480849037808484A68012B48
:100FA000016804D0002B01D1891A016070471144F7
:100FB000FBE7000043000020B001002004000020F7
:100FC000FEE7000030B514480068426A13484261E9
:100FD000416A436BC1EB01411144CC1A44604FF4A8
:100FE0000044456807E0416A491E4162C1EB014186
:100FF0001144CD1A4560A542F5DA094CA54208DC3A
:10100000416A491C4162C1EB01411144CD1A45605E
:10101000F4E7416330BD000088060020B0010020E5
:101020000080FFFFF0B50C7D012303FA04F2046891
:10103000D4F800524E6A25F47C5503EB06231D4379
:10104000C4F800520368D3F81C429443C3F81C420E
:101050004FF41073CD691C1DBDB90568D5F80C623D
:101060009643C5F80C628E894D684F6966F31F453B
:10107000066803EBC707F5510E890D684F6966F3E3
:101080001F45066804EBC707F551CD69012D17D13F
:101090000568D5F80C621643C5F80C620E884D68D9
:1010A0004F6966F31F45066803EBC703F5500D89CA
:1010B000CB684E6965F31F43056804EBC6042B51EA
:1010C0008B69002B0368D3F8044211D054EA020460
:1010D000C3F804420B69002B0368D3F8144209D00B
:1010E00054EA0204C3F81442096A012904D009E051
:1010F0009443EDE79443F5E70168D1F81C321343BC
:10110000C1F81C320068D0F8001221F00101C0F8CB
:1011100000120020F0BD000010B5044604A003F04A
:10112000A1FE2046BDE81040002100F0EFB900000C
:101130000D0A43414EE587BAE994990D0A00000073
:101140002DE9F041044600680026C168C1F3001390
:101150004169C1F3C002102113B10AB14E01C1604F
:10116000206802694369C2F30012C3F380131AB105
:1011700013B146F480660161216848694FF00105AA
:10118000C043C0074ED18A687648904323D00020E0
:101190008B68754A9A4320D000228F68734BBB43FB
:1011A0001DD00023104318433CD088688A68C0F3E0
:1011B00040008B68C2F3402203F001031043184340
:1011C00029D04A69204622F001024A6194F83C1075
:1011D000122906D00AE00120DAE70122DDE7012327
:1011E000E0E701684A6922F40F424A6190F83C1036
:1011F000422908D0522908D0722908D080F83C50E2
:1012000000F0A0FA09E0222102E0322100E0622190
:1012100080F83C10F4E746F4006620688168544A80
:10122000114381602168C868496910F0030FC1F358
:10123000400104D019B100212046FFF7CBFC216802
:101240000869496910F0030FC1F3001104D019B106
:1012500001212046FFF7BEFC206C3043206420684B
:101260008169426911F0010F4369C2F30022C3F39F
:10127000C03305D022B11BB1216C41F001012164C2
:101280008169C1F340034169C1F340224169C1F35F
:10129000C0312BB122B119B1216C41F0020121649E
:1012A0008169C1F3800341694269C1F38021C2F3BE
:1012B000C0322BB121B11AB1216C41F0040121647B
:1012C000816911F0700F08D000224169C1F3C02379
:1012D0004169C1F3C03112B121E00122F5E7F3B158
:1012E000E9B1816901F0700140292FD006DC102995
:1012F00009D020290BD030290DD123E0502929D045
:10130000602908D12AE0216C41F0080102E0216C3B
:1013100041F010012164816921F070018161206C2C
:1013200000280DD021680420486084F83C502068D3
:10133000416948F65B72914341612046FFF7ECFE3C
:10134000BDE8F081216C41F02001E3E7216C41F020
:101350004001DFE7216C41F08001DBE7216C41F4C3
:101360008071D7E7010000040001000800000110AF
:10137000090501002DE9F04104004FF0000504D0FB
:1013800094F83C00002618B107E00120BDE8F08188
:1013900084F83D60204600F083F8022084F83C0089
:1013A0002068016821F0020101602068016841F0B5
:1013B0000101016000F0F8FB07464FF0030804E06C
:1013C00000F0F2FBC01B0A2853D820684068C00711
:1013D000F6D021684868C00758D0A069012801D11B
:1013E00045F08005E06901282FD025F04000226AF1
:1013F000012A2DD020F02000626A012A2BD020F093
:101400001000A26A012A29D020F00800E26A012A0D
:1014100027D020F004000A6822F0FC0202430A6090
:10142000D4E902010843D4E9041211430843616876
:10143000491E08432168C8612068016821F0010144
:10144000016000F0B1FB054618E045F04000CEE732
:1014500040F02000D0E740F01000D2E740F0080054
:10146000D4E740F00400D6E700F09EFB401B0A28BA
:1014700004D904F83C8F0320667087E72068406831
:10148000C007F1D120684068C00703D0042084F869
:101490003C007AE72664012084F83C00002075E7D0
:1014A00010B586B00021009101910291039100686E
:1014B0001349884222D11348C16941F00071C161CA
:1014C000C16901F000710491816941F004018161F9
:1014D00080690D4C00F0040004904FF4006000900F
:1014E0006946204600F078FAA0140090022001908E
:1014F000012003906946204600F06EFA06B010BD48
:1015000000640040001002400008014030B511B1F5
:10151000012925D010E090F83C20222A28D090F80C
:101520003C20422A24D000BF90F83C20622A1FD0E1
:1015300090F83C20722A1BD090F83D20012A17D049
:10154000012280F83D20622290F83C40722389B14C
:10155000122C19D0222C18D0422C19D0322214E08F
:1015600090F83C20322A03D090F83C20522ADBD15C
:10157000022030BD122C05D0322C06D0522C07D0C0
:10158000222202E0422200E0522280F83C2001E0C8
:1015900080F83C300022026403685C6948F60175FB
:1015A0002C435C6180F83D2000680029416904D02B
:1015B00041F050014161002030BD41F00A01F9E7DE
:1015C00070B50446114A1248002113680588114875
:1015D000AB420CD1104B55182D7D5D54491CC9B23E
:1015E0000829F8D3012101700C48C17001E00021E5
:1015F000017000212046FFF789FF022804D12068EE
:10160000416941F00A01416170BD00005C020020A7
:101610004E0000203C0000207C0000208C010020B7
:1016200070B503689968490105D49968090102D425
:101630009968C9007ED590F83D10012907D0012195
:1016400080F83D109968490103D5002207E0022087
:1016500070BD9968090101D5012200E002224FF412
:10166000C07101EB02115C5804F001045C50036B83
:101670009C68ECB3066875582543DC685B6844EAEF
:10168000C3031D437550036B1C7C04F00F041C61E5
:101690004FF4C273046803EB0213E55825F00F05FD
:1016A000E5500468E558066B36693543E550036B31
:1016B0004FF4C47505EB02151C7DD3F8153044EAD0
:1016C000032304686351036B4FF4C67505EB0212E4
:1016D0001C7ED3F8193044EA03230468A35090F821
:1016E0003C20222A10D0322A10D0622A23D000E0D7
:1016F00001E012220BE004686558DE681B88354360
:1017000045EA43536350BEE7422200E0522280F88C
:101710003C200022026480F83D200268535843F0C8
:10172000010353500068416948F601721143416159
:10173000002070BD01E07222E9E7042180F83C102E
:101740000120F6E77047000010B590F82110002442
:10175000022903D00421816301243DE001680A6865
:1017600022F00E020A6001680A6822F001020A6093
:101770001A4A0168914201D1012121E0174A14322D
:10178000914201D110211BE0144A2832914201D12B
:10179000891515E0114A3C32914201D189140FE0BC
:1017A0000E4A5032914202D14FF4803108E00B4A88
:1017B0006432914202D14FF4801101E04FF0807108
:1017C000064A083A5160012180F82110002180F872
:1017D0002010416B01B18847204610BD080002402F
:1017E0002DE9F05FC16B0C6801680B68D0F840C050
:1017F000042202FA0CF2494DDFF824A1494E4A4F67
:10180000DFF828B1DFF828E122422CD05A072AD588
:101810000A68920603D40A6822F004020A6001688A
:10182000A94201D1042219E0514501D1402215E01D
:10183000B14202D14FF4806210E0B94202D14FF4BC
:1018400080420BE0594502D14FF4802206E07145F9
:1018500002D14FF4800201E04FF080622F49083935
:101860004A60C16A3BE04FF0020808FA0CF818EA37
:10187000040F4FF000094FF0010235D05FEA837882
:1018800032D50B689B0605D40B6823F00A030B6066
:1018900080F821200168A94201D1022219E05145B6
:1018A00001D1202215E0B14202D14FF4007210E0C4
:1018B000B94202D14FF400520BE0594502D14FF426
:1018C000003206E0714502D14FF4001201E04FF002
:1018D0000072124908394A6080F82090816A002914
:1018E0001AD0BDE8F05F0847082505FA0CF5254237
:1018F00012D01B0710D50B6823F00E030B6090F875
:101900004010C36B02FA01F15960826380F8212014
:1019100080F82090016BE2E7BDE8F09F08000240EC
:101920001C000240300002404400024058000240C7
:101930006C00024030B548B308C815491422194458
:10194000B1FBF2F18900C163124981630221417741
:101950001A6843F6F0718A43D0E900142143D0E9B4
:1019600002452C432143046921434469214384698E
:10197000214311431960002141628162C162016308
:101980004163012242770177084630BD012030BD16
:10199000F8FFFDBF0000024070B5044600F004F9F6
:1019A0000546601C02D004480078044400F0FCF8AE
:1019B000401BA042FAD370BDA00100207047000078
:1019C000044910B50A68024202D00860FFF7F6FF2A
:1019D00010BD0000140401402DE9F84FDFF890A17C
:1019E00000220AF1040B144601274FF00F090BF1F6
:1019F000040E00BF0B6807FA04F52B40AB4274D10C
:101A0000DFF870C14E68A6EB0C0866452BD00DDCE4
:101A1000032E34D005DC36B3012E19D0022E2FD17F
:101A20001BE0112E16D0122E2AD119E0B8F5881F0E
:101A300019D006DCB8F5803F15D0B8F5801F1FD14E
:101A400011E0B8F5001F0ED0B8F5041F18D10AE058
:101A5000CA6815E0CA68121D12E0CA6808320FE0B1
:101A6000CA680C320CE08A682AB1012A4FF00802D9
:101A700003D0456104E0042202E0056100E0002299
:101A8000FF2B01D8064601E000F104064FEA840569
:101A900001D9A5F12005D6F800C009FA05F82CEA0D
:101AA000080C02FA05F54CEA050CC6F800C04D68B2
:101AB000ED0057D5304DAE6946F00106AE61AD6917
:101AC00024F0030605F0010500952C4D06EB050CEE
:101AD000DCF80850A6074FEA167809FA08F6B5436D
:101AE000274EB04202D1002610E03BE0254EB04226
:101AF00001D101260AE0244EB04201D1022605E0C0
:101B0000224EB04201D1032600E0042606FA08F670
:101B10002E43CCF808604D68DAF80060ED035546B6
:101B200001D51E4300E09E432E604D68DBF8006047
:101B3000AD035D4601D51E4300E09E432E604D6817
:101B4000DEF80060ED02754601D51E4300E09E43BD
:101B50002E604D68AD020E4D2E6801D51E4300E08B
:101B60009E432E60641C102CFFF444AFBDE8F88F38
:101B7000000401400000111000100240000001406C
:101B800000080140000C0140001001400014014019
:101B90000C0401408068084000D0012070470AB161
:101BA000016170470904FBE7014880687047000045
:101BB000A001002090F83D00704700002DE9FF4F84
:101BC00081B099468B4604464FF00108FFF7ECFFC1
:101BD000054694F83D0020287BD1192301224D4968
:101BE0002046009501F0E3FE002872D194F83C00F5
:101BF00001286ED0012084F83C0020680168C907E4
:101C000003D1016841F0010101602068016821F4FD
:101C100000610160242084F83D00002626643E48CF
:101C2000E06220272068016841F4807101604B4622
:101C300000224FF001112046009501F0B8FE002867
:101C400058D121680BF0FE000861FFF7ADFF216855
:101C5000054648694969C0F3400094F83D20C1F346
:101C600080214FF0A00A12E0B9F1000F04D0FFF775
:101C70009BFF411B494501D984F83DA02168486973
:101C80004969C0F3400094F83D20C1F38021084326
:101C900001D1A02AE8D184F83D7020684169C94388
:101CA000890717D4016841F4007101602068416917
:101CB00080691923012217492046009501F077FE1B
:101CC000C0B984F83D7084F83C60002005B0BDE8E0
:101CD000F08F1DE0016841F40071016021686FF42C
:101CE00080604861192301220A492046009501F0CD
:101CF0005EFE08B10320E9E74146039808F10108B8
:101D000081428FD384F83D7084F83C600120DDE788
:101D10000220DBE7020010000000FFFF2DE9FF4F6B
:101D200083B09A46DDE9118793460446DDF840907A
:101D3000FFF73AFF054694F83D00202872D1192399
:101D400001227B492046009501F031FE0028F5D1A3
:101D500094F83C00012865D0012084F83C002068FC
:101D60000168C90703D1016841F0010101602068E1
:101D7000016821F400610160222084F83D004020C8
:101D800084F83E0000262664C4F82490A4F82A8033
:101D90006848E062608D2085CDE9007553465A465B
:101DA0002046049901F014FD28B1206C84F83C60B1
:101DB000042851D075E0208DDFF87C8168B10128BE
:101DC00014D00228206801681ED041F480610160AF
:101DD00020684169806900909BE0206841698169C1
:101DE0000091016841F40071016092E0206801688F
:101DF00021F48061016072B62068416981690091B7
:101E0000016841F400710AE041F40061016072B6BA
:101E10002068416981690091016821F48061016055
:101E200062B676E081E0032850D801280BD0022862
:101E30003B464FF0000241462046009512D001F08B
:101E4000B6FD70BB13E02A463946204601F024FE59
:101E500030B1206C202824D0012007B0BDE8F08FDD
:101E600020684BE001F0A3FDD8B972B61BE02068F2
:101E7000016821F48061016072B620680169606ABE
:101E8000421C62620170208D401E2085608D401EC4
:101E900060853B46002241462046009501F087FDC3
:101EA00008B10320D9E72068016841F4007101609E
:101EB00020680169606A421C62620170208D401EC8
:101EC0002085608D401E608562B6C9E72A46394686
:101ED000204601F0E1FD0028BBD120680169606A5D
:101EE000421C62620170208D401E2085608D401E64
:101EF000608520684169C94349070AD40169606A5D
:101F0000421C62620170208D401E2085608D401E43
:101F10006085208D002886D1202084F83D0084F83B
:101F20003E6084F83C60002097E7022095E70000BF
:101F3000020010000000FFFF040001002DE9FF4F28
:101F400083B09A46DDE9118793460446DDF8409058
:101F5000FFF72AFE064694F83D0020287DD119237C
:101F6000012243492046009601F021FD00287CD142
:101F700094F83C00012878D0012084F83C002068C7
:101F80000168C90703D1016841F0010101602068BF
:101F9000016821F400610160212084F83D004020A7
:101FA00084F83E0000252564C4F82490A4F82A8013
:101FB0003048E062608D2085CDE9007653465A4670
:101FC0002046049901F07CFC80B3206C84F83C50DE
:101FD000042848D008E032463946204601F08DFDFD
:101FE00030B1206C042839D0032007B0BDE8F08F51
:101FF000606A411C6162216800780861208D401E82
:1020000080B22085618D491E618521684A69D2436D
:1020100052070BD468B1606A421C626200780861A2
:10202000208D401E2085608D401E6085208D0028FB
:10203000D1D132463946204601F092FC0028D0D159
:1020400054F83D0B016841F400710160202004F850
:102050001E09E57765770020C7E706E0206801687C
:1020600041F4007101600120BFE70220BDE70000DC
:10207000020010000000FFFF02488168027811444E
:1020800081607047A0010020074810B5016841F049
:1020900010010160032000F073F8002000F006F842
:1020A00000F024F8002010BD0020024070B50D4D56
:1020B00004464FF47A712878B1FBF0F00A490968B8
:1020C000B1FBF0F000F0F0FC48B9102C07D2002270
:1020D0002146501E00F034F800206C6070BD0120D5
:1020E00070BD0000A0010020980100200C4808B538
:1020F000816941F001018161816901F00101009173
:10210000C16941F08051C161C06900F08050009008
:102110000448416821F0E06141F00071416008BD70
:10212000001002400000014000F01F020121914018
:102130004009800000F1E020C0F800117047000065
:10214000F0B40E4B1B680C46C3F30223C3F1070522
:10215000042D00D90425191D072901D2002300E010
:10216000DB1E012606FA05F1491E214099409E40DA
:10217000761E16403143F0BC02F03DB80CED00E095
:10218000064900F0070208684FF6FF03184040EACE
:102190000220034A10430860704700000CED00E085
:1021A0000000FA052DE9F84305460078354CC007D4
:1021B00054D0E0690026C00008D4E06940F08050A7
:1021C000E061E069012600F0805000902E4801682F
:1021D000C90512D40168804641F480710160FFF79F
:1021E000E3FC074605E000BFFFF7DEFCC01B6428E8
:1021F00023D8D8F80000C005F6D5206A10F4407046
:1022000021D0A98801F4407181421CD0206A1F4965
:10221000012220F440700A6000220A602062C00798
:1022200011D0FFF7C1FC074641F2883808E000BF33
:10223000FFF7BAFCC11B414502D90320BDE8F88372
:10224000206A8007F4D5206A696820F4407008434A
:1022500020621EB1E06920F08050E061287880079C
:1022600005D56068A96820F440400843606028787C
:10227000C00605D56068E96820F480000843606006
:102280000020DBE7001002400070004040044242A2
:102290002DE9F047DFF83C8105460E46D8F80000EE
:1022A00000F00700B0420CD2D8F8001021F007016E
:1022B0003143C8F80010D8F8000000F00700B04221
:1022C00063D12878444C800705D56068A96820F060
:1022D000F000084360602878C00745D0686801288E
:1022E00016D02168022816D0890700294DDA6168C6
:1022F00021F0030101436160FFF756FC696807465E
:1023000041F2883001290FD00229814619D027E0F7
:1023100021688903E9E78901E7E700BFFFF744FC8B
:10232000C11B494501D918E081466068C0F38100AE
:102330000128F3D118E000BFFFF736FCC11B494567
:102340000BD86068C0F381000228F5D10CE000BF13
:10235000FFF72AFCC11B494502D90320BDE8F087DD
:10236000606810F00C0FF3D1D8F80010404601F06F
:102370000701B1420BD9016821F007013143016027
:10238000006800F00700B04201D00120E6E728789D
:10239000400705D56068E96820F4E06008436060A4
:1023A0002878000706D56068296920F4605040EA63
:1023B000C100606000F036F86168084AC1F303119B
:1023C000515CC840064908600020FFF76FFE0020FE
:1023D000C4E700000020024000100240045800083A
:1023E000980100200448054900684968044AC1F37F
:1023F0000221515CC8407047980100200010024043
:10240000145800080448054900684968044AC1F3A3
:10241000C221515CC8407047980100200010024062
:102420001458000812A185B00FC98DE80F0014A040
:10243000144A006804905168134801F00C03042BFF
:1024400010D0082B0ED1C1F38343C9031DF803003C
:102450000AD5516804AAC1F34041515C0A4A50436D
:10246000B0FBF1F005B0704708494843FAE70000B7
:1024700002030405060708090A0B0C0D0E0F1010C5
:10248000010200000010024000127A0000093D0025
:102490002DE9F84F04460078B94DC00748D0686868
:1024A000C0F38100012807D06868C0F381000228CA
:1024B00009D16868C00306D52868800338D56068EC
:1024C00000286FD034E06068B0F5803F0BD010B1C9
:1024D000B0F5A02F11D0286820F48030286028683B
:1024E00020F4802002E0286840F480302860606892
:1024F00088B1FFF759FB064609E0286840F48020C0
:102500002860F0E7FFF750FB801B642875D8286827
:102510008003F7D50CE0FFF747FB064605E000BF58
:10252000FFF742FB801B6428F0D828688003F7D4AB
:102530002078944E80074FF001094FF000083BD5FA
:10254000686810F00C0F07D06868C0F3810002289B
:1025500009D16868C00306D42868800714D52069AB
:1025600001281FD110E02069B0B1C6F80090FFF734
:102570001BFB074605E000BFFFF716FBC01B022848
:10258000C4D828688007F7D52868616920F0F8006A
:1025900040EAC10028600FE0C6F80080FFF704FBA6
:1025A000074606E0E9E000BFFFF7FEFAC01B02287D
:1025B00023D828688007F7D4207800072CD57248E4
:1025C000A169D9B1C0F80090FFF7EEFA074604E020
:1025D000FFF7EAFAC01B02280FD8686A8007F7D510
:1025E0006A484FF4FA510068B0FBF1F0009000BF68
:1025F0000098411E0091FAD20EE080E0C0F8008001
:10260000FFF7D2FA074604E0FFF7CEFAC01B022814
:1026100075D8686A8007F7D42078400760D5E869E4
:102620000027C00008D4E86940F08050E861E869FC
:10263000012700F08050009055480168C90513D467
:102640000168834641F480710160FFF7ADFA82466C
:1026500006E000BFFFF7A8FAA0EB0A0064284ED8F6
:10266000DBF80000C005F5D5E06801280AD008B104
:10267000052813D0286A20F001002862286A20F07B
:10268000040002E0286A40F001002862E06841F29C
:10269000883B98B1FFF788FA82460BE0286A40F041
:1026A00004002862EEE700BFFFF77EFAA0EB0A0104
:1026B00059455AD8286A8007F6D50CE0FFF774FA16
:1026C000824605E0FFF770FAA0EB0A0159454CD8A5
:1026D000286A8007F6D41FB1E86920F08050E861CD
:1026E000E06988B36968C1F38101022945D00228F5
:1026F000C6F8608004D0FFF757FA044638E034E0AB
:10270000FFF752FA074604E0FFF74EFAC01B022813
:102710002BD828688001F7D4206AB0F5803F05D116
:102720006868A16820F4003008436860D4E90801B3
:102730000843696821F4741108436860C6F8609022
:10274000FFF732FA044606E015E000BFFFF72CFA67
:10275000001B022809D828688001F7D50BE000BFCC
:10276000FFF722FA001B022802D90320BDE8F88FE8
:1027700028688001F4D40020F8E70120F6E7000083
:1027800000100240000042428004424298010020B2
:102790000070004070B5040005D00025A56294F8D3
:1027A000510010B104E0012070BD204600F034F863
:1027B000022084F851002068016821F04001016086
:1027C000D4E901010843D4E90312114308436169C4
:1027D0000843218B01F400710843E1690843216A31
:1027E0000843A16A084321680860A069042101EA3E
:1027F0001040616A0843216848602168E06A086106
:102800002068C16921F40061C1616565012084F817
:102810005100002070BD000030B585B00024009448
:10282000019402940394254D036825480221012256
:10283000AB421CD1C36943F48043C361C36903F451
:1028400080430493836943F00803836180691D4DCD
:1028500000F0080004904FF42040CDE900010392FD
:1028600069462846FFF7B8F84FF480401CE0164D43
:10287000AB4220D1836943F480538361836903F4BD
:1028800080530493836943F00403836180690F4D8F
:1028900000F004000490A020CDE9000103926946F5
:1028A0002846FFF799F84020CDE9000469462846FC
:1028B0000294FFF791F805B030BD000000380040E9
:1028C00000100240000C01400030014000080140AF
:1028D0002DE9F84F044690F8500000260A9F9A46CA
:1028E00093460D464FF0010801280ED0012084F8D0
:1028F0005000FFF759F9814694F8510061680128AA
:102900000CD0B1F5827F07D102E00220BDE8F88F3C
:10291000A16809B9042801D00226BDE055B1BBF178
:10292000000F07D0BAF1000F04D094F8510001282D
:1029300002D004E00126AFE0052084F85100002019
:102940006065C4F838B0A4F83EA0A4F83CA02563A4
:10295000A4F836A0A4F834A020646064206801685C
:10296000490603D4016841F040010160E068B0F518
:10297000006F606804D0E8B3E08E01283BD06AE0C5
:1029800010B1E08E01282ED1216835F8020BC86005
:10299000E08E401EE08626E0B8F1000F0DD0E08EFC
:1029A00058B120688168890707D535F8021BC160D6
:1029B000E08E401EE0864FF00008E08F58B120689E
:1029C0008168C90707D0C0682BF8020BE08F401E52
:1029D000E0874FF00108781C05D0FFF7E5F8A0EB81
:1029E0000900B84246D2E08E0028D5D1E08F0028F9
:1029F000D2D136E0FFE7216815F8010B0873E08EAD
:102A0000401EE08627E000BFB8F1000F0DD0E08E39
:102A100058B120688168890707D515F8011B017333
:102A2000E08E401EE0864FF00008E08F58B120682D
:102A30008168C90707D0C0680BF8010BE08F401E02
:102A4000E0874FF00108781C05D0FFF7ADF8A0EB48
:102A50000900B8420ED2E08E0028D5D1E08F0028C0
:102A6000D2D13B46012202212046CDF8009001F050
:102A700095FC08B103260FE04A463946204601F08E
:102A800021FC18B101262020606505E0A06818B976
:102A90002068C16880680090012084F851000020FF
:102AA00084F85000304631E710B5401EB0F1807F09
:102AB00001D3012010BD4FF0E02460610F216017A9
:102AC00001F099FB0020A06107202061002010BDCB
:102AD0007047704730B590F83C20012A20D0012281
:102AE00080F83C20022380F83D3003685C6824F0C5
:102AF00070045C6003685C680D682C435C6003686C
:102B00009C6824F080049C6003689C6849680C43BE
:102B10009C6080F83D20002180F83C10084630BDC4
:102B2000022030BD10B5040003D094F83D0010B170
:102B300007E0012010BD002084F83C00204600F092
:102B40000DF8022084F83D00211D206801F03AFEB6
:102B5000012084F83D00002010BD000008B5124A95
:102B600001681248914207D1816941F40061816195
:102B7000806900F4006009E00D4A914208D1C16902
:102B800041F00201C161C06900F00200009008BD7F
:102B9000084A9142FBD1C16941F00401C161C06999
:102BA00000F00400F2E70000002C01400010024099
:102BB00000040040000800400168CA6842F00102B9
:102BC000CA600068016841F001010160002070479F
:102BD0000168CA6822F00102CA600068016A41F215
:102BE0001112114207D1016A9210114203D10168FA
:102BF00021F0010101600020704770B5044690F893
:102C00003C00012817D0012584F83C50022084F8AC
:102C10003D002068826822F0770222F47F428260C1
:102C20000868502837D00DDC202859D005DC88B33F
:102C3000102841D151E0022070BD302853D04028E7
:102C40003AD13FE060282ED070280BD0B0F5805FDD
:102C500003D0B0F5005F2FD110E02068816821F02B
:102C6000070115E0CB68D1E90121206801F0EBFDF7
:102C70002168886840F0770088601DE0CB68D1E962
:102C80000121206801F0DFFD2068816841F4804166
:102C9000816011E01EE0CA684968206801F088FE82
:102CA0005021206806E0CA684968206801F091FE5A
:102CB0006021206801F0D1FD84F83D50002084F8A7
:102CC0003C0070BDCA684968206801F071FE40216F
:102CD0002068EFE700212068ECE710212068E9E791
:102CE00020212068E6E730212068E3E72DE9F04164
:102CF0000D46040003D094F83D0018B108E001200F
:102D0000BDE8F081002084F83C00204600F03AF84D
:102D1000022084F83D002068816821F0070181606D
:102D2000211D206801F04EFD226890689169166AA5
:102D30002B68AF69034340F20330814341EA072126
:102D4000A868EF6908434FF6FC418843E96840EA08
:102D50000720014328692F6A000140EA0730084331
:102D600069686D6926F0AA0646EA0515294393604D
:102D70002268906120680162012084F83D000020F3
:102D8000BEE7000000B585B00021009101910291DD
:102D900003910068B0F1804F16D10C48C16941F031
:102DA0000101C161C16901F001010491816941F032
:102DB000040181618069694600F0040004900320E9
:102DC00000900348FEF708FE05B000BD0010024069
:102DD0000008014010B50446006891B1042904D0F0
:102DE0000122002101F024FD206801225FF004018E
:102DF00001F01EFD2068016841F001010160002022
:102E000010BD01220021F3E710B504460068D9B1D6
:102E1000042904D00022114601F00AFD2068002296
:102E20005FF0040101F004FD2068016A41F2111213
:102E3000114207D1016A9210114203D1016821F0B9
:102E400001010160002010BD00221146EAE7704731
:102E500070B50446006801694FF00005C943890751
:102E600015D4C168C943890711D4E91E0161012045
:102E70002077206880698007204602D0FFF7E7FFAF
:102E800004E000F0EBF8204600F092F92577206886
:102E90000169C943490717D4C168C943490713D415
:102EA0006FF004010161022020772068806910F42E
:102EB000407F204602D0FFF7CAFF04E000F0CEF8C2
:102EC000204600F075F9257720680169C943090794
:102ED00016D4C168C943090712D46FF00801016113
:102EE000042020772068C0698007204602D0FFF7C1
:102EF000AEFF04E000F0B2F8204600F059F9257763
:102F000020680169C943C90617D4C168C943C90605
:102F100013D46FF010010161082020772068C06988
:102F200010F4407F204602D0FFF791FF04E000F04C
:102F300095F8204600F03CF9257720680169C943DF
:102F4000C90708D1C168C943C90704D1891E0161F5
:102F5000204600F02FF920680169C943090609D409
:102F6000C168C943090605D46FF08001016120469C
:102F7000FFF7AEFD20680169C943490609D4C1685D
:102F8000C943490605D46FF040010161204600F0B5
:102F900073F920680169C94389060BD4C168C94324
:102FA000890607D46FF0200101612046BDE870401A
:102FB000FFF78FBD70BD000000B585B00021009106
:102FC00001910291039100680B49884212D10B488C
:102FD000816941F0080181618069694600F008005B
:102FE00004904020009002200190012003900448AA
:102FF000FEF7F2FC05B000BD0008004000100240E2
:10300000000C014070B5044690F83C0001280DD03A
:10301000012584F83C50022084F83D0042B1042A86
:103020000AD0082A0CD00C2A11D10DE0022070BD64
:10303000206801F01BFC0AE0206801F03FFC06E07C
:10304000206801F067FC02E0206801F08FFC84F842
:103050003D50002084F83C0070BD00000948016824
:10306000486A094A1288104480B2486307490868D0
:10307000401C0860064909784900B0FBF1F0054999
:103080000880704708070020140000200C00002072
:103090009C0100200800002010B5040003D094F823
:1030A0003D0010B107E0012010BD002084F83C0075
:1030B000204600F00CF8022084F83D00211D206815
:1030C00001F080FB012084F83D00002010BD704716
:1030D00010B50268044631B1042908D008291DD072
:1030E0000C2908D11EE0D06840F0020002E0D06850
:1030F00040F00400D0600122206801F099FB0B49E8
:103100002068884203D1416C41F400414164206849
:10311000016841F001010160002010BDD06840F05D
:103120000800E7E7D06840F01000E3E7002C01401A
:1031300010B50268044631B1042908D008292CD002
:103140000C2908D12DE0D06820F0020002E0D06800
:1031500020F00400D0600022206801F069FB134BCE
:1031600041F2111220689110984209D1036A13426A
:1031700006D1036A0B4203D1436C23F4004343643A
:103180002068036A134206D1026A0A4203D1016829
:1031900021F001010160002010BDD06820F008007E
:1031A000D8E7D06820F01000D4E70000002C0140E0
:1031B000704700002DE9F04126490546006809687E
:1031C00001260027244C884228D1E088401C80B288
:1031D000E0802178B0FBF1F201FB120109B91F492F
:1031E0000E706178B0FBF1F201FB120109B91C49C4
:1031F0000E701C490978012901D0022907D1A17854
:10320000B0FBF1F201FB120109B917490E704FF63C
:10321000FA71884200D9E780FDF716FE1349286845
:103220000968884208D10068C1061148416A01D581
:10323000491E00E0491C41620E492868096888421D
:1032400006D1A068411CA160042801D32671A760A3
:10325000BDE8F081C80600208C0100208801002014
:1032600089010020440000204B0000208806002037
:10327000B0010020480600207047704770B5026812
:1032800004461068D168536910F00F0F50D003F056
:10329000010501F4907635435DD0C20705D0CA051B
:1032A00003D5E26B42F00102E263420705D5DA077B
:1032B00003D0E26B42F00202E263820705D5DA072F
:1032C00003D0E26B42F00402E263020705D5DA079D
:1032D00003D0E26B42F00802E263E26B002A33D0D3
:1032E000800604D5880602D5204601F03FFC206800
:1032F0004069E16BC0F38010090700D428B3204671
:1033000001F026FC2068416949061AD5416921F07F
:1033100040014161606BA0B11B494163606BFEF7E6
:1033200013FA002810D0606B416BBDE8704008476D
:10333000830610D58B060ED52046BDE8704001F0FF
:1033400015BC2046FFF799FF70BD2046FFF795FF9B
:103350000020E06370BD030606D50B0604D52046A9
:10336000BDE8704001F006BD4006F3D54806F1D532
:10337000D168204621F04001D160202184F8391025
:1033800000F083F970BD0000414B000870B50400E7
:1033900004D094F83900002510B106E0012070BD7A
:1033A00084F83850204600F023F8242084F83900AF
:1033B0002068C16821F40051C160204601F022FC60
:1033C0002068016921F4904101612068416921F080
:1033D0002A0141612068C16841F40051C160E56380
:1033E000202084F8390084F83A00002070BD0000E5
:1033F00070B586B0002506460095019502950395A7
:1034000000681F49884238D11E49886940F48040CD
:103410008861886900F480400490886940F0040065
:1034200088618869184C00F00400049048150090E9
:10343000022001900120039069462046FEF7CCFA55
:103440002015CDE90005694620460295FEF7C4FA2D
:103450000F4C0E4820601020C4E901058020C4E90B
:10346000030540016561C4E906502046FEF762FA93
:1034700008B1FDF7A5FD3463666206B070BD0000BB
:1034800000380140001002400008014044000240A2
:103490008807002090F83A30202B22D1F9B1F2B100
:1034A00090F83830012B1CD081628285C2850021C2
:1034B000C163222280F83A2080F838100168CA6877
:1034C00042F48072CA6001684A6942F001024A61AE
:1034D0000068C16841F02001C160002070470120F0
:1034E00070470220704700002DE9F047304900681E
:1034F0000968884259D12F48304C2F4A01782088DA
:1035000000260A2911540BD0401C80B22080FF28CD
:1035100000D92680BDE8F0472649254801F09ABC2D
:103520004FF4807A52462649234800F0B0F82448E8
:103530002449254FC5780D700178DFF89090FF2958
:1035400002D0EA2914D017E080464078FF2813D132
:1035500051461E48FCF703FE002041464A4603E060
:103560000B5C1354401CC0B2A842F9D301201AE0EE
:1035700080464078EB2806D03E70268051461048A1
:10358000FCF7EDFDC6E751461048FCF7E8FD0020CA
:103590004246494604E013181B790B54401CC0B244
:1035A000A842F8D302203870E7E7BDE8F0870000B2
:1035B00048070020870100208C02002084010020A1
:1035C0008B030020860100203D00002084000020A5
:1035D0002DE9F843044690F839001F4616460D467B
:1035E000202850D1A5B19EB194F8380001284AD0C6
:1035F000012084F838004FF00008C4F83C802120F6
:1036000084F83900FEF7D0FAA6848146E68426E0E5
:103610000120BDE8F883E08C401EE084A0684B46A2
:10362000B0F5805F4FF000024FF080012046009718
:1036300003D001F0D0FBE8B90DE001F0CCFBC8B934
:1036400028882168C0F308004860206908B16D1C13
:1036500005E0AD1C03E0216815F8010B4860E08C23
:103660000028D8D14B46002240212046009701F087
:10367000B2FB08B10320CCE7202084F8390084F89D
:1036800038800020C5E70220C3E77047FEE72DE938
:10369000F04117468846064600241DE0305DFCF7E1
:1036A00051FDC5B230194078FCF74CFDC0B2392D40
:1036B00001D9373D00E0303DE9B2392801D937382A
:1036C00000E03038C0B204EBD47240EA011008EBDD
:1036D0006201A41C087024B2BC42DFDBBDE8F081AB
:1036E0001FB54FF47A74012303AA8DE81C000A4623
:1036F000014610230748FEF711FB040003D00146E2
:1037000005A001F0AFFB094804709DF80C0004B05F
:1037100010BD0000440500200D0A20726561642080
:103720007374617475733A25640000000000002012
:1037300077B583B005464FF47A73012205A88DE86A
:103740000D000A46102329461048FEF7F7FB040037
:1037500003D001460EA001F085FB124804700B480F
:10376000FEF728FA2028FAD14FF4967632463346EF
:1037700029460648FEF722FA0328F7D00348FEF749
:1037800019FA2028FAD106B0204670BD4405002061
:103790000D0A2072656164207374617475733A2533
:1037A000640000000000002001684A69D24352050D
:1037B0000CD46FF480624A6104210164002140F856
:1037C000301F202242730173012070470020704790
:1037D0002DE9F84F0446006889460B9D016898461C
:1037E000174641F4806101602068016841F48071EE
:1037F000016000954FF0011A0022514620460A9BB5
:1038000000F0D5F8F0BB216809F0FE0008610AF16C
:10381000010B2B46594620460A9A00F0F9F818B1D8
:10382000206C042812D03AE0206841698069009039
:103830002A4620460A9900F060F950B1206C04280D
:103840002DD12068016841F4007101600120BDE8BC
:10385000F88FFEB2B8F1010F09D02168380A08616B
:103860002A4620460A9900F048F90028E6D1206847
:1038700006612A4620460A9900F03FF90028DDD16A
:10388000206800E00BE0016841F480710160009560
:103890000022514620460A9B00F089F808B1032017
:1038A000D5E7216809F0FF0040F0010008612B46D0
:1038B000594620460A9A00F0ABF80028B0D1C6E776
:1038C0002DE9F843044600680D46DDE908970168D4
:1038D0009846164641F4807101604B4600224FF035
:1038E00001112046009700F062F8E8B9216805F060
:1038F000FE0008613B464A461849204600F088F819
:1039000028B1206C04280FD10120BDE8F88320687D
:103910004169806900903A464946204600F0EDF83A
:1039200020B1206C042813D00320EEE7F5B2B8F1E3
:10393000010F09D02168300A08613A4649462046FD
:1039400000F0DBF80028ECD1206805610020DCE7FE
:103950002068016841F400710160D5E702000100B0
:1039600070B516460D4604461AE02046FFF71CFFC8
:1039700008B1012070BD681C12D025B1FEF714F902
:10398000801BA8420CD954F8400F40F0200044F8A6
:10399000100900202060202161732073032070BD76
:1039A00020684069C0434007DFD4002070BD2DE986
:1039B000F0471E4690460D460446C1F30747DDF822
:1039C000209012E0701C10D02EB1FEF7EDF8A0EBA5
:1039D0000900B04209D9002044F8300F202161735A
:1039E000A07320730320BDE8F0872068012F0AD060
:1039F000806925EA00000004000C06D00021414542
:103A0000E0D00020EFE74069F3E70121F7E700008D
:103A10002DE9F0479A4691460D46044600264FF0A0
:103A20002008C1F307472AE020684069C0434005E9
:103A300012D42068016841F40071016021686FF4BC
:103A40008060486104202064266384F83D8084F807
:103A50003C600120BDE8F087B9F1FF3F0FD0B9F11C
:103A6000000F05D0FEF7A0F8A0EB0A01494506D9E2
:103A700044F8306F84F80D8026730320EAE720684D
:103A8000012F07D0D0F8180025EA00000004000C30
:103A9000E0D0C9E74069F7E72DE9F04100259046FD
:103AA0000E460446202721E04069C043C0060CD4DE
:103AB00021686FF0100048612564256384F83D702B
:103AC00084F83C500120BDE8F0812EB1FEF76CF87F
:103AD000A0EB0800B04209D954F8400F40F0200094
:103AE00044F80409677025700320ECE720684169F9
:103AF000C9434906D8D40020E5E770B516460D46FF
:103B000004461AE02046FFF74FFE08B1012070BDC1
:103B1000681C12D025B1FEF747F8801BA8420CD9CB
:103B200054F8400F40F0200044F8100900202060B5
:103B3000202161732073032070BD20684069C04359
:103B40000006DFD4002070BD2DE9F04714460D4675
:103B5000FCF760FD2946FCF762FB184905468842E0
:103B600003DA1748854200D80025A068FCF774FDE9
:103B7000D4E90823FCF76DFCD4F8049080468A460B
:103B80004846FCF769FDD4E90623FCF762FC0646CB
:103B90000F462846FCF760FDD4E90423FCF759FCE6
:103BA00032463B46FCF74FFC42465346FCF7AAFB25
:103BB000FCF765FDC4E90159BDE8F087CDCC4C3F69
:103BC000CDCC4CBF10B5FCF70DFF00F061FDBDE89A
:103BD000104000F001B800002DE9F047DFF8AC809C
:103BE0004FF4807949464046FDF7D4FF0025284E22
:103BF000284F294C01280CD04FF400794946404603
:103C0000FDF7C8FF012824D02573E5742575BDE8AC
:103C1000F0870A20FDF7C0FE49464046FDF7BAFF8F
:103C20000128F4D1804684F80C80207D012800D141
:103C300035603068FCF7EEFC3968FCF747FDE6D2EA
:103C4000E07C0128E3D13D603560A56284F81480F2
:103C5000DDE70A20FDF7A0FE49464046FDF79AFF42
:103C60000128D4D1022020733068FCF7D3FC3968D6
:103C7000FCF722FDCBD2E07C0128C8D13068054694
:103C8000FCF7C8FC3860A562C1E70000000C0140E9
:103C90000400002024000020380000200F4810B548
:103CA0000D4901600821416000214FF480228160AC
:103CB000C0E90312D200C0E905210122C161C0E9B7
:103CC00008128162C162FDF755FB002803D0BDE8F0
:103CD0001040FDF775B910BD0064004000050020DC
:103CE000054808B5416941F001014161406900F0B2
:103CF0000100009008BD000000100240F0B585B042
:103D0000264800240294816941F020018161816983
:103D100001F020010491816941F004018161816910
:103D200001F004010491816941F008018161806919
:103D3000012500F0080004904FF48050CDE9000503
:103D4000174E694630460395FDF746FE280200905F
:103D50001448CDE90104144F69463846FDF73CFE8E
:103D60004FF44670CDE90004694630460294FDF7F1
:103D700033FEA020CDE900050220CDE902406946CE
:103D80003046FDF729FE4FF42040CDE90004694696
:103D90003846FDF721FE05B0F0BD000000100240DE
:103DA000000C0140000011100008014010B5002275
:103DB00002212520FEF7C4F92520FEF7B5F90022DF
:103DC00001211720FEF7BCF91720FEF7ADF90022FC
:103DD00011461E20FEF7B4F91E20FEF7A5F90022B9
:103DE00005211C20FEF7ACF91C20FEF79DF90022EE
:103DF00003211D20FEF7A4F91D20FEF795F90022EE
:103E000005210E20FEF79CF90E20FEF78DF9002209
:103E100004211920FEF794F91920FEF785F90022F4
:103E200007211420FEF78CF91420FEF77DF90022FB
:103E300006210B20FEF784F9BDE810400B20FEF7A9
:103E400073B90000104810B50E4901604FF482713B
:103E50004160002102228160C0E903120122426117
:103E6000520282613822C0E90721416281620A213F
:103E7000C162FEF78FFC002803D0BDE81040FDF7BB
:103E80009FB810BD00380040F005002010B586B086
:103E90000024174800940194029403940494134955
:103EA000059401604721C0E901144CF25031C0E98A
:103EB000031444618461FEF735FE08B1FDF780F814
:103EC0004FF48050009069460948FEF796FE08B10D
:103ED000FDF776F8049404A905480594FEF7FAFD69
:103EE000002801D0FDF76CF806B010BD002C014091
:103EF0004806002010B58CB024216846FCF72FF945
:103F00000024164809944FF080410A94C0E9001437
:103F10004FF6FF71C0E90241046184610320CDE9DD
:103F200000040120CDE9020405210491CDE90540FA
:103F3000CDE9074169460948FEF7D8FE08B1FDF70B
:103F40003FF8099409A905480A94FEF7C3FD002823
:103F500001D0FDF735F80CB010BD00008806002038
:103F600010B586B00024174800940194029403947D
:103F700004941349059401602321C0E9011444F617
:103F80002061C0E903148461FEF7CCFD08B1FDF7A0
:103F900017F84FF48050009069460A48FEF72DFE4E
:103FA00008B1FDF70DF8049404A906480594FEF73E
:103FB00091FD002801D0FDF703F806B010BD000008
:103FC00000040040C806002010B58EB000240794FD
:103FD000089409940A940B941C2168460C94FCF7ED
:103FE000BEF81F481D4901602321C0E901144FF6A6
:103FF000FF71C0E903148461FEF794FD08B1FCF77A
:10400000DFFF4FF48050079007A91548FEF7F5FD34
:1040100008B1FCF7D5FF1248FFF73EF808B1FCF7EE
:10402000CFFF0B940BA90E480C94FEF753FD08B17B
:10403000FCF7C6FF302000904FF6FA70CDE901047E
:104040000022694606480494FEF7DCFF08B1FCF73D
:10405000B7FF0348FEF7B0FF0EB010BD00080040E8
:10406000080700200C4810B50A4901604FF4E131FF
:104070004160002181600C22C160C0E904128161AD
:10408000C161FFF783F9002803D0BDE81040FCF7B9
:1040900097BF10BD0038014048070020FEE7000030
:1040A0002DE9F04188460646484C4FF07C5500F01B
:1040B00039FA3046616AFCF7AFF82946FCF706FB8F
:1040C00004D22946606AFCF755F80DE04FF03F47EF
:1040D0003046616AFCF7A0F83946FCF7EDFA05D2E4
:1040E0002946606AFCF798F8606200E0666238482A
:1040F0000368384823624068E061002800DA4042E3
:10410000E0612189344A0844208141461846FFF77E
:104110001BFD3249E060884201D3012200E0002209
:104120002270884201D380F00040E060616AB1F5FE
:10413000000F03DABDE8F04100F0CCB9FCF7C6FA95
:1041400001D8606AE060244AE1682832E069FFF73C
:10415000FBFC2169FCF70EF82149224E054620613F
:10416000884202DA204860620AE03078FCF75BFAA5
:104170002946FCF7A1FA03D23078FCF754FA206103
:10418000E069401CFCF746FA01462069FCF77CF820
:104190001649884202DD4FF07E502061E0888000A1
:1041A000FCF741FA05461248C82100784843FCF75D
:1041B0003AFA2946FCF768F82169FCF733F801461A
:1041C0002078BDE8F04100F059B90000100000204F
:1041D00004000020B0010020F001002000008080D9
:1041E000CDCCCC3D450000200000A0400000204187
:1041F0009C01002070470907090E002806DA00F02C
:104200000F0000F1E02080F8141D704700F1E0205D
:1042100080F80014704700001348124A1049C0E9A2
:104220000412134A1149C0E90612C0E9081200211C
:104230004160104A81600260C160104B28300E4A14
:10424000C0E904230E4B094AC0E906230D4B416027
:10425000034A8160C0E908230B4A0260C1607047CD
:104260009A9999999999B93FF00100207B14AE472A
:10427000E17A743F00004842B81E85EB51B8BE3F5A
:10428000E17A943F9999A93F0000E0407047FF22EE
:10429000202903D8C840CA40521E904370470000EE
:1042A000074A002108461160516091601161D16197
:1042B0005318491CC9B218750829F9D37047000072
:1042C0005C02002038B50B46009204460022802193
:1042D00000F064F8002804D0606D40F020006065B4
:1042E000032038BD2DE9FE430446000C8DF8040080
:1042F000200A8DF805000122DFF870800D461703B3
:104300008DF8064039464046FDF749FC0120FDF78F
:1043100043FB002239464046FDF741FC6FF07F40E9
:104320000090032302AA01A91148FEF7D1FA06461C
:104330009DF808009DF80910000440EA01209DF84E
:104340000A1001220843286039464046FDF727FC41
:104350000520FDF721FB214606A000F083FD0AA001
:10436000296800F07FFD3046BDE8FE83000C014067
:10437000F00500200D0A2053656E642044617461CD
:1043800020307825780000000D0A205265637620E1
:104390004461746120307825780000002DE9F041F7
:1043A0001D4617460E460446DDF8188035E0681CA9
:1043B00033D02DB1FDF7F8FBA0EB0800A8422CD3B9
:1043C0002068416821F0E00141606068B0F5827FBB
:1043D0000BD1A068B0F5004F02D0B0F5806F04D1CA
:1043E0002068016821F040010160A06AB0F5005F1B
:1043F0000AD1206801684DF6FF7211400160206803
:10440000016841F400510160012084F8510000204E
:1044100084F850000320BDE8F0812068806836EA07
:10442000000004D00020B842C1D10020F3E70120F1
:10443000F9E7000006480178064829B1012905D1AD
:1044400000228021FDF7ABBB0122FAE77047000094
:1044500042000020000C014006480178064829B1BE
:10446000012905D101228021FDF799BB0022FAE73D
:104470007047000042000020000C014010B50C46BF
:10448000B1F5000F03DABDE8104000F023B80128B1
:1044900019D0FFF7CFFF0D4841F270710068B0FBF3
:1044A000F1F0FCF7C0F82146FBF7EEFEFCF7C0F890
:1044B00084B200F023F8064861081E29818001D2E9
:1044C0001E21818010BDFFF7C7FFE4E7980100209F
:1044D0001000002010B5002220210548FDF75FFBE9
:1044E00000210448FEF724FE03490120087010BD96
:1044F000000C0140080700208301002010B50022B5
:1045000020210548FDF74BFB00210448FEF7E0FDA4
:1045100003490020087010BD000C0140080700206E
:104520008301002010B5074CA078002809D1002194
:104530000548FEF7CDFDFFF7E1FF0120A070002048
:10454000607010BD100000200807002070470000B8
:1045500070B50C4CA079012812D1FCF7CFFBFCF709
:10456000FBFB0948002580F83D50FDF759F804F1A0
:10457000440600223078072100F008F83070A57159
:1045800070BD0000380000200005002010B5044672
:1045900001208840C0B2082907D812B1012A02D0F0
:1045A00006E0844304E0044302E002A000F05AFC69
:1045B000204610BD0D0A2076616C7565206572720B
:1045C0006F720D0A00000000FDF756BD30B593B0C4
:1045D00028216846FBF7C3FD14210AA8FBF7BFFD9D
:1045E00000250F9509200121109500901195129535
:1045F0004FF4803004910691CDE901050224CDE904
:1046000007404FF4E01009906846FDF741FF00B104
:10461000FEE70AA90F2081E831004FF48060CDE960
:104620000D0502210AA8FDF733FE00B1FEE74FF4A5
:10463000004011900F940FA8FDF7B4FD002800D0A2
:10464000FEE713B030BD00000D48016841F00101E4
:10465000016041680B4A1140416001680A4A1140FB
:104660000160016821F480210160416821F4FE01AC
:1046700041604FF41F0181600449C0030860704726
:10468000001002400000FFF8FFFFF6FE08ED00E01A
:1046900010B5FCF733FA00F0F1F9FFF759FFFCF71A
:1046A00017FC0E4C2078012812D1A07801280FD1D8
:1046B0002079012802D06079022803D1E07808B976
:1046C000607840B106480068FBF7A4FF0549086020
:1046D0000120A07310BDFCF757FBF9E7380000205C
:1046E00004000020240000200A4A10B512686FF070
:1046F000010111610128074807D0FEF769FA002877
:1047000006D0BDE81040FCF75BBCFEF755FAF6E7B3
:1047100010BD0000480600200148FEF799BB0000CC
:1047200048060020114A10B5126800215162012884
:104730000E484FF018010ED0FEF766FB08B1FCF7EB
:104740003FFC18210948FEF75FFB00280DD0BDE8AB
:104750001040FCF735BCFEF73DFB08B1FCF730FC20
:1047600018210248FEF736FBEFE710BD880600204F
:104770000148FEF76DBB0000880600200148FEF7E7
:1047800067BB0000C80600200A4A10B512686FF027
:10479000010111610128074807D0FEF719FA002826
:1047A00006D0BDE81040FCF70BBCFEF705FAF6E7B3
:1047B00010BD0000C80600200148FEF749BB0000FC
:1047C00008070020F0B50268164B174C174D4FF044
:1047D0008047984205D0B84203D0A04201D0A842F9
:1047E00003D122F070064A683243984205D0B8429D
:1047F00003D0A04201D0A84203D122F44074CA6879
:10480000224322F080044A69224302608A68C2621D
:104810000A688262984201D10969016301214161FC
:10482000F0BD0000002C01400004004000080040E2
:1048300010B50123046A8B409C430462036A8A40DA
:104840001343036210BD10B5846842EA032224F4C6
:104850007F440A432243826010BD826822F07002C6
:104860000A4342F0070181607047000030B5026AD8
:1048700022F001020262026A4368846924F073052F
:104880000C682C4322F002058A682A430A4DA8428C
:104890000BD122F00805CA6823F440732A434D69FE
:1048A00022F004021D438B692B43436084614968F5
:1048B0004163026230BD0000002C014030B5026A45
:1048C00022F010020262026A436884690D6824F4CF
:1048D000E64444EA05248D6822F0200242EA0512EB
:1048E0000B4DA8420ED1CD6822F0800242EA05129B
:1048F0004D6923F4406343EA85038D6922F0400249
:1049000043EA85034360846149688163026230BD84
:10491000002C014030B5026A22F480720262036A00
:104920004268C46923F4007324F073050C682C43B7
:104930008D6843EA05230C4DA8420ED1CD6823F4BF
:10494000006343EA05234D6922F4405242EA05120E
:104950008D6923F4806342EA05124260C4614968AC
:10496000C163036230BD0000002C014030B5026A13
:1049700022F480520262046A4268C3690D6823F41B
:10498000E64343EA05238D6824F4005444EA0534E1
:10499000064DA84204D14D6922F4804242EA8512B4
:1049A0004260C36149680164046230BD002C01406B
:1049B00010B5036A046A24F001040462846924F0D7
:1049C000F00444EA021423F00A020A4384610262FA
:1049D00010BD10B5036A23F0100303628369046AF3
:1049E00023F4704343EA023224F0A00343EA0111A6
:1049F0008261016210BD000008B516A000F032FA15
:104A0000C820FCF7C9FF0020009001222021174890
:104A1000FDF7C5F869461648FFF764FC6946154876
:104A2000FFF760FC69464FF46F20FFF75BFC6946B7
:104A30000320FFF757FC69460F48FFF753FC05209A
:104A4000FCF7AAFF0520FCF7A7FF6420FCF7A4FFF2
:104A5000012008BD0D0A20544D4332353930205312
:104A60007461727420496E6974210000000C014069
:104A7000B40109000F000D0002820A0070B52D4C30
:104A80006079022844D104F14C0500212878FFF711
:104A9000FEFBA07028780721FFF7F9FBE07128786A
:104AA0000121FFF7F4FB607028780221FFF7EFFB8C
:104AB000A07228780321FFF7EAFBE072A879E97871
:104AC0006A7900EB01602979090401EB02210844AD
:104AD0001949E061884202DC4942884200DAE1611A
:104AE000EB79637200226271207B1449012810D097
:104AF00002280ED0607B834200D96072E0690028F2
:104B000006DA0868A26A00F57A60824200DDA062D7
:104B100070BD1E236372012807D00228F8D1E26914
:104B200008688242F4DDE06170BDE0690A28FBDCC0
:104B3000E26170BD38000020001BB70004000020B7
:104B400010B5406A0021C185C184FEF796FB10BDF7
:104B50000168CA6822F49072CA6001684A6922F04A
:104B600001024A61202180F83A10704710B590F890
:104B70003A10222901D0022010BD8168B1F5805F72
:104B800011D00169002901681FD0496801F07F0335
:104B9000816A4A1C82620B70C18D491E0904090C8E
:104BA000C18518D02BE00269816A002A0268526828
:104BB00005D0D2B20A80816A491C8162ECE7C2F357
:104BC00008020A80816A891CF7E74A68816A4B1CDF
:104BD00083620A70E0E70168CA6822F02002CA60B6
:104BE0000168CA6822F48072CA6001684A6922F0CA
:104BF00001024A61202180F83A10FEF775FC00207E
:104C000010BD00002DE9F041044600680169E2682A
:104C100021F44051114301612169A0680843616991
:104C200008432168CA6841F20C639A430243CA6090
:104C300020684169A26921F44071114341614C49E6
:104C400020686425322688423CD1FDF7DBFB00EB6F
:104C5000C00101EB001061688900B0FBF1F7FDF7BE
:104C6000D1FB00EBC00101EB00106168B046890088
:104C7000B0FBF1F0B0FBF5F06FF01801484307EB23
:104C8000800106EB0110B0FBF5F000F0F006FDF737
:104C9000B9FB00EBC00101EB001061688900B0FBBB
:104CA000F1F0B0FBF5F006EB0016FDF7ABFB00EB07
:104CB000C00101EB001061688900B0FBF1F7FDF75E
:104CC000A1FB3BE0FDF78EFB00EBC00101EB001008
:104CD00061688900B0FBF1F7FDF784FB00EBC001D0
:104CE00001EB00106168B0468900B0FBF1F0B0FB49
:104CF000F5F06FF01801484307EB800106EB011057
:104D0000B0FBF5F000F0F006FDF76CFB00EBC00126
:104D100001EB001061688900B0FBF1F0B0FBF5F029
:104D200006EB0016FDF75EFB00EBC00101EB001087
:104D300061688900B0FBF1F7FDF754FB00EBC0019F
:104D400001EB001061688900B0FBF1F0B0FBF5F0F9
:104D50006FF01801484307EB800108EB0110B0FB2E
:104D6000F5F0216800F00F0030448860BDE8F08164
:104D70000038014090F83910212901D002207047F5
:104D80008168B1F5805F016A0BD04A1C026202683B
:104D900009785160C18C491E0904090CC1840ED0E8
:104DA00017E009880268C1F3080151600169002910
:104DB000016A02D0491C0162ECE7891CFBE701682B
:104DC000CA6822F08002CA600068C16841F04001F0
:104DD000C160002070472DE9F041984617460E4605
:104DE0000446069D1DE0681C1BD02DB1FCF7DCFEBF
:104DF000A0EB0800A84214D92068C16821F4D07142
:104E0000C1602068416921F001014161202084F8DE
:104E1000390084F83A00002084F838000320BDE807
:104E2000F0812068006836EA000004D00020B84213
:104E3000D9D00020F3E70120F9E700000148FEF790
:104E40001DBA0000480700200148FCF779B90000AE
:104E500000050020002280F838200122FEF71ABB4E
:104E6000FEE700000FB4054B10B503A9044A0298F1
:104E700000F0DAF810BC5DF814FB00005957000888
:104E8000AC01002002E008C8121F08C1002AFAD1B4
:104E900070477047002001E001C1121F002AFBD1BA
:104EA000704700002DE9FF5F82B00021DDE904308A
:104EB000020DDDF840B0034318D044F61050A2F2C2
:104EC000FF3242431514119801281FD0A5EB0B00A7
:104ED000401C5FEA000A4FF000064E4FDFF83891A1
:104EE000B046504615D5CAF1000413E011980124CC
:104EF0004AA3012801D16FEA0B010298119AC0E977
:104F00000031C0E9024206B0BDE8F09FCBF10000DD
:104F1000DFE704460021404A491842EB0450CDE93E
:104F2000001012E0E00707D032463B4640464946B3
:104F3000FBF78FFA8046894632463B4610461946B3
:104F4000FBF787FA06460F466410002CEAD1DDE92C
:104F50000401DDE90023BAF1000F06DAFBF779FA64
:104F600042464B46FBF775FA05E0FBF7E4FA42468A
:104F70004B46FBF7E0FA04460E460022284BFBF7AF
:104F8000C3FC03D84FF0FF30014607E00022254B59
:104F900020463146FBF7B6F9FBF79EFC102409E0EA
:104FA000002C0ADB0A220023FBF7B0FB039B303204
:104FB0001A55641E50EA0102F2D1641C039AC4F12E
:104FC00011031444119A012A03D0012208430DD180
:104FD0000AE0084304D000204FF0110B119072E753
:104FE000A3EB0B056D1E0DE05B4504DD4FF00002E9
:104FF00005F1010504E003DA4FF00002A5F1010517
:10500000002AECD002981199C0E90231C0E90045AC
:1050100079E70000000014400000F03F300000007D
:105020000000F0430000E03F2DE9FF4F95B09B46A4
:105030008946064600250FE2252877D10024274619
:10504000F84A0121059400E0044316F8013F203B93
:1050500001FA03F01042F7D130782A2811D06FF00E
:105060002F033078A0F13002092A16D8059A44F0AF
:10507000020402EB820203EB42021044761C05900C
:10508000EFE759F8042B0592002A03DA504244F462
:105090000054059044F00204761C30782E2816D176
:1050A00016F8010F44F004042A280DD06FF02F02E7
:1050B0003078A0F13003092B09D807EB870302EB06
:1050C0004303C718761CF3E759F8047B761C307845
:1050D0006C280FD006DC4C2817D068280DD06A2821
:1050E00014D104E0742810D07A280FD10DE044F4D4
:1050F00000140AE044F4801401E044F4401472788F
:10510000824202D104F58014761C761C3078662821
:105110000BD013DC582877D009DC002875D045283F
:10512000F6D04628F4D047281AD19DE118E063282C
:1051300035D0642879D0652812D195E1702873D0D4
:1051400008DC6728F1D069286FD06E280DD06F2851
:1051500006D1B5E073282CD0752875D0782874D086
:105160005A46179990476D1C75E1C4F30250022806
:1051700009D003280DD0D9F8001004280DD00D60F7
:1051800009F1040967E1D9F80010EA17C1E90052F2
:10519000F6E7D9F800100D80F2E70D70F0E719F886
:1051A000041B8DF8001000208DF80100EA46012054
:1051B00003E059F804AB4FF0FF3061074FF00001F6
:1051C00002D40DE008F101018846B9420FDA8045AA
:1051D000F8DB1AF808100029F4D108E008F1010101
:1051E00088468142FADB1AF808100029F6D10598A2
:1051F0005B46A0EB080721463846179A00F094FA60
:10520000284400EB080507E04DE029E10DE01AF81D
:10521000010B5A4617999047B8F10108F7D25B463F
:1052200021463846179A13E142E00A220092C4F35D
:1052300002524FF0000A022A08D059F804CB032A80
:105240004FEAEC710AD00DE029E02AE009F10701EC
:1052500021F00702F2E802C1914609E00FFA8CFC46
:105260004FEAEC71042A03D14FFA8CFC4FEAEC713F
:10527000002907DA0A460021DCF1000C61EB02018B
:105280002D2202E0220504D52B228DF804200122D4
:1052900003E0E20701D02022F7E7904659E00A2117
:1052A00002E010220DE010214FF0000A00910BE007
:1052B00010224FF0000A44F004040827009203E093
:1052C00008224FF0000A0092C4F30252022A05D0CD
:1052D00059F804CB0021032A08D009E009F107019D
:1052E00021F00702F2E802C1914605E01FFA8CFCAA
:1052F000042A01D10CF0FF0C4FF00008220728D53A
:10530000702806D0009B83F0100353EA0A0305D0EF
:105310000EE040228DF80420012208E05CEA010240
:1053200006D030228DF804208DF805000222904628
:10533000009B83F0080353EA0A030AD15CEA0102E6
:1053400001D1620705D530228DF804204FF0010805
:105350007F1E582804D034A003900EA802900DE0C0
:1053600036A0F9E753466046009AFBF7CFF984462A
:105370000398825C0298401E029002705CEA010071
:10538000F0D1029806A9081A00F1200A600702D598
:1053900024F4803400E00127574502DDA7EB0A0022
:1053A00000E0002000EB0A01009005984144401AFB
:1053B0000590E00306D45B462146179A059800F055
:1053C000B3F90544002706E001A85A46C05D1799C5
:1053D00090476D1C7F1C4745F6DBE0030CD55B4610
:1053E0002146179A059800F09FF9054404E0302003
:1053F0005A46179990476D1C0099481E0090002945
:10540000F5DC08E0029802995A460078491C02919E
:10541000179990476D1CBAF10001AAF1010AF1DC5D
:1054200065E1000009280100303132333435363768
:1054300038396162636465660000000030313233E0
:105440003435363738394142434445460000000080
:1054500000F058F90544761C307800287FF4ECAD54
:1054600019B02846BDE8F08F620700D4062709F17D
:10547000070222F0070CFCE80223E14603F0004893
:105480005FEA080C02D00FF2702C0DE05FEA045CBA
:1054900002D50FF2682C07E05FEAC47C02D00FF25D
:1054A000602C01E0AFF2700C4FF0FF3823F00043A6
:1054B000CDF850C065280CD006DC452809D0462818
:1054C0001DD047283DD13DE0662818D067287ED101
:1054D00038E00021112F01DB112000E0781CCDE91C
:1054E000000106A90EA8FFF7DDFCDDE90F010E9A09
:1054F00003910021009207F1010A04914DE04FF061
:1055000000400097CDE9011006A90EA8FFF7CAFCDC
:10551000DDE90F0203920E9B11990022DDF80CA029
:105520000093049211B9791C00EB010AB7EB0A0051
:1055300004D4C0F1FF3007F1010A0490AAEB070080
:10554000019044E0012F00DA01270021112F01DD35
:10555000112000E03846CDE9000106A90EA8FFF7AA
:10556000A1FCDDE90F010E9A039100210491009244
:10557000BA4621070CD40399514500DA8A46BAF19C
:10558000010F05DD009AAAF10101515C302908D014
:10559000B84202DA10F1040F06DA0121CDE9011058
:1055A00015E0AAF10101E9E7002805DC04990144AE
:1055B0000491AAEB000102E0411C514500DD8A463E
:1055C0000499401A401C01904FF0004002902007BF
:1055D00004D40198504501DBCDF8048000208DF8FB
:1055E0004F0002980DF14F07B0F1004F25D02B204E
:1055F0000E9002984FF0020800280CDA4042029008
:105600002D200E9007E00A210298FBF769F830314F
:10561000029007F8011DB8F10001A8F10108F2DCC1
:1056200002980028EFD1791E0E980870307800F0AB
:10563000200040F0450007F8020D12A8C01B00F141
:1056400007081498007800B1012000EB0A010198C6
:1056500001EBE07105984144401A401E0590E003BB
:1056600006D45B462146179A059800F05DF805447C
:105670001498007818B15A46179990476D1CE003AA
:1056800024D55B462146179A059800F04DF805444D
:105690001CE00498002807DBDDE90301884203DDF4
:1056A0000098405C179901E0179930205A469047BE
:1056B000049805F10105401C04900198401E0190DA
:1056C00004D12E205A46179990476D1CBAF100015B
:1056D000AAF1010ADDDC05E017F8010B5A4617991B
:1056E00090476D1CB8F10001A8F10108F4DC5B469D
:1056F0002146179A0598ABE62D0000002B0000000C
:10570000200000002DE9F041044600251E46174602
:10571000880404D405E039462020B0476D1C641E7F
:10572000F9D52846BDE8F0812DE9F0410446002571
:105730001E469046C80301D5302700E02027880484
:1057400004D505E041463846B0476D1C641EF9D5C6
:105750002846BDE8F081000013B54FF47A730122AA
:1057600069460248FDF734FF00981CBD4807002039
:10577000FCF78AFCFEF72AFFFBF763FBFEF7BEFA95
:10578000FEF7AEFAFEF7B6FBFEF7EAFBFEF76AFCA1
:10579000FEF784FAFBF70CF9FEF754FBFEF776FBF5
:1057A000FEF712FCFEF702FB00240EA0FFF75AFBE7
:1057B0004FF41670FCF7F0F80D4D00260D4FDFF892
:1057C000388008E039880DA0FFF74CFB002488F8EA
:1057D0000060FEF7F7F9641CFEF7F4F9AC42FAD961
:1057E000F0E700000D0A207374617274000000007D
:1057F000A086010014000020900100200D0A202541
:10580000640000000000000000000000010203042A
:105810000607080900000000010203043C580008C4
:1058200000000020B00100005C0900086858000872
:10583000B0010020200A0000944E00080115051F49
:10584000F401E80353A040920174780101022FA2F1
:10585000720103FEFFFF3201620AB432053C45A229
:085860004A04104201C21000CD
:04000005080000ED02
:00000001FF
