:020000040800F2
:10000000A80B002001010008552E0008B5290008A2
:10001000192D0008ED090008BD3800080000000097
:100020000000000000000000000000004531000852
:10003000310B000800000000772E0008473100084F
:100040001B0100081B0100081B0100081B01000820
:100050001B0100081B0100081B0100081B01000810
:100060001B0100081B0100081B010008190B0008F8
:100070001B0100081B010008250B00081B010008DC
:100080001B0100081B0100081B0100081B010008E0
:10009000A53800081B0100081B010008E50C00083A
:1000A0001B0100080D3200081B0100081B0100089D
:1000B0001932000825320008313200081B010008FF
:1000C0001B0100081B0100081B0100081B010008A0
:1000D0001B010008993800081B0100081B010008DB
:1000E0001B0100081B0100081B010008DFF80CD0F1
:1000F00000F02AFC00480047F9410008A80B002046
:100100000648804706480047FEE7FEE7FEE7FEE7B1
:10011000FEE7FEE7FEE7FEE7FEE7FEE7C531000883
:10012000ED000008202A04DB203A21FA02F0002129
:10013000704721FA02F3D040C2F1200291400843F7
:1001400019467047A0F16101192900D8203870477D
:10015000D2B201E000F8012B491EFBD27047002209
:10016000F6E710B513460A4604461946FFF7F0FFB6
:10017000204610BD034611F8012B00F8012B002A80
:10018000F9D118467047F0B480EA0102D40F42005A
:10019000B2EB410F02D20246084611464A0042D055
:1001A000C30DDDB2C1F3C752AD1A202D35DAC1F34C
:1001B000160141F4000204B15242C5F1200602FAD0
:1001C00006F12A411044B3EBD05F23D0C4B1012D16
:1001D000A0EBC35009DCF0BC4FF0004202EAC3526E
:1001E000DBB200F5000000F0F4BA400000F18070CE
:1001F00000EBC350A0F1807040EAD170490009E0E3
:10020000490841EAC071A0EBC35000F50000400866
:1002100000EBC350F0BC00F0D3BA6142012202EB04
:100220004101001BF6E7F0BC704781F00041AAE7EE
:1002300080F00040A7E780EA010210B502F0004319
:10024000400022D04A001FD0010E01EB1261C0F322
:100250005600C2F3560240F4000042F40002A0FB34
:10026000022000047F39140400D0401C50EA1240E0
:1002700001D44000491EC2B20C0604EBD010401C51
:100280004008802A02D003E0002010BD20F00100C9
:10029000002900DA0020184310BD30B480EA0102C2
:1002A00002F0004530F0004221F0004013D090B140
:1002B000C30DD40DC2F31601C0F31600E41A41F4C5
:1002C000000140F400027D34914201D3641C00E03F
:1002D0004900002C02DA30BC002070474FF40000C7
:1002E0000023914201D3891A034340084FEA410198
:1002F000F7D151B1914202D14FF0004105E002D255
:100300004FF0010101E06FF0010103EBC4502844FC
:1003100030BC00F055BA2DE9FE4F804681EA03005B
:10032000C00F0C46009021F0004123F00045B8EBCF
:100330000200A94105D24046214690461C460B4684
:10034000024623F00040104347D0270DC7F30A00B0
:10035000C3F30A510290401A019040286BDAC3F3AC
:10036000130040F4801B0098924620B10023D2EB8A
:10037000030A63EB0B0B01985946C0F1400250464B
:1003800000F0FDF906460D4650465946019A00F028
:1003900005FA10EB08006141002487EA115284EA53
:1003A000E7731A4340D0009A62B3019A012A4FEAD8
:1003B000075215DC001B61EB02014FF0004202EA1C
:1003C0000752CDE90042001C41F5801132462B4610
:1003D00000F03CFA03B0BDE8F08F40462146F9E753
:1003E000001B61EB0201001C41F5801300185B410A
:1003F0002018A2F5001747EB030140EAD570B619A3
:100400006D4111E06D084FEA360645EAC0754FEAC6
:100410000752001B61EB0201001C41F580114908E5
:100420004FEA30000019514132462B4603B0BDE877
:10043000F04F00F0FCB90098012240000023D0EBFF
:10044000020263EBE073009821464FEAE074B8EBD8
:10045000000061EB0401E9E783F000435BE781F012
:10046000004158E72DE9FE4F81EA030404F00044FF
:1004700021F0004100944FF0000B23F0004350EABC
:1004800001045ED052EA03045BD0C3F30A54C1F303
:100490000A552C44A4F2F3340194A0FB0254C1F396
:1004A000130141F48011C3F3130343F4801301FBE0
:1004B000024400FB034E840A970A44EA815447EA47
:1004C0008357A4FB076802958D0A05FB07854FEA51
:1004D000932C04FB0C542705029D4FEA065847EA6B
:1004E0001637B5EB08056EEB070C870E920E47EA40
:1004F000811742EA8312A7FB0201B6EB0B0164EB02
:1005000000042B0D43EA0C335E1844EB1C50DA4612
:100510005146E7FB0201C5F313044FEA0B3343EAEC
:1005200014534FEA0432019C43EA0603A4F10C047D
:100530000294009CCDE900B400F088F903B0BDE856
:10054000F08F00200146F9E72DE9F04D81EA030420
:1005500004F0004B21F0004514464FF0000A23F050
:10056000004150EA050220D054EA01021DD0C5F333
:100570000A570246C5F31303C1F31300C1F30A5629
:1005800040F4801543F48013A7EB0608101BD646F1
:1005900008F2FD3873EB050002D308F1010801E011
:1005A00092185B41B8F1000F03DA00200146BDE864
:1005B000F08D00204FF48011064684460EE0171B94
:1005C00073EB050705D3121B63EB050306434CEAE7
:1005D000010C49084FEA300092185B4150EA0107CC
:1005E000EDD152EA030012D082EA040083EA050149
:1005F000084305D0101BAB4106D20122002306E0C0
:1006000000224FF0004302E06FF0010253101AEB9A
:1006100006004CEB085110EB0A0041EB0B01BDE862
:10062000F04D00F004B9C10F80EAE0700844CA0739
:100630009623002100F0CDB896230022114600F049
:10064000C8B820F00040C10DC0F3160040F400000F
:100650007F2901DA00207047962903DCC1F1960159
:10066000C840704796398840704700F0004230F02B
:1006700000400AD0C10D01F56071C0F3160042EAD6
:100680000151C208400711437047002001467047DE
:1006900001F0004330B421F0004150EA010206D0DD
:1006A0000A0DA2F56072C1F31301002A02DC30BC0E
:1006B00000207047440F44EAC104C100E01830BC78
:1006C00000EBC25000F07CB8002801DBC0F1004014
:1006D000002901DBC1F1004181427047002801DBA4
:1006E000C0F10040002901DBC1F1004188427047A0
:1006F00030B50B46014600202022012409E021FAF2
:1007000002F59D4205D303FA02F5491B04FA02F5EE
:100710002844151EA2F10102F1DC30BD2DE9F05F85
:100720000546002092469B46884606468146402460
:100730001BE02846414647462246FFF7F3FC534656
:100740005A46C01A914110D311461846224600F06D
:1007500016F82D1A67EB01084F46224601200021AA
:1007600000F00DF817EB00094E41201EA4F1010422
:10077000DFDC484631462A464346BDE8F09F202A42
:1007800004DB203A00FA02F1002070479140C2F1E8
:10079000200320FA03F3194390407047202A06DB18
:1007A000CB17203A41FA02F043EAE07306E041FA3F
:1007B00002F3D040C2F1200291400843194670472D
:1007C0000029A8BF7047401C490008BF20F0010065
:1007D000704710B4B0FA80FC00FA0CF050EA010443
:1007E00004BF10BC704749B1CCF1200421FA04F4D5
:1007F00011FA0CF118BF012121430843A3EB0C01AE
:10080000CB1D4FEA00614FEA102042BF002010BC10
:10081000704700EBC35010440029A4BF10BC7047C0
:10082000401C490008BF20F0010010BC704710B503
:10083000141E73F1000408DA401C41F10001921803
:100840005B411A4301D120F0010010BD2DE9F04DAC
:1008500092469B4611B1B1FA81F202E0B0FA80F201
:1008600020329046FFF78BFF04460F4640EA0A000D
:1008700041EA0B0153465A46084313D0114653EA46
:10088000010019D0C8F140025046FFF74BFC054665
:100890000E46504659464246FFF771FF084305D0C1
:1008A000012004E020463946BDE8F08D00200543D4
:1008B00046EAE0762C4337430A986305E40AA0EB46
:1008C00008000022FD0A44EA47540A3002D50020FD
:1008D0000146E9E7010510196941DDE908450019FC
:1008E0006941BDE8F04DA2E7C1F30A52C1F313011B
:1008F00040F2FF3341F480119A4202DA00200146AF
:10090000704740F233439A42A2F2334202DC524231
:10091000FFF708BCFFF733BF30B5041E71F10004C8
:1009200004DB4FF00044404264EB0101141E73F1FC
:10093000000405DB1C464FF00043524263EB040306
:10094000994208BF904230BD064C074D06E0E06872
:1009500040F0010394E8070098471034AC42F6D306
:10096000FFF7C8FBF84200081843000830B58C18A0
:1009700010F8012B12F00F0301D110F8013B1209FE
:1009800006D110F8012B03E010F8015B01F8015BC0
:100990005B1EF9D101E001F8013B521EFBD1A142DF
:1009A000E6D3002030BD000038B50E48017809B903
:1009B0000121017040F6FF700B4C009000222021B5
:1009C000204600F0C4FE00228021204600F0BFFE39
:1009D0004021204600F0B7FE0098411E0091FBD256
:1009E00038BD000050000020000C0140FEE7000070
:1009F00010B5002958D0826B4FF4D873046803EB0C
:100A00000113E45814F0040494600468E4584DD0D1
:100A1000E40854600468E35803F00203D3604FF421
:100A2000DA73046803EB0113E45804F00F04146153
:100A300011620468E358C3F30723D3614FF4DC73F6
:100A4000046803EB0113E45814750468E458240A9D
:100A500054750468E458240C94750468E3581B0E1C
:100A6000D3754FF4DE73046803EB0113E458147676
:100A70000468E458240A54760468E458240C9476F4
:100A80000468E3581B0ED3760368202289B11A61EB
:100A90000268536923F05003536190F83C20222AE6
:100AA0000DD0322A0BD00FE0426BA5E7640D146025
:100AB000B0E7DA600268536923F00A03ECE70268E2
:100AC000536923F40F43536112220123002990F844
:100AD0003C1006D0522915D0622916D0722906D1B1
:100AE00015E042290ED0622908D0722908D080F87A
:100AF0003C3000BF00F0CAFB002010BD322107E0EF
:100B0000522105E080F83C20F4E7222100E0422158
:100B100080F83C10EEE70000014800F035BC000012
:100B2000DC040020014800F02FBC00005407002026
:100B300070470000084810B50078012808D100F07F
:100B4000D5F800F0D5F80548D0E9051002F0E6F830
:100B500003490120087010BD520000202800002029
:100B60005E00002010B5A0B080216846FFF7F7FABC
:100B70000EA002F0A5FE4FF4A8442221204600F06A
:100B800063F80EA002F09CFE4FF4FA7000F0D8FC5F
:100B90000EA002F095FE204600F03AF8C1B20F48D0
:100BA000C1730FA002F08CFE20B010BD0D0A20779B
:100BB0007269746520656520494400000D0A20644F
:100BC000656C617920656520494400000D0A20723A
:100BD00065616420656520494400000050000020E4
:100BE0000D0A20526561642049443A2564000000E2
:100BF000064910B5CA8802F47F440443CC802146DC
:100C0000012002F05FF9204610BD00000000002026
:100C100070B50C4D044601221021284600F097FDC6
:100C20000321880303F03CFB0821204603F038FB36
:100C300003F00EFB044600221021284600F087FD39
:100C4000204670BD0008014070B5254C0E46054693
:100C500001221021204600F07AFD0A2000F070FCED
:100C600010214FF4184003F01BFB0221012003F078
:100C700017FB00221021204600F069FD0A2000F039
:100C80005FFC01221021204600F061FD03214FF49A
:100C9000204003F005FB0821284603F001FB10214A
:100CA000304603F0FDFA00221021204600F04FFDEF
:100CB00003F080FA01221021204600F048FD00BF19
:100CC00003F078FA4021204600F038FD0128F7D0E3
:100CD0002046BDE870400022102100F038BD000021
:100CE000000801404FF4807000F03EBC00F04AB8AC
:100CF00007480849037808484A68012B016804D06E
:100D0000002B01D1891A016070471144FBE70000F4
:100D10005A000020D00100201C00002010B5002146
:100D20000D4B0A465A54491C1029FBD338B10128EF
:100D300007D002280BD003280BD008A102E009A19C
:100D400000E009A10448FFF715FA034810BD08A107
:100D5000F8E709A1F6E7000098070020554E4B4E32
:100D60004F574E004F4B00004552524F520000006B
:100D7000425553590000000054494D454F55540009
:100D8000FEE7000030B514480068426A134842612B
:100D9000416A436BC1EB01411144CC1A44604FF4EA
:100DA0000044456807E0416A491E4162C1EB0141C8
:100DB0001144CD1A4560A542F5DA094CA54208DC7C
:100DC000416A491C4162C1EB01411144CD1A4560A1
:100DD000F4E7416330BD000094060020D0010020FC
:100DE0000080FFFF10B5044604A002F069FD204614
:100DF000BDE81040002100F0EFB900000D0A4341AA
:100E00004EE587BAE994990D0A0000002DE9F041FA
:100E1000044600680026C168C1F300134169C1F3AC
:100E2000C002102113B10AB14E01C16020680269ED
:100E30004369C2F30012C3F380131AB113B146F42D
:100E400080660161216848694FF00105C043C00711
:100E50004ED18A687648904323D000208B68754A2B
:100E60009A4320D000228F68734BBB431DD00023D0
:100E7000104318433CD088688A68C0F340008B68F0
:100E8000C2F3402203F001031043184329D04A69FA
:100E9000204622F001024A6194F83C10122906D043
:100EA0000AE00120DAE70122DDE70123E0E701683B
:100EB0004A6922F40F424A6190F83C10422908D056
:100EC000522908D0722908D080F83C5000F00EFA60
:100ED00009E0222102E0322100E0622180F83C108A
:100EE000F4E746F4006620688168544A1143816043
:100EF0002168C868496910F0030FC1F3400104D0AC
:100F000019B100212046FFF773FD2168086949697E
:100F100010F0030FC1F3001104D019B101212046D4
:100F2000FFF766FD206C30432064206881694269C8
:100F300011F0010F4369C2F30022C3F3C03305D09F
:100F400022B11BB1216C41F0010121648169C1F31F
:100F500040034169C1F340224169C1F3C0312BB163
:100F600022B119B1216C41F0020121648169C1F300
:100F7000800341694269C1F38021C2F3C0322BB1C1
:100F800021B11AB1216C41F004012164816911F091
:100F9000700F08D000224169C1F3C0234169C1F339
:100FA000C03112B121E00122F5E7F3B1E9B1816965
:100FB00001F0700140292FD006DC102909D020292A
:100FC0000BD030290DD123E0502929D0602908D138
:100FD0002AE0216C41F0080102E0216C41F010018F
:100FE0002164816921F070018161206C00280DD09D
:100FF00021680420486084F83C502068416948F624
:101000005B72914341612046FFF7ECFEBDE8F08141
:10101000216C41F02001E3E7216C41F04001DFE762
:10102000216C41F08001DBE7216C41F48071D7E74E
:101030000100000400010008000001100905010082
:101040002DE9F04104004FF0000504D094F83C0075
:10105000002618B107E00120BDE8F08184F83D606A
:10106000204600F083F8022084F83C0020680168E4
:1010700021F0020101602068016841F00101016076
:1010800000F06AFB07464FF0030804E000F064FB41
:10109000C01B0A2853D820684068C007F6D02168D2
:1010A0004868C00758D0A069012801D145F08005E3
:1010B000E06901282FD025F04000226A012A2DD0B6
:1010C00020F02000626A012A2BD020F01000A26AD2
:1010D000012A29D020F00800E26A012A27D020F056
:1010E00004000A6822F0FC0202430A60D4E902010B
:1010F0000843D4E90412114308436168491E0843B8
:101100002168C8612068016821F00101016000F0D8
:1011100023FB054618E045F04000CEE740F02000F4
:10112000D0E740F01000D2E740F00800D4E740F0EC
:101130000400D6E700F010FB401B0A2804D904F88D
:101140003C8F0320667087E720684068C007F1D1B4
:1011500020684068C00703D0042084F83C007AE788
:101160002664012084F83C00002075E710B586B0A5
:101170000021009101910291039100681349884276
:1011800022D11348C16941F00071C161C16901F008
:1011900000710491816941F00401816180690D4C05
:1011A00000F0040004904FF400600090694620466F
:1011B00000F0E6F9A01400900220019001200390B5
:1011C0006946204600F0DCF906B010BD006400401E
:1011D000001002400008014030B511B1012925D0AE
:1011E00010E090F83C20222A28D090F83C20422A97
:1011F00024D000BF90F83C20622A1FD090F83C20F9
:10120000722A1BD090F83D20012A17D0012280F8C5
:101210003D20622290F83C40722389B1122C19D0F3
:10122000222C18D0422C19D0322214E090F83C2005
:10123000322A03D090F83C20522ADBD1022030BD64
:10124000122C05D0322C06D0522C07D0222202E0DC
:10125000422200E0522280F83C2001E080F83C303D
:101260000022026403685C6948F601752C435C61E6
:1012700080F83D2000680029416904D041F0500108
:101280004161002030BD41F00A01F9E770B5044624
:10129000114A12480021136805881148AB420CD14D
:1012A000104B55182D7D5D54491CC9B20829F8D33F
:1012B000012101700C48C17001E000210170002182
:1012C0002046FFF789FF022804D12068416941F0D8
:1012D0000A01416170BD00007C0200206400002012
:1012E0005400002094000020A2010020704700005C
:1012F00010B590F821100024022903D00421816345
:1013000001243DE001680A6822F00E020A600168CB
:101310000A6822F001020A601A4A0168914201D16A
:10132000012121E0174A1432914201D110211BE022
:10133000144A2832914201D1891515E0114A3C32F4
:10134000914201D189140FE00E4A5032914202D1EC
:101350004FF4803108E00B4A6432914202D14FF4DD
:10136000801101E04FF08071064A083A5160012176
:1013700080F82110002180F82010416B01B18847CE
:10138000204610BD080002402DE9F05FC16B0C68DB
:1013900001680B68D0F840C0042202FA0CF2494DF3
:1013A000DFF824A1494E4A4FDFF828B1DFF828E1E1
:1013B00022422CD05A072AD50A68920603D40A681A
:1013C00022F004020A600168A94201D1042219E056
:1013D000514501D1402215E0B14202D14FF4806263
:1013E00010E0B94202D14FF480420BE0594502D1DE
:1013F0004FF4802206E0714502D14FF4800201E0F3
:101400004FF080622F4908394A60C16A3BE04FF0D3
:10141000020808FA0CF818EA040F4FF000094FF020
:10142000010235D05FEA837832D50B689B0605D47C
:101430000B6823F00A030B6080F821200168A942A1
:1014400001D1022219E0514501D1202215E0B1421B
:1014500002D14FF4007210E0B94202D14FF40052B1
:101460000BE0594502D14FF4003206E0714502D13C
:101470004FF4001201E04FF00072124908394A603F
:1014800080F82090816A00291AD0BDE8F05F0847F3
:10149000082505FA0CF5254212D01B0710D50B685C
:1014A00023F00E030B6090F84010C36B02FA01F1B9
:1014B0005960826380F8212080F82090016BE2E778
:1014C000BDE8F09F080002401C00024030000240CE
:1014D00044000240580002406C00024030B548B35E
:1014E00008C8154914221944B1FBF2F18900C163FF
:1014F00012498163022141771A6843F6F0718A43E9
:10150000D0E900142143D0E902452C43214304696A
:101510002143446921438469214311431960002117
:1015200041628162C16201634163012242770177B6
:10153000084630BD012030BDF8FFFDBF000002406D
:1015400070B5044600F008F90546601C02D0044856
:101550000078044400F000F9401BA042FAD370BDAB
:10156000C001002070470000044910B50A6802421B
:1015700002D00860FFF7F6FF10BD00001404014020
:101580002DE9F84FDFF890A100220AF1040B144670
:1015900001274FF00F090BF1040E00BF0B6807FA8B
:1015A00004F52B40AB4274D1DFF870C14E68A6EB56
:1015B0000C0866452BD00DDC032E34D005DC36B389
:1015C000012E19D0022E2FD11BE0112E16D0122E73
:1015D0002AD119E0B8F5881F19D006DCB8F5803F8C
:1015E00015D0B8F5801F1FD111E0B8F5001F0ED03F
:1015F000B8F5041F18D10AE0CA6815E0CA68121DC0
:1016000012E0CA6808320FE0CA680C320CE08A683F
:101610002AB1012A4FF0080203D0456104E00422F8
:1016200002E0056100E00022FF2B01D8064601E040
:1016300000F104064FEA840501D9A5F12005D6F88A
:1016400000C009FA05F82CEA080C02FA05F54CEA84
:10165000050CC6F800C04D68ED0057D5304DAE6999
:1016600046F00106AE61AD6924F0030605F0010500
:1016700000952C4D06EB050CDCF80850A6074FEA48
:10168000167809FA08F6B543274EB04202D1002673
:1016900010E03BE0254EB04201D101260AE0244E85
:1016A000B04201D1022605E0224EB04201D103260C
:1016B00000E0042606FA08F62E43CCF808604D68D0
:1016C000DAF80060ED03554601D51E4300E09E4365
:1016D0002E604D68DBF80060AD035D4601D51E430A
:1016E00000E09E432E604D68DEF80060ED02754616
:1016F00001D51E4300E09E432E604D68AD020E4DA5
:101700002E6801D51E4300E09E432E60641C102C01
:10171000FFF444AFBDE8F88F000401400000111051
:10172000001002400000014000080140000C014090
:1017300000100140001401400C0401408068084082
:1017400000D001207047C2684A40C26070470AB1A9
:10175000016170470904FBE7014880687047000099
:10176000C0010020024881680278114481607047FE
:10177000C0010020074810B5016841F01001016068
:10178000032000F073F8002000F006F800F024F8C1
:10179000002010BD0020024070B50D4D04464FF4EE
:1017A0007A712878B1FBF0F00A490968B1FBF0F0D2
:1017B00000F0A4FD48B9102C07D200222146501E8B
:1017C00000F034F800206C6070BD012070BD000096
:1017D000C0010020A80100200C4808B5816941F033
:1017E00001018161816901F001010091C16941F04C
:1017F0008051C161C06900F0805000900448416888
:1018000021F0E06141F00071416008BD001002402C
:101810000000014000F01F020121914040098000BA
:1018200000F1E020C0F8001170470000F0B40E4B4A
:101830001B680C46C3F30223C3F10705042D00D92E
:101840000425191D072901D2002300E0DB1E012613
:1018500006FA05F1491E214099409E40761E164029
:101860003143F0BC01F0F7BA0CED00E0064900F09E
:10187000070208684FF6FF03184040EA0220034AB7
:1018800010430860704700000CED00E00000FA050E
:101890002DE9F84305460078354CC00754D0E0697F
:1018A0000026C00008D4E06940F08050E061E069A3
:1018B000012600F0805000902E480168C90512D41E
:1018C0000168804641F480710160FFF745FF0746DB
:1018D00005E000BFFFF740FFC01B642823D8D8F8FD
:1018E0000000C005F6D5206A10F4407021D0A98808
:1018F00001F4407181421CD0206A1F49012220F46A
:1019000040700A6000220A602062C00711D0FFF711
:1019100023FF074641F2883808E000BFFFF71CFFAD
:10192000C11B414502D90320BDE8F883206A800726
:10193000F4D5206A696820F44070084320621EB123
:10194000E06920F08050E0612878800705D5606864
:10195000A96820F44040084360602878C00605D597
:101960006068E96820F48000084360600020DBE7DD
:101970000010024000700040400442422DE9F04750
:10198000DFF83C8105460E46D8F8000000F007005D
:10199000B0420CD2D8F8001021F007013143C8F84A
:1019A0000010D8F8000000F00700B04263D128789A
:1019B000444C800705D56068A96820F0F000084312
:1019C00060602878C00745D06868012816D0216873
:1019D000022816D0890700294DDA616821F0030139
:1019E00001436160FFF7B8FE6968074641F288303D
:1019F00001290FD00229814619D027E021688903E7
:101A0000E9E78901E7E700BFFFF7A6FEC11B4945EB
:101A100001D918E081466068C0F381000128F3D144
:101A200018E000BFFFF798FEC11B49450BD860685E
:101A3000C0F381000228F5D10CE000BFFFF78CFE57
:101A4000C11B494502D90320BDE8F087606810F04A
:101A50000C0FF3D1D8F80010404601F00701B14255
:101A60000BD9016821F0070131430160006800F0E3
:101A70000700B04201D00120E6E72878400705D5ED
:101A80006068E96820F4E060084360602878000737
:101A900006D56068296920F4605040EAC1006060A2
:101AA00000F036F86168084AC1F30311515CC84080
:101AB000064908600020FFF76FFE0020C4E7000021
:101AC0000020024000100240E0420008A80100206F
:101AD0000448054900684968044AC1F30221515C81
:101AE000C8407047A801002000100240F0420008E2
:101AF0000448054900684968044AC1F3C221515CA1
:101B0000C8407047A801002000100240F0420008C1
:101B100012A185B00FC98DE80F0014A0144A006807
:101B200004905168134801F00C03042B10D0082BCB
:101B30000ED1C1F38343C9031DF803000AD55168D0
:101B400004AAC1F34041515C0A4A5043B0FBF1F092
:101B500005B0704708494843FAE70000020304054E
:101B6000060708090A0B0C0D0E0F101001020000E9
:101B70000010024000127A0000093D002DE9F84FE4
:101B800004460078B94DC00748D06868C0F38100AA
:101B9000012807D06868C0F38100022809D168686D
:101BA000C00306D52868800338D5606800286FD048
:101BB00034E06068B0F5803F0BD010B1B0F5A02FD5
:101BC00011D0286820F480302860286820F4802014
:101BD00002E0286840F480302860606888B1FFF730
:101BE000BBFD064609E0286840F480202860F0E745
:101BF000FFF7B2FD801B642875D828688003F7D5ED
:101C00000CE0FFF7A9FD064605E000BFFFF7A4FDC5
:101C1000801B6428F0D828688003F7D42078944E7D
:101C200080074FF001094FF000083BD5686810F0BD
:101C30000C0F07D06868C0F38100022809D16868DA
:101C4000C00306D42868800714D5206901281FD155
:101C500010E02069B0B1C6F80090FFF77DFD07469F
:101C600005E000BFFFF778FDC01B0228C4D8286834
:101C70008007F7D52868616920F0F80040EAC100C4
:101C800028600FE0C6F80080FFF766FD074606E013
:101C9000E9E000BFFFF760FDC01B022823D82868D9
:101CA0008007F7D4207800072CD57248A169D9B1F4
:101CB000C0F80090FFF750FD074604E0FFF74CFD29
:101CC000C01B02280FD8686A8007F7D56A484FF40E
:101CD000FA510068B0FBF1F0009000BF0098411E7F
:101CE0000091FAD20EE080E0C0F80080FFF734FDEA
:101CF000074604E0FFF730FDC01B022875D8686A6C
:101D00008007F7D42078400760D5E8690027C00035
:101D100008D4E86940F08050E861E869012700F0E4
:101D20008050009055480168C90513D40168834666
:101D300041F480710160FFF70FFD824606E000BFAD
:101D4000FFF70AFDA0EB0A0064284ED8DBF800007C
:101D5000C005F5D5E06801280AD008B1052813D0E0
:101D6000286A20F001002862286A20F0040002E0BE
:101D7000286A40F001002862E06841F2883B98B18F
:101D8000FFF7EAFC82460BE0286A40F00400286274
:101D9000EEE700BFFFF7E0FCA0EB0A0159455AD877
:101DA000286A8007F6D50CE0FFF7D6FC824605E0EE
:101DB000FFF7D2FCA0EB0A0159454CD8286A8007EE
:101DC000F6D41FB1E86920F08050E861E06988B37B
:101DD0006968C1F38101022945D00228C6F86080F4
:101DE00004D0FFF7B9FC044638E034E0FFF7B4FC58
:101DF000074604E0FFF7B0FCC01B02282BD8286878
:101E00008001F7D4206AB0F5803F05D16868A168E9
:101E100020F4003008436860D4E908010843696889
:101E200021F4741108436860C6F86090FFF794FCD1
:101E3000044606E015E000BFFFF78EFC001B0228F9
:101E400009D828688001F7D50BE000BFFFF784FCB4
:101E5000001B022802D90320BDE8F88F2868800102
:101E6000F4D40020F8E70120F6E70000001002405B
:101E70000000424280044242A8010020007000405D
:101E800070B5040005D00025A56294F8510010B18A
:101E900004E0012070BD204600F034F8022084F8F0
:101EA00051002068016821F040010160D4E901017E
:101EB0000843D4E903121143084361690843218BA5
:101EC00001F400710843E1690843216A0843A16AEB
:101ED000084321680860A069042101EA1040616A92
:101EE0000843216848602168E06A08612068C16988
:101EF00021F40061C1616565012084F85100002072
:101F000070BD000030B585B00024009401940294A7
:101F10000394254D0368254802210122AB421CD1C0
:101F2000C36943F48043C361C36903F480430493EA
:101F3000836943F00803836180691D4D00F0080048
:101F400004904FF42040CDE90001039269462846F1
:101F5000FFF716FB4FF480401CE0164DAB4220D13A
:101F6000836943F480538361836903F4805304934A
:101F7000836943F00403836180690F4D00F004001E
:101F80000490A020CDE90001039269462846FFF79E
:101F9000F7FA4020CDE90004694628460294FFF78D
:101FA000EFFA05B030BD00000038004000100240DC
:101FB000000C014000300140000801402DE9F84FBD
:101FC000044690F850000026994617460D46012811
:101FD0000DD04FF0010B84F850B0FFF7BDFB8046E9
:101FE00094F85100B246012804D0022694E0022061
:101FF000BDE8F88F002D7BD0002F79D0032084F826
:102000005100C4F854A02563A786E786C4F838A019
:10201000A4F83CA0A4F83EA0C4F844A0C4F840A092
:10202000A068B0F5004F04D12068016841F48041F8
:10203000016020680168490603D4016841F040014D
:102040000160E068B0F5006F606804D030B3E08EE6
:10205000012823D03EE010B1E08E01281AD135F8D6
:10206000021B206805E020688168890706D535F8DD
:10207000021BC160E08E401EE0860BE0B9F1000F4C
:1020800034D0B9F1FF3F05D0FFF766FBA0EB0801A4
:1020900049452BD2E08E0028E5D11EE0216815F8D5
:1020A000010B087306E020688168890706D515F8DA
:1020B000011B0173E08E401EE0860BE0B9F1000FBA
:1020C00014D0B9F1FF3F05D0FFF746FBA0EB0801A4
:1020D00049450BD2E08E0028E5D14B460122022172
:1020E0002046CDF8008000F05BFF10B1032613E01E
:1020F00011E042464946204600F0BEFE18B10126D6
:102100002020606508E0A06818B92068C168806870
:102110000090606D00B1012684F851B084F850A0A1
:10212000304665E72DE9F84F044690F85000002648
:102130000A9F9A4693460D464FF0010801280ED09B
:10214000012084F85000FFF707FB814694F8510006
:10215000616801280CD0B1F5827F07D102E002202E
:10216000BDE8F88FA16809B9042801D00226BDE0B6
:1021700055B1BBF1000F07D0BAF1000F04D094F8AD
:102180005100012802D004E00126AFE0052084F8C8
:10219000510000206065C4F838B0A4F83EA0A4F84F
:1021A0003CA02563A4F836A0A4F834A020646064A1
:1021B00020680168490603D4016841F040010160CC
:1021C000E068B0F5006F606804D0E8B3E08E0128E5
:1021D0003BD06AE010B1E08E01282ED1216835F89D
:1021E000020BC860E08E401EE08626E0B8F1000FCA
:1021F0000DD0E08E58B120688168890707D535F881
:10220000021BC160E08E401EE0864FF00008E08FA8
:1022100058B120688168C90707D0C0682BF8020B45
:10222000E08F401EE0874FF00108781C05D0FFF7D3
:1022300093FAA0EB0900B84246D2E08E0028D5D12F
:10224000E08F0028D2D136E0FFE7216815F8010BB6
:102250000873E08E401EE08627E000BFB8F1000F53
:102260000DD0E08E58B120688168890707D515F830
:10227000011B0173E08E401EE0864FF00008E08FE6
:1022800058B120688168C90707D0C0680BF8010BF6
:10229000E08F401EE0874FF00108781C05D0FFF763
:1022A0005BFAA0EB0900B8420ED2E08E0028D5D12F
:1022B000E08F0028D2D13B46012202212046CDF8F2
:1022C000009000F06DFE08B103260FE04A46394643
:1022D000204600F0D1FD18B101262020606505E000
:1022E000A06818B92068C16880680090012084F84F
:1022F0005100002084F85000304631E710B5401EF0
:10230000B0F1807F01D3012010BD4FF0E024606167
:102310000F21601700F09FFD0020A06107202061C1
:10232000002010BD70477047704770B504460068C4
:1023300001694FF00005C943890715D4C168C94335
:10234000890711D4E91E0161012020772068806986
:102350008007204602D0FFF7E7FF04E000F098F87E
:10236000204600F0E3F8257720680169C943490752
:1023700017D4C168C943490713D46FF00401016140
:10238000022020772068806910F4407F204602D028
:10239000FFF7CAFF04E000F07BF8204600F0C6F823
:1023A000257720680169C943090716D4C168C94364
:1023B000090712D46FF0080101610420207720681A
:1023C000C0698007204602D0FFF7AEFF04E000F0AE
:1023D0005FF8204600F0AAF8257720680169C94314
:1023E000C90617D4C168C943C90613D46FF01001D8
:1023F0000161082020772068C06910F4407F2046E2
:1024000002D0FFF791FF04E000F042F8204600F010
:102410008DF8257720680169C943C90708D1C168CB
:10242000C943C90704D1891E0161204600F080F824
:1024300020680169C943090609D4C168C94309066E
:1024400005D46FF0800101612046FFF76BFF206823
:102450000169C943490609D4C168C943490605D47D
:102460006FF040010161204600F0B4F82068016976
:10247000C94389060BD4C168C943890607D46FF0E4
:10248000200101612046BDE87040FFF74CBF70BDE0
:1024900009480168486A094A1288104480B24863B2
:1024A00007490868401C0860064909784900B0FBE4
:1024B000F1F0054908807047540600202C000020E8
:1024C00024000020010000202000002010B5026838
:1024D000044631B1042908D008291DD00C2908D19F
:1024E0001EE0D06840F0020002E0D06840F0040036
:1024F000D0600122206800F0A1FE0B4920688842CC
:1025000003D1416C41F4004141642068016841F00D
:1025100001010160002010BDD06840F00800E7E72D
:10252000D06840F01000E3E7002C01407047000045
:1025300070B5204904460068096888422BD11E49BD
:102540008888401C82B28A800878B2FBF0F300FBD6
:10255000132301200BB9194B18704B78B2FBF3F51C
:1025600003FB15230BB9164B1870164B1B78012B68
:1025700001D0022B07D18B78B2FBF3F503FB1523B7
:102580000BB9114B18704FF6FA70824201D9002036
:102590008880FEF7CFFA0D4920680968884208D183
:1025A0000068C1060A48416A01D5491E00E0491C7D
:1025B000416270BDD4060020A2010020A0010020CD
:1025C000A10100205B000020620000209406002092
:1025D000D00100207047704770B50268044610684B
:1025E000D168536910F00F0F50D003F0010501F4CA
:1025F000907635435DD0C20705D0CA0503D5E26B9E
:1026000042F00102E263420705D5DA0703D0E26B2C
:1026100042F00202E263820705D5DA0703D0E26BDB
:1026200042F00402E263020705D5DA0703D0E26B49
:1026300042F00802E263E26B002A33D0800604D540
:10264000880602D5204600F0BFFF20684069E16B94
:10265000C0F38010090700D428B3204600F0A6FF7D
:102660002068416949061AD5416921F0400141615C
:10267000606BA0B11B494163606BFEF739FE002817
:1026800010D0606B416BBDE870400847830610D5E1
:102690008B060ED52046BDE8704000F095BF204661
:1026A000FFF799FF70BD2046FFF795FF0020E0631C
:1026B00070BD030606D50B0604D52046BDE8704064
:1026C00001F086B84006F3D54806F1D5D16820461A
:1026D00021F04001D160202184F8391000F069F91F
:1026E00070BD00009D35000870B5040004D094F85A
:1026F0003900002510B106E0012070BD84F8385083
:10270000204600F023F8242084F839002068C168AE
:1027100021F40051C160204600F0A2FF2068016949
:1027200021F4904101612068416921F02A01416151
:102730002068C16841F40051C160E563202084F83D
:10274000390084F83A00002070BD000070B586B0F2
:1027500000250646009501950295039500681F49DE
:10276000884238D11E49886940F480408861886970
:1027700000F480400490886940F004008861886912
:10278000184C00F0040004904815009002200190BD
:102790000120039069462046FEF7F2FE2015CDE9A0
:1027A0000005694620460295FEF7EAFE0F4C0E48EA
:1027B00020601020C4E901058020C4E90305400120
:1027C0006561C4E906502046FEF788FE08B1FEF7B1
:1027D000D7FA3463666206B070BD0000003801406D
:1027E000001002400008014044000240540700204D
:1027F00090F83A30202B22D1F9B1F2B190F838306C
:10280000012B1CD081628285C2850021C1632222F6
:1028100080F83A2080F838100168CA6842F4807263
:10282000CA6001684A6942F001024A610068C168F1
:1028300041F02001C1600020704701207047022054
:10284000704700002DE9F047234900680968884275
:1028500040D12248234C224A0178208800260A29A8
:1028600011540BD0401C80B22080FF2800D9268054
:10287000BDE8F0471949184801F01AB84FF48079BB
:102880004A461949164800F096F8174D1748DFF8E0
:102890006080EF7807702878FF2802D16878FF28D9
:1028A00007D088F80060268049460F48FDF757FC9E
:1028B000DEE749460F48FDF752FC00200D4903E0D2
:1028C0002A5C0A54401CC0B2B842F9D3012188F8EE
:1028D0000010E8E7BDE8F087140700209F01002002
:1028E000AC0200209C010020AB0300209E010020D0
:1028F000550000209C0000202DE9F843044690F884
:1029000039001F4616460D46202850D1A5B19EB16C
:1029100094F8380001284AD0012084F838004FF09C
:102920000008C4F83C80212084F83900FEF714FF29
:10293000A6848146E68426E00120BDE8F883E08C89
:10294000401EE084A0684B46B0F5805F4FF0000267
:102950004FF080012046009703D000F06AFFE8B9ED
:102960000DE000F066FFC8B928882168C0F30800B0
:102970004860206908B16D1C05E0AD1C03E02168CA
:1029800015F8010B4860E08C0028D8D14B46002296
:1029900040212046009700F04CFF08B10320CCE70F
:1029A000202084F8390084F838800020C5E7022010
:1029B000C3E77047FEE72DE9F04117468846064613
:1029C00000241DE0305DFDF7BDFBC5B23019407835
:1029D000FDF7B8FBC0B2392D01D9373D00E0303DDD
:1029E000E9B2392801D9373800E03038C0B204EBF9
:1029F000D47240EA011008EB6201A41C087024B2F2
:102A0000BC42DFDBBDE8F0812DE9F04714460D46FE
:102A1000FDF709FE2946FDF70BFC184905468842DB
:102A200003DA1748854200D80025A068FDF71DFE8F
:102A3000D4E90823FDF716FDD4F8049080468A46B1
:102A40004846FDF712FED4E90623FDF70BFD0646C6
:102A50000F462846FDF709FED4E90423FDF702FDE1
:102A600032463B46FDF7F8FC42465346FDF753FC21
:102A7000FDF70EFEC4E90159BDE8F087CDCC4C3F0F
:102A8000CDCC4CBFFDF790BF0F4810B50D4901608C
:102A90000821416000214FF480228160C0E90312C7
:102AA000D200C0E905210122C161C0E9081281629A
:102AB000C162FEF7C5FA002803D0BDE81040FEF75A
:102AC0005FB910BD0064004020050020054808B52E
:102AD000416941F001014161406900F0010000904D
:102AE00008BD0000001002402DE9F04186B000252D
:102AF0003F480095019502950395816941F02001B9
:102B00008161816901F020010491816941F0040132
:102B10008161816901F004010491816941F008013A
:102B200081618069334F00F0080004900022022187
:102B30003846FEF70CFEDFF8C080002241F20301A8
:102B40004046FEF704FE0122E0214046FEF7FFFD6D
:102B500002260124CDE90064CDE9025669463846D3
:102B6000FEF70EFD0094CDE9014669464046039408
:102B7000FEF706FDCDE900640296694640460396DD
:102B8000FEF7FEFC20038DE83100694640460394C1
:102B9000FEF7F6FCB020CDE9000402946946384601
:102BA0000394FEF7EDFC4020CDE900056946384668
:102BB0000295FEF7E5FC200200901048CDE90105E2
:102BC00069463846FEF7DCFC4FF44670CDE9000557
:102BD000694640460295FEF7D3FCE0208DE871007F
:102BE00069464046FEF7CCFC06B0BDE8F081000027
:102BF0000010024000080140000C014000001110CC
:102C000010B5002203212520FEF710FE2520FEF737
:102C100001FE002201211720FEF708FE1720FEF713
:102C2000F9FD002211461C20FEF700FE1C20FEF7D5
:102C3000F1FD002205211D20FEF7F8FD1D20FEF705
:102C4000E9FD002202211E20FEF7F0FD1E20FEF706
:102C5000E1FD002205210E20FEF7E8FD0E20FEF723
:102C6000D9FD002204211920FEF7E0FD1920FEF70E
:102C7000D1FD002207211420FEF7D8FD1420FEF715
:102C8000C9FD002206210B20FEF7D0FDBDE8104053
:102C90000B20FEF7BFBD0000104810B50E490160C3
:102CA0004FF482714160002102228160C0E9031269
:102CB0001202C0E905121822C0E9072141628162AF
:102CC0000A21C162FFF7DCF8002803D0BDE81040FC
:102CD000FEF756B810BD000000380040BC050020CB
:102CE0000C4810B50A4901604FF4E1314160002100
:102CF00081600C22C160C0E904128161C161FFF7EB
:102D0000F3FC002803D0BDE81040FEF739B810BD31
:102D10000038014014070020FEE700002DE9F041D3
:102D200088460746424C4FF07C5500F0F1F9384692
:102D3000616AFDF77AFA2946FDF7D0FC04D22946EC
:102D4000606AFDF720FA0DE04FF03F463846616AB1
:102D5000FDF76BFA3146FDF7B7FC05D22946606AEC
:102D6000FDF763FA606200E0676232480368324848
:102D700023624068E061002800DA4042E061218976
:102D80002E4A0844208141461846FFF73DFE2C4953
:102D9000E060884201D3012200E0002222708842D4
:102DA00001D380F00040E060616AB1F5000F03DA02
:102DB000BDE8F04100F08CB9FDF790FC01D8606AE5
:102DC000E0601E4AE1682832E069FFF71DFE2169D4
:102DD000FDF7D9F91B491C4D06462061884204DAEB
:102DE00000202061194860620AE02878FDF724FC81
:102DF0003146FDF769FC03D22878FDF71DFC206100
:102E0000E0888000FDF718FC05461148C8210078CD
:102E10004843FDF711FC2946FDF73FFA2169FDF70C
:102E20000AFA01462078BDE8F04100F029B9000017
:102E3000280000201C000020D001002010020020EB
:102E400000008080CDCCCC3D5C0000200000A04084
:102E50000100002070470907090E002806DA00F07B
:102E60000F0000F1E02080F8141D704700F1E02011
:102E700080F800147047704738B50B46009204463E
:102E80000022802100F08CF8002804D0606D40F012
:102E900020006065032038BD0EB501238DF80800C1
:102EA0006FF07F40009001AA02A90548FFF73AF9A8
:102EB00010B1FF208DF804009DF804000EBD000045
:102EC000BC0500202DE9F04101220C4F0C460546BF
:102ED000160331463846FEF73AFCC4F3032040EAB5
:102EE0000510C0B2FFF7D8FFE0B2FFF7D5FF3146BB
:102EF0003846BDE8F0410022FEF729BC000C014035
:102F0000F8B50D46C0F3074104468DF80010000ADD
:102F10008DF801008DF8024014A000F0D1FC9DF85E
:102F2000011012A000F0CCFC9DF802100FA000F0E0
:102F3000C7FC6FF07F43032269460E48FFF73EF857
:102F400007463006000AC6F3072140EA0120C6F30F
:102F5000074108432860214607A000F0B1FC0BA000
:102F6000296800F0ADFC3846F8BD00000D0A20309D
:102F700078257800BC0500200D0A2053656E64207A
:102F80004461746120307825780000000D0A2052D9
:102F900065637620446174612030782578000000F4
:102FA0002DE9F0411D4617460E460446DDF818800F
:102FB00035E0681C33D02DB1FEF7CEFBA0EB080046
:102FC000A8422CD32068416821F0E001416060688C
:102FD000B0F5827F0BD1A068B0F5004F02D0B0F5FC
:102FE000806F04D12068016821F040010160A06A6F
:102FF000B0F5005F0AD1206801684DF6FF721140FC
:1030000001602068016841F400510160012084F8EA
:103010005100002084F850000320BDE8F0812068B2
:10302000806836EA000004D00020B842C1D10020F8
:10303000F3E70120F9E7000006480178064829B1C6
:10304000012905D101220221FEF781BB0022FAE706
:103050007047000059000020000801400648017830
:10306000064829B1012905D100220221FEF76FBBD4
:103070000122FAE7704700005900002000080140D3
:1030800010B50C46B1F5000F03DABDE8104000F0B2
:103090001FB8012815D0FFF7CFFF0B4841F2707120
:1030A0000068B0FBF1F0FDF7C7FA2146FDF7F5F82F
:1030B000FDF7C7FA84B200F01BF804496008888065
:1030C00010BDFFF7CBFFE8E7A80100202800002093
:1030D000054810B5008820F001010020FFF7F2FE3E
:1030E00002490120087010BD040000209B0100204F
:1030F000054810B5008840F001010020FFF7E2FE0E
:1031000002490020087010BD040000209B0100202F
:1031100010B5094CA07800280DD100210748FFF711
:10312000D5F907480078FDF763FDFFF7E1FF0120BF
:10313000A0700020607010BD280000205406002000
:10314000180000207047FEF70DBB30B593B0282162
:103150006846FDF704F814210AA8FDF700F80025D9
:103160000F950920012110950090119512954FF4AB
:10317000803004910691CDE901050224CDE9074094
:103180004FF4E01009906846FEF7F8FC00B1FEE746
:103190000AA90F2081E831004FF48060CDE90D05C8
:1031A00002210AA8FEF7EAFB00B1FEE74FF4004057
:1031B00011900F940FA8FEF76BFB002800D0FEE7DC
:1031C00013B030BD0D48016841F001010160416854
:1031D0000B4A1140416001680A4A114001600168D0
:1031E00021F480210160416821F4FE0141604FF427
:1031F0001F0181600449C00308607047001002404D
:103200000000FFF8FFFFF6FE08ED00E00148FFF7C1
:103210008CB80000140600200148FFF786B80000B3
:10322000540600200148FFF780B8000094060020F3
:103230000148FFF77AB80000D406002010B501233A
:10324000046A8B409C430462036A8A40134303620E
:1032500010BD000038B533A000F032FB0120FEF7AE
:103260006FF90122354D140321462846FEF76FFA07
:103270000520FEF765F9002221462846FEF767FA89
:103280000520FEF75DF9684600F0BEF828B301207E
:10329000FEF756F9684600F02FF928B30120FEF733
:1032A0004FF9684600F0E2F8002824D00120FEF72C
:1032B00047F9684600F0FEF8002823D00120FEF709
:1032C0003FF9684600F03EF9002822D00120FEF7C1
:1032D00037F91BA000F0F4FA38BD9DF80000FDF7A7
:1032E0001DFD01461CA01AE09DF80000FDF716FD2B
:1032F000014621A013E09DF80000FDF70FFD0146F7
:1033000025A00CE09DF80000FDF708FD01462AA06D
:1033100005E09DF80000FDF701FD01462EA000F03C
:10332000CFFA38BD0D0A20544D4332353930205381
:103330007461727420496E6974210000000C0140B0
:103340000D0A20544D433235393020496E697420BE
:1033500053756365737300000D0A20536574204331
:10336000484F50434F4E46204661696C65642120AA
:103370004D73673A257300000D0A2053657420537E
:10338000474353434F4E46204661696C6564212094
:103390004D73673A257300000D0A2053657420446D
:1033A0005256434F4E46204661696C656421204D5C
:1033B00073673A25730000000D0A2053657420449A
:1033C00052564354524C204661696C656421204D2D
:1033D00073673A25730000000D0A2053657420536B
:1033E0004D415254454E204661696C656421204D23
:1033F00073673A257300000008B500220843694648
:103400000092FFF77DFD08BD70B50546104900200C
:103410002870086820F4C03000F5803020F4FF40A8
:1034200000F5C07020F07000303020F00F04241D33
:103430000C60214607A000F043FA21464FF400201B
:10344000FFF7DAFF10B12870002070BD012070BDB9
:10345000AC0100200D0A205365742043484F5043AF
:103460004F4E4620307825780000000070B50446A5
:103470000020207009484FF420452946056008A027
:1034800000F01EFA29464FF46020FFF7B5FF10B197
:103490002070002070BD012070BD0000B40100202C
:1034A0000D0A2053657420445256434F4E46203037
:1034B0007825780070B5044600202070084804255F
:1034C0002946056007A000F0FBF929460020FFF718
:1034D00093FF10B12070002070BD012070BD00006E
:1034E000B80100200D0A20536574204452564354FD
:1034F000524C20307825780070B5044600202070AA
:103500000848094D0560294608A000F0D9F9294668
:103510004FF44020FFF770FF10B12070002070BD05
:10352000012070BDBC010020080001000D0A2053DD
:1035300065742053474353434F4E462030782578D7
:103540000000000070B505460E490020287008688C
:1035500020F4DE4040F4004000F5007020F06F04DD
:10356000A41C0C60214608A000F0AAF921464FF4E3
:103570002020FFF741FF10B12870002070BD01200E
:1035800070BD0000B00100200D0A20536574205367
:103590004D415254454E20307825780010B5406A90
:1035A0000021C185C184FFF716F810BD0168CA6803
:1035B00022F49072CA6001684A6922F001024A61ED
:1035C000202180F83A10704710B590F83A1022295F
:1035D00001D0022010BD8168B1F5805F11D0016972
:1035E000002901681FD0496801F07F03816A4A1CE5
:1035F00082620B70C18D491E0904090CC18518D067
:103600002BE00269816A002A0268526805D0D2B2B2
:103610000A80816A491C8162ECE7C2F308020A80D1
:10362000816A891CF7E74A68816A4B1C83620A70C9
:10363000E0E70168CA6822F02002CA600168CA682F
:1036400022F48072CA6001684A6922F001024A616C
:10365000202180F83A10FFF7F5F8002010BD000097
:103660002DE9F041044600680169E26821F4405107
:10367000114301612169A068084361690843216819
:10368000CA6841F20C639A430243CA6020684169E8
:10369000A26921F44071114341614C4920686425BD
:1036A000322688423CD1FEF723FA00EBC00101EB41
:1036B000001061688900B0FBF1F7FEF719FA00EB22
:1036C000C00101EB00106168B0468900B0FBF1F069
:1036D000B0FBF5F06FF01801484307EB800106EBF3
:1036E0000110B0FBF5F000F0F006FEF701FA00EB78
:1036F000C00101EB001061688900B0FBF1F0B0FB84
:10370000F5F006EB0016FEF7F3F900EBC00101EB54
:10371000001061688900B0FBF1F7FEF7E9F93BE0C2
:10372000FEF7D6F900EBC00101EB001061688900DB
:10373000B0FBF1F7FEF7CCF900EBC00101EB001094
:103740006168B0468900B0FBF1F0B0FBF5F06FF0B6
:103750001801484307EB800106EB0110B0FBF5F0C0
:1037600000F0F006FEF7B4F900EBC00101EB001029
:1037700061688900B0FBF1F0B0FBF5F006EB0016D4
:10378000FEF7A6F900EBC00101EB001061688900AB
:10379000B0FBF1F7FEF79CF900EBC00101EB001064
:1037A00061688900B0FBF1F0B0FBF5F06FF0180133
:1037B000484307EB800108EB0110B0FBF5F02168EE
:1037C00000F00F0030448860BDE8F081003801400F
:1037D00090F83910212901D0022070478168B1F595
:1037E000805F016A0BD04A1C02620268097851604E
:1037F000C18C491E0904090CC1840ED017E0098848
:103800000268C1F30801516001690029016A02D010
:10381000491C0162ECE7891CFBE70168CA6822F0D9
:103820008002CA600068C16841F04001C1600020A8
:1038300070472DE9F041984617460E460446069D0E
:103840001DE0681C1BD02DB1FDF786FFA0EB080022
:10385000A84214D92068C16821F4D071C1602068E1
:10386000416921F001014161202084F8390084F888
:103870003A00002084F838000320BDE8F081206879
:10388000006836EA000004D00020B842D9D00020F9
:10389000F3E70120F9E700000148FEF79DBE0000B4
:1038A000140700200148FDF7B1BA000020050020F0
:1038B000002280F838200122FEF79ABFFEE70000C0
:1038C0000FB4054B10B503A9044A029800F0DAF8CA
:1038D00010BC5DF814FB0000E1410008CC010020A1
:1038E00002E008C8121F08C1002AFAD170477047C9
:1038F000002001E001C1121F002AFBD17047000027
:103900002DE9FF5F82B00021DDE90430020DDDF812
:1039100040B0034318D044F61050A2F2FF324243A5
:103920001514119801281FD0A5EB0B00401C5FEA6D
:10393000000A4FF000064E4FDFF83891B04650466F
:1039400015D5CAF1000413E0119801244AA30128F7
:1039500001D16FEA0B010298119AC0E90031C0E968
:10396000024206B0BDE8F09FCBF10000DFE704465D
:103970000021404A491842EB0450CDE9001012E002
:10398000E00707D032463B4640464946FCF76AFD11
:103990008046894632463B4610461946FCF762FD92
:1039A00006460F466410002CEAD1DDE90401DDE98A
:1039B0000023BAF1000F06DAFCF754FD42464B46ED
:1039C000FCF750FD05E0FCF7BFFD42464B46FCF717
:1039D000BBFD04460E460022284BFCF79DFF03D892
:1039E0004FF0FF30014607E00022254B20463146CC
:1039F000FCF791FCFCF778FF102409E0002C0ADBAF
:103A00000A220023FCF78AFE039B30321A55641EFB
:103A100050EA0102F2D1641C039AC4F11103144468
:103A2000119A012A03D0012208430DD10AE008436C
:103A300004D000204FF0110B119072E7A3EB0B059F
:103A40006D1E0DE05B4504DD4FF0000205F1010540
:103A500004E003DA4FF00002A5F10105002AECD0E2
:103A600002981199C0E90231C0E9004579E70000E8
:103A7000000014400000F03F300000000000F04360
:103A80000000E03F2DE9FF4F95B09B468946064672
:103A900000250FE2252877D100242746F84A012186
:103AA000059400E0044316F8013F203B01FA03F0BF
:103AB0001042F7D130782A2811D06FF02F033078D8
:103AC000A0F13002092A16D8059A44F0020402EB4C
:103AD000820203EB42021044761C0590EFE759F88E
:103AE000042B0592002A03DA504244F40054059056
:103AF00044F00204761C30782E2816D116F8010FF7
:103B000044F004042A280DD06FF02F023078A0F181
:103B10003003092B09D807EB870302EB4303C718CF
:103B2000761CF3E759F8047B761C30786C280FD0AC
:103B300006DC4C2817D068280DD06A2814D104E080
:103B4000742810D07A280FD10DE044F400140AE054
:103B500044F4801401E044F440147278824202D1AB
:103B600004F58014761C761C307866280BD013DCA4
:103B7000582877D009DC002875D04528F6D046288B
:103B8000F4D047281AD19DE118E0632835D0642885
:103B900079D0652812D195E1702873D008DC6728A8
:103BA000F1D069286FD06E280DD06F2806D1B5E00E
:103BB00073282CD0752875D0782874D05A46179958
:103BC00090476D1C75E1C4F30250022809D0032808
:103BD0000DD0D9F8001004280DD00D6009F10409AA
:103BE00067E1D9F80010EA17C1E90052F6E7D9F801
:103BF00000100D80F2E70D70F0E719F8041B8DF846
:103C0000001000208DF80100EA46012003E059F879
:103C100004AB4FF0FF3061074FF0000102D40DE01C
:103C200008F101018846B9420FDA8045F8DB1AF83D
:103C300008100029F4D108E008F10101884681420A
:103C4000FADB1AF808100029F6D105985B46A0EBBC
:103C5000080721463846179A00F094FA284400EBEA
:103C6000080507E04DE029E10DE01AF8010B5A467E
:103C700017999047B8F10108F7D25B4621463846BC
:103C8000179A13E142E00A220092C4F302524FF065
:103C9000000A022A08D059F804CB032A4FEAEC7133
:103CA0000AD00DE029E02AE009F1070121F007021E
:103CB000F2E802C1914609E00FFA8CFC4FEAEC7180
:103CC000042A03D14FFA8CFC4FEAEC71002907DA81
:103CD0000A460021DCF1000C61EB02012D2202E01A
:103CE000220504D52B228DF80420012203E0E207EF
:103CF00001D02022F7E7904659E00A2102E0102285
:103D00000DE010214FF0000A00910BE010224FF05F
:103D1000000A44F004040827009203E008224FF050
:103D2000000A0092C4F30252022A05D059F804CBCB
:103D30000021032A08D009E009F1070121F0070258
:103D4000F2E802C1914605E01FFA8CFC042A01D179
:103D50000CF0FF0C4FF00008220728D5702806D081
:103D6000009B83F0100353EA0A0305D00EE04022C3
:103D70008DF80420012208E05CEA010206D030221E
:103D80008DF804208DF8050002229046009B83F0F8
:103D9000080353EA0A030AD15CEA010201D162076F
:103DA00005D530228DF804204FF001087F1E5828D9
:103DB00004D034A003900EA802900DE036A0F9E7DD
:103DC00053466046009AFCF7A9FC84460398825C3F
:103DD0000298401E029002705CEA0100F0D1029845
:103DE00006A9081A00F1200A600702D524F48034DD
:103DF00000E00127574502DDA7EB0A0000E00020A4
:103E000000EB0A01009005984144401A0590E00338
:103E100006D45B462146179A059800F0B3F905448D
:103E2000002706E001A85A46C05D179990476D1C0F
:103E30007F1C4745F6DBE0030CD55B462146179A0D
:103E4000059800F09FF9054404E030205A46179980
:103E500090476D1C0099481E00900029F5DC08E091
:103E6000029802995A460078491C02911799904786
:103E70006D1CBAF10001AAF1010AF1DC65E1000054
:103E80000928010030313233343536373839616230
:103E900063646566000000003031323334353637F4
:103EA00038394142434445460000000000F058F9CB
:103EB0000544761C307800287FF4ECAD19B0284614
:103EC000BDE8F08F620700D4062709F1070222F04F
:103ED000070CFCE80223E14603F000485FEA080C07
:103EE00002D00FF2702C0DE05FEA045C02D50FF2F5
:103EF000682C07E05FEAC47C02D00FF2602C01E07E
:103F0000AFF2700C4FF0FF3823F00043CDF850C0F3
:103F100065280CD006DC452809D046281DD0472846
:103F20003DD13DE0662818D067287ED138E00021D9
:103F3000112F01DB112000E0781CCDE9000106A95A
:103F40000EA8FFF7DDFCDDE90F010E9A03910021B9
:103F5000009207F1010A04914DE04FF000400097F4
:103F6000CDE9011006A90EA8FFF7CAFCDDE90F0292
:103F700003920E9B11990022DDF80CA0009304928D
:103F800011B9791C00EB010AB7EB0A0004D4C0F1A7
:103F9000FF3007F1010A0490AAEB0700019044E00A
:103FA000012F00DA01270021112F01DD112000E08F
:103FB0003846CDE9000106A90EA8FFF7A1FCDDE90E
:103FC0000F010E9A0391002104910092BA46210735
:103FD0000CD40399514500DA8A46BAF1010F05DD88
:103FE000009AAAF10101515C302908D0B84202DAE6
:103FF00010F1040F06DA0121CDE9011015E0AAF154
:104000000101E9E7002805DC049901440491AAEBC9
:10401000000102E0411C514500DD8A460499401A26
:10402000401C01904FF000400290200704D40198FA
:10403000504501DBCDF8048000208DF84F00029838
:104040000DF14F07B0F1004F25D02B200E900298B4
:104050004FF0020800280CDA404202902D200E900A
:1040600007E00A210298FCF743FB3031029007F881
:10407000011DB8F10001A8F10108F2DC0298002846
:10408000EFD1791E0E980870307800F0200040F0D3
:10409000450007F8020D12A8C01B00F1070814988C
:1040A000007800B1012000EB0A01019801EBE071FA
:1040B00005984144401A401E0590E00306D45B4633
:1040C0002146179A059800F05DF805441498007889
:1040D00018B15A46179990476D1CE00324D55B46EA
:1040E0002146179A059800F04DF805441CE0049805
:1040F000002807DBDDE90301884203DD0098405C0E
:10410000179901E0179930205A469047049805F115
:104110000105401C04900198401E019004D12E20FE
:104120005A46179990476D1CBAF10001AAF1010A8D
:10413000DDDC05E017F8010B5A46179990476D1C16
:10414000B8F10001A8F10108F4DC5B462146179A9A
:104150000598ABE62D0000002B00000020000000B9
:104160002DE9F041044600251E461746880404D474
:1041700005E039462020B0476D1C641EF9D528465D
:10418000BDE8F0812DE9F041044600251E46904629
:10419000C80301D5302700E02027880404D505E0B6
:1041A00041463846B0476D1C641EF9D52846BDE827
:1041B000F081000010B5094C002220212046FDF7B7
:1041C000C6FA0A20FDF7BCF9012220212046FDF79E
:1041D000BEFABDE810400A20FDF7B2B90008014060
:1041E00013B54FF47A73012269460248FEF784FB47
:1041F00000981CBD14070020FDF7BCFAFEF7A5FFD0
:10420000FEF772FCFEF762FCFEF76AFDFEF73CFC6F
:10421000FEF742FDFEF7F4FC0B4C00222021204665
:10422000FDF795FA002280212046FDF790FAFFF76E
:1042300011F8012210210548FDF789FAFCF792FCDC
:10424000FEF720FCFCE70000000C014000080140E4
:104250002DE9F0410024114D02E000BFFFF7AAFF55
:1042600040212846FDF76AFA0128F7D00B4F0025B8
:104270004FF6FF7617F10807FFF79CFF386806EA4C
:104280004404400601D544F001046D1CEDB2102D2C
:10429000F2D3FFF78FFF2046BDE8F0810008014010
:1042A0002DE9F0410E4605460024DFF830804FF638
:1042B000FF770EE0280401D5012200E000228021D2
:1042C0004046FDF744FA07EA4505FFF773FF641C13
:1042D000E4B2B442EED3BDE8F08100000008014032
:1042E00000000000000000000102030406070809A6
:1042F0000000000001020304184300080000002031
:10430000D00100006C0900085C430008D0010020C7
:10431000D8090000F03800082C00200500220CFF0E
:1043200001400040371001100C590A0614CDCCCCC6
:104330003DFF051FF401E80353A0408201647801AA
:10434000010231A2720103FEFFFF3201420A543220
:0C435000053C0415A24A044201C2100002
:04000005080000ED02
:00000001FF
